{
  "_format": "hh-sol-artifact-1",
  "contractName": "FantomLottery",
  "sourceName": "contracts/Lotto.sol",
  "abi": [
    {
      "inputs": [
        {
          "internalType": "uint256",
          "name": "_drawFrequency",
          "type": "uint256"
        },
        {
          "internalType": "uint256",
          "name": "_ticketPrice",
          "type": "uint256"
        },
        {
          "internalType": "string",
          "name": "_name",
          "type": "string"
        },
        {
          "internalType": "address",
          "name": "_feeRecipient",
          "type": "address"
        },
        {
          "internalType": "uint256",
          "name": "_modulus",
          "type": "uint256"
        }
      ],
      "stateMutability": "nonpayable",
      "type": "constructor"
    },
    {
      "anonymous": false,
      "inputs": [
        {
          "indexed": false,
          "internalType": "bool",
          "name": "winnerSelected",
          "type": "bool"
        },
        {
          "indexed": false,
          "internalType": "bytes32",
          "name": "winningTicket",
          "type": "bytes32"
        }
      ],
      "name": "newDraw",
      "type": "event"
    },
    {
      "anonymous": false,
      "inputs": [
        {
          "indexed": false,
          "internalType": "address",
          "name": "entrant",
          "type": "address"
        },
        {
          "indexed": false,
          "internalType": "bytes32",
          "name": "ticketID",
          "type": "bytes32"
        },
        {
          "indexed": false,
          "internalType": "uint256",
          "name": "totalPot",
          "type": "uint256"
        }
      ],
      "name": "newEntry",
      "type": "event"
    },
    {
      "anonymous": false,
      "inputs": [
        {
          "indexed": false,
          "internalType": "address",
          "name": "user",
          "type": "address"
        },
        {
          "indexed": false,
          "internalType": "uint256",
          "name": "amount",
          "type": "uint256"
        }
      ],
      "name": "newPayment",
      "type": "event"
    },
    {
      "anonymous": false,
      "inputs": [
        {
          "indexed": false,
          "internalType": "uint256",
          "name": "lottoNumber",
          "type": "uint256"
        }
      ],
      "name": "newRound",
      "type": "event"
    },
    {
      "inputs": [],
      "name": "currentDraw",
      "outputs": [
        {
          "internalType": "uint256",
          "name": "",
          "type": "uint256"
        }
      ],
      "stateMutability": "view",
      "type": "function"
    },
    {
      "inputs": [],
      "name": "currentLotto",
      "outputs": [
        {
          "internalType": "uint256",
          "name": "",
          "type": "uint256"
        }
      ],
      "stateMutability": "view",
      "type": "function"
    },
    {
      "inputs": [
        {
          "internalType": "address",
          "name": "",
          "type": "address"
        }
      ],
      "name": "debtToUser",
      "outputs": [
        {
          "internalType": "uint256",
          "name": "",
          "type": "uint256"
        }
      ],
      "stateMutability": "view",
      "type": "function"
    },
    {
      "inputs": [],
      "name": "draw",
      "outputs": [
        {
          "internalType": "bytes32",
          "name": "",
          "type": "bytes32"
        }
      ],
      "stateMutability": "nonpayable",
      "type": "function"
    },
    {
      "inputs": [],
      "name": "drawFrequency",
      "outputs": [
        {
          "internalType": "uint256",
          "name": "",
          "type": "uint256"
        }
      ],
      "stateMutability": "view",
      "type": "function"
    },
    {
      "inputs": [],
      "name": "enter",
      "outputs": [
        {
          "internalType": "bytes32",
          "name": "",
          "type": "bytes32"
        }
      ],
      "stateMutability": "payable",
      "type": "function"
    },
    {
      "inputs": [],
      "name": "ethDecimals",
      "outputs": [
        {
          "internalType": "uint256",
          "name": "",
          "type": "uint256"
        }
      ],
      "stateMutability": "view",
      "type": "function"
    },
    {
      "inputs": [],
      "name": "fee",
      "outputs": [
        {
          "internalType": "uint256",
          "name": "",
          "type": "uint256"
        }
      ],
      "stateMutability": "view",
      "type": "function"
    },
    {
      "inputs": [],
      "name": "feeRecipient",
      "outputs": [
        {
          "internalType": "address",
          "name": "",
          "type": "address"
        }
      ],
      "stateMutability": "view",
      "type": "function"
    },
    {
      "inputs": [],
      "name": "getPaid",
      "outputs": [
        {
          "internalType": "bool",
          "name": "",
          "type": "bool"
        }
      ],
      "stateMutability": "nonpayable",
      "type": "function"
    },
    {
      "inputs": [],
      "name": "modulus",
      "outputs": [
        {
          "internalType": "uint256",
          "name": "",
          "type": "uint256"
        }
      ],
      "stateMutability": "view",
      "type": "function"
    },
    {
      "inputs": [],
      "name": "name",
      "outputs": [
        {
          "internalType": "string",
          "name": "",
          "type": "string"
        }
      ],
      "stateMutability": "view",
      "type": "function"
    },
    {
      "inputs": [],
      "name": "readyToDraw",
      "outputs": [
        {
          "internalType": "bool",
          "name": "",
          "type": "bool"
        }
      ],
      "stateMutability": "view",
      "type": "function"
    },
    {
      "inputs": [],
      "name": "ticketCounter",
      "outputs": [
        {
          "internalType": "uint256",
          "name": "",
          "type": "uint256"
        }
      ],
      "stateMutability": "view",
      "type": "function"
    },
    {
      "inputs": [],
      "name": "ticketPrice",
      "outputs": [
        {
          "internalType": "uint256",
          "name": "",
          "type": "uint256"
        }
      ],
      "stateMutability": "view",
      "type": "function"
    },
    {
      "inputs": [
        {
          "internalType": "bytes32",
          "name": "",
          "type": "bytes32"
        }
      ],
      "name": "tickets",
      "outputs": [
        {
          "internalType": "uint256",
          "name": "ticketNumber",
          "type": "uint256"
        }
      ],
      "stateMutability": "view",
      "type": "function"
    },
    {
      "inputs": [
        {
          "internalType": "uint256",
          "name": "",
          "type": "uint256"
        },
        {
          "internalType": "address",
          "name": "",
          "type": "address"
        },
        {
          "internalType": "uint256",
          "name": "",
          "type": "uint256"
        }
      ],
      "name": "userTickets",
      "outputs": [
        {
          "internalType": "bytes32",
          "name": "",
          "type": "bytes32"
        }
      ],
      "stateMutability": "view",
      "type": "function"
    },
    {
      "inputs": [
        {
          "internalType": "uint256",
          "name": "lottoNumber",
          "type": "uint256"
        }
      ],
      "name": "viewLotto",
      "outputs": [
        {
          "components": [
            {
              "internalType": "uint256",
              "name": "startTime",
              "type": "uint256"
            },
            {
              "internalType": "uint256",
              "name": "lastDraw",
              "type": "uint256"
            },
            {
              "internalType": "uint256",
              "name": "totalPot",
              "type": "uint256"
            },
            {
              "internalType": "bytes32",
              "name": "winningTicket",
              "type": "bytes32"
            },
            {
              "internalType": "bool",
              "name": "finished",
              "type": "bool"
            }
          ],
          "internalType": "struct Lottery",
          "name": "",
          "type": "tuple"
        }
      ],
      "stateMutability": "view",
      "type": "function"
    },
    {
      "inputs": [],
      "name": "viewOdds",
      "outputs": [
        {
          "internalType": "uint256",
          "name": "",
          "type": "uint256"
        }
      ],
      "stateMutability": "view",
      "type": "function"
    },
    {
      "inputs": [
        {
          "internalType": "bytes32",
          "name": "_ticketID",
          "type": "bytes32"
        }
      ],
      "name": "viewTicketHolders",
      "outputs": [
        {
          "internalType": "address[]",
          "name": "",
          "type": "address[]"
        }
      ],
      "stateMutability": "view",
      "type": "function"
    },
    {
      "inputs": [
        {
          "internalType": "bytes32",
          "name": "_ticketID",
          "type": "bytes32"
        }
      ],
      "name": "viewTicketNumber",
      "outputs": [
        {
          "internalType": "uint256",
          "name": "",
          "type": "uint256"
        }
      ],
      "stateMutability": "view",
      "type": "function"
    },
    {
      "inputs": [
        {
          "internalType": "uint256",
          "name": "lottoNumber",
          "type": "uint256"
        }
      ],
      "name": "viewTicketsByLotto",
      "outputs": [
        {
          "internalType": "bytes32[]",
          "name": "",
          "type": "bytes32[]"
        }
      ],
      "stateMutability": "view",
      "type": "function"
    },
    {
      "inputs": [],
      "name": "viewWinnings",
      "outputs": [
        {
          "internalType": "uint256",
          "name": "",
          "type": "uint256"
        }
      ],
      "stateMutability": "view",
      "type": "function"
    }
  ],
  "bytecode": "0x60e06040523480156200001157600080fd5b5060405162002d7438038062002d748339818101604052810190620000379190620003a3565b600160008190555084608081815250508360a0818152505082600190805190602001906200006792919062000253565b5081600260006101000a81548173ffffffffffffffffffffffffffffffffffffffff021916908373ffffffffffffffffffffffffffffffffffffffff1602179055508060c08181525050620000c1620000cd60201b60201c565b50505050505062000727565b6000806003541115620001435760066000600354815260200190815260200160002060040160009054906101000a900460ff1662000142576040517f08c379a00000000000000000000000000000000000000000000000000000000081526004016200013990620004b7565b60405180910390fd5b5b60036000815480929190620001589062000618565b91905055506040518060a00160405280620001786200024b60201b60201c565b81526020016200018d6200024b60201b60201c565b8152602001600081526020016000801b8152602001600015158152506006600060035481526020019081526020016000206000820151816000015560208201518160010155604082015181600201556060820151816003015560808201518160040160006101000a81548160ff0219169083151502179055509050507fa35bd591310404f547e67d0f261a54d0a2a7606bf1695c5e9134f4259805eb7c6003546040516200023c9190620004d9565b60405180910390a16001905090565b600042905090565b8280546200026190620005e2565b90600052602060002090601f016020900481019282620002855760008555620002d1565b82601f10620002a057805160ff1916838001178555620002d1565b82800160010185558215620002d1579182015b82811115620002d0578251825591602001919060010190620002b3565b5b509050620002e09190620002e4565b5090565b5b80821115620002ff576000816000905550600101620002e5565b5090565b60006200031a62000314846200052a565b620004f6565b9050828152602081018484840111156200033357600080fd5b62000340848285620005ac565b509392505050565b6000815190506200035981620006f3565b92915050565b600082601f8301126200037157600080fd5b81516200038384826020860162000303565b91505092915050565b6000815190506200039d816200070d565b92915050565b600080600080600060a08688031215620003bc57600080fd5b6000620003cc888289016200038c565b9550506020620003df888289016200038c565b945050604086015167ffffffffffffffff811115620003fd57600080fd5b6200040b888289016200035f565b93505060606200041e8882890162000348565b925050608062000431888289016200038c565b9150509295509295909350565b60006200044d6021836200055d565b91507f70726576696f7573206c6f747465727920686173206e6f742066696e6973686560008301527f64000000000000000000000000000000000000000000000000000000000000006020830152604082019050919050565b620004b181620005a2565b82525050565b60006020820190508181036000830152620004d2816200043e565b9050919050565b6000602082019050620004f06000830184620004a6565b92915050565b6000604051905081810181811067ffffffffffffffff8211171562000520576200051f620006c4565b5b8060405250919050565b600067ffffffffffffffff821115620005485762000547620006c4565b5b601f19601f8301169050602081019050919050565b600082825260208201905092915050565b60006200057b8262000582565b9050919050565b600073ffffffffffffffffffffffffffffffffffffffff82169050919050565b6000819050919050565b60005b83811015620005cc578082015181840152602081019050620005af565b83811115620005dc576000848401525b50505050565b60006002820490506001821680620005fb57607f821691505b6020821081141562000612576200061162000695565b5b50919050565b60006200062582620005a2565b91507fffffffffffffffffffffffffffffffffffffffffffffffffffffffffffffffff8214156200065b576200065a62000666565b5b600182019050919050565b7f4e487b7100000000000000000000000000000000000000000000000000000000600052601160045260246000fd5b7f4e487b7100000000000000000000000000000000000000000000000000000000600052602260045260246000fd5b7f4e487b7100000000000000000000000000000000000000000000000000000000600052604160045260246000fd5b620006fe816200056e565b81146200070a57600080fd5b50565b6200071881620005a2565b81146200072457600080fd5b50565b60805160a05160c0516126016200077360003960008181610855015281816110e0015261157001526000818161082f0152610eb80152600081816109e40152610a3701526126016000f3fe6080604052600436106101405760003560e01c80639ad572f5116100b6578063ddca3f431161006f578063ddca3f4314610468578063df0dd0d514610493578063e56d71bc146104d0578063e97dcb621461050d578063ebec93621461052b578063ff4b04001461056857610140565b80639ad572f514610342578063a5a405441461036d578063b858bb6514610398578063cd15cf61146103d5578063cf41d6f814610400578063dccd1ae11461042b57610140565b80634690484011610108578063469048401461021c57806355e9fa4f1461024757806386ae228f1461028457806387687952146102c15780638c4d59d0146102ec57806397ba287c1461031757610140565b806306fdde03146101455780630eecae21146101705780631209b1f61461019b578063154a7980146101c657806330bd8d69146101f1575b600080fd5b34801561015157600080fd5b5061015a610593565b60405161016791906120d2565b60405180910390f35b34801561017c57600080fd5b50610185610621565b60405161019291906120b7565b60405180910390f35b3480156101a757600080fd5b506101b061082d565b6040516101bd91906121ef565b60405180910390f35b3480156101d257600080fd5b506101db610851565b6040516101e891906121ef565b60405180910390f35b3480156101fd57600080fd5b50610206610885565b60405161021391906121ef565b60405180910390f35b34801561022857600080fd5b50610231610891565b60405161023e9190611fb4565b60405180910390f35b34801561025357600080fd5b5061026e60048036038101906102699190611a8b565b6108b7565b60405161027b9190612051565b60405180910390f35b34801561029057600080fd5b506102ab60048036038101906102a69190611a62565b610966565b6040516102b891906121ef565b60405180910390f35b3480156102cd57600080fd5b506102d6610986565b6040516102e391906121ef565b60405180910390f35b3480156102f857600080fd5b506103016109d4565b60405161030e91906121ef565b60405180910390f35b34801561032357600080fd5b5061032c6109da565b60405161033991906121ef565b60405180910390f35b34801561034e57600080fd5b506103576109e0565b6040516103649190612073565b60405180910390f35b34801561037957600080fd5b50610382610a35565b60405161038f91906121ef565b60405180910390f35b3480156103a457600080fd5b506103bf60048036038101906103ba9190611ab4565b610a59565b6040516103cc91906120b7565b60405180910390f35b3480156103e157600080fd5b506103ea610a97565b6040516103f791906121ef565b60405180910390f35b34801561040c57600080fd5b50610415610a9d565b6040516104229190612073565b60405180910390f35b34801561043757600080fd5b50610452600480360381019061044d9190611a8b565b610d29565b60405161045f91906121d4565b60405180910390f35b34801561047457600080fd5b5061047d610d99565b60405161048a91906121ef565b60405180910390f35b34801561049f57600080fd5b506104ba60048036038101906104b59190611a62565b610da4565b6040516104c791906121ef565b60405180910390f35b3480156104dc57600080fd5b506104f760048036038101906104f29190611a62565b610dc2565b604051610504919061202f565b60405180910390f35b610515610e66565b60405161052291906120b7565b60405180910390f35b34801561053757600080fd5b50610552600480360381019061054d9190611a39565b6110c6565b60405161055f91906121ef565b60405180910390f35b34801561057457600080fd5b5061057d6110de565b60405161058a91906121ef565b60405180910390f35b600180546105a090612432565b80601f01602080910402602001604051908101604052809291908181526020018280546105cc90612432565b80156106195780601f106105ee57610100808354040283529160200191610619565b820191906000526020600020905b8154815290600101906020018083116105fc57829003601f168201915b505050505081565b600060026000541415610669576040517f08c379a0000000000000000000000000000000000000000000000000000000008152600401610660906121b4565b60405180910390fd5b60026000819055506106796109e0565b6106b8576040517f08c379a00000000000000000000000000000000000000000000000000000000081526004016106af90612114565b60405180910390fd5b60066000600354815260200190815260200160002060040160009054906101000a900460ff161561071e576040517f08c379a000000000000000000000000000000000000000000000000000000000815260040161071590612174565b60405180910390fd5b610726611102565b60066000600354815260200190815260200160002060010181905550600061074c61110a565b90506000801b8114156107b4576004600081548092919061076c90612464565b91905055507fe0dbc9529120eb99dfdd738608a453baef8223964340a20ebbc2d79558ea1f9a6000826040516107a392919061208e565b60405180910390a180915050610822565b80600660006003548152602001908152602001600020600301819055506107d961115c565b506107e2611326565b507fe0dbc9529120eb99dfdd738608a453baef8223964340a20ebbc2d79558ea1f9a60018260405161081592919061208e565b60405180910390a1809150505b600160008190555090565b7f000000000000000000000000000000000000000000000000000000000000000081565b60007f0000000000000000000000000000000000000000000000000000000000000000600a610880919061231f565b905090565b670de0b6b3a764000081565b600260009054906101000a900473ffffffffffffffffffffffffffffffffffffffff1681565b60606008600083815260200190815260200160002060006108d6611347565b73ffffffffffffffffffffffffffffffffffffffff1673ffffffffffffffffffffffffffffffffffffffff16815260200190815260200160002080548060200260200160405190810160405280929190818152602001828054801561095a57602002820191906000526020600020905b815481526020019060010190808311610946575b50505050509050919050565b600060076000838152602001908152602001600020600101549050919050565b600060096000610994611347565b73ffffffffffffffffffffffffffffffffffffffff1673ffffffffffffffffffffffffffffffffffffffff16815260200190815260200160002054905090565b60055481565b60045481565b60007f000000000000000000000000000000000000000000000000000000000000000060066000600354815260200190815260200160002060010154610a24611102565b610a2e9190612379565b1015905090565b7f000000000000000000000000000000000000000000000000000000000000000081565b60086020528260005260406000206020528160005260406000208181548110610a8157600080fd5b9060005260206000200160009250925050505481565b60035481565b600060026000541415610ae5576040517f08c379a0000000000000000000000000000000000000000000000000000000008152600401610adc906121b4565b60405180910390fd5b6002600081905550600060096000610afb611347565b73ffffffffffffffffffffffffffffffffffffffff1673ffffffffffffffffffffffffffffffffffffffff168152602001908152602001600020541415610b77576040517f08c379a0000000000000000000000000000000000000000000000000000000008152600401610b6e90612154565b60405180910390fd5b600060096000610b85611347565b73ffffffffffffffffffffffffffffffffffffffff1673ffffffffffffffffffffffffffffffffffffffff168152602001908152602001600020549050600060096000610bd0611347565b73ffffffffffffffffffffffffffffffffffffffff1673ffffffffffffffffffffffffffffffffffffffff16815260200190815260200160002081905550610c16611347565b73ffffffffffffffffffffffffffffffffffffffff166108fc829081150290604051600060405180830381858888f19350505050158015610c5b573d6000803e3d6000fd5b50600060096000610c6a611347565b73ffffffffffffffffffffffffffffffffffffffff1673ffffffffffffffffffffffffffffffffffffffff1681526020019081526020016000205414610cd9577f4e487b7100000000000000000000000000000000000000000000000000000000600052600160045260246000fd5b7f481007a75a4407f69a4ebcf25782e3537f6d76c13b46f71db08ae80c2b699e07610d02611347565b82604051610d11929190612006565b60405180910390a16001915050600160008190555090565b610d3161191f565b600660008381526020019081526020016000206040518060a0016040529081600082015481526020016001820154815260200160028201548152602001600382015481526020016004820160009054906101000a900460ff1615151515815250509050919050565b666a94d74f43000081565b60076020528060005260406000206000915090508060010154905081565b606060076000838152602001908152602001600020600001805480602002602001604051908101604052809291908181526020018280548015610e5a57602002820191906000526020600020905b8160009054906101000a900473ffffffffffffffffffffffffffffffffffffffff1673ffffffffffffffffffffffffffffffffffffffff1681526020019060010190808311610e10575b50505050509050919050565b600060026000541415610eae576040517f08c379a0000000000000000000000000000000000000000000000000000000008152600401610ea5906121b4565b60405180910390fd5b60026000819055507f00000000000000000000000000000000000000000000000000000000000000003414610f18576040517f08c379a0000000000000000000000000000000000000000000000000000000008152600401610f0f90612134565b60405180910390fd5b6000151560066000600354815260200190815260200160002060040160009054906101000a900460ff16151514610f84576040517f08c379a0000000000000000000000000000000000000000000000000000000008152600401610f7b90612194565b60405180910390fd5b600034905060056000815480929190610f9c90612464565b9190505550806006600060035481526020019081526020016000206002016000828254610fc99190612298565b925050819055506000610fda61134f565b90506008600060035481526020019081526020016000206000610ffb611347565b73ffffffffffffffffffffffffffffffffffffffff1673ffffffffffffffffffffffffffffffffffffffff1681526020019081526020016000208190806001815401808255809150506001900390600052602060002001600090919091909150557f1a68cfba6503f189182fd0e12b64a6c8b19d129ee1bb7aba124ab08d8a57e468611085611347565b82600660006003548152602001908152602001600020600201546040516110ae93929190611fcf565b60405180910390a18092505050600160008190555090565b60096020528060005260406000206000915090505481565b7f000000000000000000000000000000000000000000000000000000000000000081565b600042905090565b60008061111561155f565b90506000611122826115a4565b9050600060076000838152602001908152602001600020600001805490501115611150578092505050611159565b6000801b925050505b90565b6000600160066000600354815260200190815260200160002060040160006101000a81548160ff021916908315150217905550600060066000600354815260200190815260200160002060030154905060006007600083815260200190815260200160002060000180548060200260200160405190810160405280929190818152602001828054801561124457602002820191906000526020600020905b8160009054906101000a900473ffffffffffffffffffffffffffffffffffffffff1673ffffffffffffffffffffffffffffffffffffffff16815260200190600101908083116111fa575b5050505050905060006112556115e1565b905060006112638285611673565b905060005b835181101561131a5781600960008684815181106112af577f4e487b7100000000000000000000000000000000000000000000000000000000600052603260045260246000fd5b602002602001015173ffffffffffffffffffffffffffffffffffffffff1673ffffffffffffffffffffffffffffffffffffffff16815260200190815260200160002060008282546113009190612298565b92505081905550808061131290612464565b915050611268565b50600194505050505090565b600080600481905550600060058190555061133f61174e565b506001905090565b600033905090565b60008061135a61155f565b90506000611367826115a4565b905060006007600083815260200190815260200160002060000180549050111561141357600760008281526020019081526020016000206000016113a9611347565b9080600181540180825580915050600190039060005260206000200160009091909190916101000a81548173ffffffffffffffffffffffffffffffffffffffff021916908373ffffffffffffffffffffffffffffffffffffffff160217905550809250505061155c565b6000600167ffffffffffffffff811115611456577f4e487b7100000000000000000000000000000000000000000000000000000000600052604160045260246000fd5b6040519080825280602002602001820160405280156114845781602001602082028036833780820191505090505b50905061148f611347565b816000815181106114c9577f4e487b7100000000000000000000000000000000000000000000000000000000600052603260045260246000fd5b602002602001019073ffffffffffffffffffffffffffffffffffffffff16908173ffffffffffffffffffffffffffffffffffffffff1681525050604051806040016040528082815260200184815250600760008481526020019081526020016000206000820151816000019080519060200190611547929190611953565b50602082015181600101559050508193505050505b90565b60008061156a6118b4565b905060007f00000000000000000000000000000000000000000000000000000000000000008261159a91906124b7565b9050809250505090565b600080600354600454846040516020016115c093929190611f77565b60405160208183030381529060405280519060200120905080915050919050565b600080600660006003548152602001908152602001600020600201549050600061160a826118eb565b90506000818361161a9190612379565b905060066000600354815260200190815260200160002060020154811061166a577f4e487b7100000000000000000000000000000000000000000000000000000000600052600160045260246000fd5b80935050505090565b60008060076000848152602001908152602001600020600001805490509050600084600660006003548152602001908152602001600020600201546116b89190612379565b90508060096000600260009054906101000a900473ffffffffffffffffffffffffffffffffffffffff1673ffffffffffffffffffffffffffffffffffffffff1673ffffffffffffffffffffffffffffffffffffffff168152602001908152602001600020600082825461172b9190612298565b925050819055506000828661174091906122ee565b905080935050505092915050565b60008060035411156117c05760066000600354815260200190815260200160002060040160009054906101000a900460ff166117bf576040517f08c379a00000000000000000000000000000000000000000000000000000000081526004016117b6906120f4565b60405180910390fd5b5b600360008154809291906117d390612464565b91905055506040518060a001604052806117eb611102565b81526020016117f8611102565b8152602001600081526020016000801b8152602001600015158152506006600060035481526020019081526020016000206000820151816000015560208201518160010155604082015181600201556060820151816003015560808201518160040160006101000a81548160ff0219169083151502179055509050507fa35bd591310404f547e67d0f261a54d0a2a7606bf1695c5e9134f4259805eb7c6003546040516118a591906121ef565b60405180910390a16001905090565b600042436005546040516020016118cd93929190611f77565b6040516020818303038152906040528051906020012060001c905090565b600080670de0b6b3a7640000666a94d74f4300008461190a919061231f565b61191491906122ee565b905080915050919050565b6040518060a00160405280600081526020016000815260200160008152602001600080191681526020016000151581525090565b8280548282559060005260206000209081019282156119cc579160200282015b828111156119cb5782518260006101000a81548173ffffffffffffffffffffffffffffffffffffffff021916908373ffffffffffffffffffffffffffffffffffffffff16021790555091602001919060010190611973565b5b5090506119d991906119dd565b5090565b5b808211156119f65760008160009055506001016119de565b5090565b600081359050611a0981612586565b92915050565b600081359050611a1e8161259d565b92915050565b600081359050611a33816125b4565b92915050565b600060208284031215611a4b57600080fd5b6000611a59848285016119fa565b91505092915050565b600060208284031215611a7457600080fd5b6000611a8284828501611a0f565b91505092915050565b600060208284031215611a9d57600080fd5b6000611aab84828501611a24565b91505092915050565b600080600060608486031215611ac957600080fd5b6000611ad786828701611a24565b9350506020611ae8868287016119fa565b9250506040611af986828701611a24565b9150509250925092565b6000611b0f8383611b33565b60208301905092915050565b6000611b278383611c2b565b60208301905092915050565b611b3c816123ad565b82525050565b611b4b816123ad565b82525050565b6000611b5c8261222a565b611b668185612265565b9350611b718361220a565b8060005b83811015611ba2578151611b898882611b03565b9750611b948361224b565b925050600181019050611b75565b5085935050505092915050565b6000611bba82612235565b611bc48185612276565b9350611bcf8361221a565b8060005b83811015611c00578151611be78882611b1b565b9750611bf283612258565b925050600181019050611bd3565b5085935050505092915050565b611c16816123bf565b82525050565b611c25816123bf565b82525050565b611c34816123cb565b82525050565b611c43816123cb565b82525050565b6000611c5482612240565b611c5e8185612287565b9350611c6e8185602086016123ff565b611c7781612575565b840191505092915050565b6000611c8f602183612287565b91507f70726576696f7573206c6f747465727920686173206e6f742066696e6973686560008301527f64000000000000000000000000000000000000000000000000000000000000006020830152604082019050919050565b6000611cf5602683612287565b91507f4e6f7420656e6f7567682074696d6520656c61707365642066726f6d206c617360008301527f74206472617700000000000000000000000000000000000000000000000000006020830152604082019050919050565b6000611d5b600d83612287565b91507f57726f6e6720616d6f756e742e000000000000000000000000000000000000006000830152602082019050919050565b6000611d9b601d83612287565b91507f796f752068617665206e6f2077696e6e696e677320746f20636c61696d0000006000830152602082019050919050565b6000611ddb603083612287565b91507f63757272656e74206c6f7474657279206973206f7665722e20706c656173652060008301527f73746172742061206e6577206f6e652e000000000000000000000000000000006020830152604082019050919050565b6000611e41603f83612287565b91507f612077696e6e65722068617320616c7265616479206265656e2073656c65637460008301527f65642e20706c656173652073746172742061206e6577206c6f74746572792e006020830152604082019050919050565b6000611ea7601f83612287565b91507f5265656e7472616e637947756172643a207265656e7472616e742063616c6c006000830152602082019050919050565b60a082016000820151611ef06000850182611f42565b506020820151611f036020850182611f42565b506040820151611f166040850182611f42565b506060820151611f296060850182611c2b565b506080820151611f3c6080850182611c0d565b50505050565b611f4b816123f5565b82525050565b611f5a816123f5565b82525050565b611f71611f6c826123f5565b6124ad565b82525050565b6000611f838286611f60565b602082019150611f938285611f60565b602082019150611fa38284611f60565b602082019150819050949350505050565b6000602082019050611fc96000830184611b42565b92915050565b6000606082019050611fe46000830186611b42565b611ff16020830185611c3a565b611ffe6040830184611f51565b949350505050565b600060408201905061201b6000830185611b42565b6120286020830184611f51565b9392505050565b600060208201905081810360008301526120498184611b51565b905092915050565b6000602082019050818103600083015261206b8184611baf565b905092915050565b60006020820190506120886000830184611c1c565b92915050565b60006040820190506120a36000830185611c1c565b6120b06020830184611c3a565b9392505050565b60006020820190506120cc6000830184611c3a565b92915050565b600060208201905081810360008301526120ec8184611c49565b905092915050565b6000602082019050818103600083015261210d81611c82565b9050919050565b6000602082019050818103600083015261212d81611ce8565b9050919050565b6000602082019050818103600083015261214d81611d4e565b9050919050565b6000602082019050818103600083015261216d81611d8e565b9050919050565b6000602082019050818103600083015261218d81611dce565b9050919050565b600060208201905081810360008301526121ad81611e34565b9050919050565b600060208201905081810360008301526121cd81611e9a565b9050919050565b600060a0820190506121e96000830184611eda565b92915050565b60006020820190506122046000830184611f51565b92915050565b6000819050602082019050919050565b6000819050602082019050919050565b600081519050919050565b600081519050919050565b600081519050919050565b6000602082019050919050565b6000602082019050919050565b600082825260208201905092915050565b600082825260208201905092915050565b600082825260208201905092915050565b60006122a3826123f5565b91506122ae836123f5565b9250827fffffffffffffffffffffffffffffffffffffffffffffffffffffffffffffffff038211156122e3576122e26124e8565b5b828201905092915050565b60006122f9826123f5565b9150612304836123f5565b92508261231457612313612517565b5b828204905092915050565b600061232a826123f5565b9150612335836123f5565b9250817fffffffffffffffffffffffffffffffffffffffffffffffffffffffffffffffff048311821515161561236e5761236d6124e8565b5b828202905092915050565b6000612384826123f5565b915061238f836123f5565b9250828210156123a2576123a16124e8565b5b828203905092915050565b60006123b8826123d5565b9050919050565b60008115159050919050565b6000819050919050565b600073ffffffffffffffffffffffffffffffffffffffff82169050919050565b6000819050919050565b60005b8381101561241d578082015181840152602081019050612402565b8381111561242c576000848401525b50505050565b6000600282049050600182168061244a57607f821691505b6020821081141561245e5761245d612546565b5b50919050565b600061246f826123f5565b91507fffffffffffffffffffffffffffffffffffffffffffffffffffffffffffffffff8214156124a2576124a16124e8565b5b600182019050919050565b6000819050919050565b60006124c2826123f5565b91506124cd836123f5565b9250826124dd576124dc612517565b5b828206905092915050565b7f4e487b7100000000000000000000000000000000000000000000000000000000600052601160045260246000fd5b7f4e487b7100000000000000000000000000000000000000000000000000000000600052601260045260246000fd5b7f4e487b7100000000000000000000000000000000000000000000000000000000600052602260045260246000fd5b6000601f19601f8301169050919050565b61258f816123ad565b811461259a57600080fd5b50565b6125a6816123cb565b81146125b157600080fd5b50565b6125bd816123f5565b81146125c857600080fd5b5056fea26469706673582212202003be94a0acce196006f260db9d7282bca15a0e1cdb8e13aab40a68c773299564736f6c63430008000033",
  "linkReferences": {},
  "deployedLinkReferences": {}
}