{
  "_format": "hh-sol-artifact-1",
  "contractName": "LottoHelper",
  "sourceName": "contracts/TestHelpers/LottoHelpers.sol",
  "abi": [
    {
      "inputs": [],
      "stateMutability": "nonpayable",
      "type": "constructor"
    },
    {
      "anonymous": false,
      "inputs": [
        {
          "indexed": false,
          "internalType": "bool",
          "name": "winnerSelected",
          "type": "bool"
        },
        {
          "indexed": false,
          "internalType": "bytes32",
          "name": "winningTicket",
          "type": "bytes32"
        }
      ],
      "name": "newDraw",
      "type": "event"
    },
    {
      "anonymous": false,
      "inputs": [
        {
          "indexed": false,
          "internalType": "address",
          "name": "entrant",
          "type": "address"
        },
        {
          "indexed": false,
          "internalType": "bytes32",
          "name": "ticketID",
          "type": "bytes32"
        },
        {
          "indexed": false,
          "internalType": "uint256",
          "name": "totalPot",
          "type": "uint256"
        }
      ],
      "name": "newEntry",
      "type": "event"
    },
    {
      "anonymous": false,
      "inputs": [
        {
          "indexed": false,
          "internalType": "address",
          "name": "user",
          "type": "address"
        },
        {
          "indexed": false,
          "internalType": "uint256",
          "name": "amount",
          "type": "uint256"
        }
      ],
      "name": "newPayment",
      "type": "event"
    },
    {
      "anonymous": false,
      "inputs": [
        {
          "indexed": false,
          "internalType": "uint256",
          "name": "lottoNumber",
          "type": "uint256"
        }
      ],
      "name": "newRound",
      "type": "event"
    },
    {
      "inputs": [],
      "name": "checkRandomness",
      "outputs": [
        {
          "internalType": "uint256[5]",
          "name": "",
          "type": "uint256[5]"
        }
      ],
      "stateMutability": "view",
      "type": "function"
    },
    {
      "inputs": [
        {
          "internalType": "uint256",
          "name": "index",
          "type": "uint256"
        }
      ],
      "name": "checkWinner",
      "outputs": [
        {
          "internalType": "bool",
          "name": "",
          "type": "bool"
        }
      ],
      "stateMutability": "view",
      "type": "function"
    },
    {
      "inputs": [],
      "name": "currentDraw",
      "outputs": [
        {
          "internalType": "uint256",
          "name": "",
          "type": "uint256"
        }
      ],
      "stateMutability": "view",
      "type": "function"
    },
    {
      "inputs": [],
      "name": "currentLotto",
      "outputs": [
        {
          "internalType": "uint256",
          "name": "",
          "type": "uint256"
        }
      ],
      "stateMutability": "view",
      "type": "function"
    },
    {
      "inputs": [
        {
          "internalType": "address",
          "name": "",
          "type": "address"
        }
      ],
      "name": "debtToUser",
      "outputs": [
        {
          "internalType": "uint256",
          "name": "",
          "type": "uint256"
        }
      ],
      "stateMutability": "view",
      "type": "function"
    },
    {
      "inputs": [],
      "name": "didSomeoneWin",
      "outputs": [
        {
          "internalType": "bool",
          "name": "",
          "type": "bool"
        }
      ],
      "stateMutability": "view",
      "type": "function"
    },
    {
      "inputs": [],
      "name": "draw",
      "outputs": [
        {
          "internalType": "bytes32",
          "name": "",
          "type": "bytes32"
        }
      ],
      "stateMutability": "nonpayable",
      "type": "function"
    },
    {
      "inputs": [],
      "name": "drawFrequency",
      "outputs": [
        {
          "internalType": "uint256",
          "name": "",
          "type": "uint256"
        }
      ],
      "stateMutability": "view",
      "type": "function"
    },
    {
      "inputs": [],
      "name": "enter",
      "outputs": [
        {
          "internalType": "bytes32",
          "name": "",
          "type": "bytes32"
        }
      ],
      "stateMutability": "payable",
      "type": "function"
    },
    {
      "inputs": [],
      "name": "enterAndLog",
      "outputs": [
        {
          "internalType": "bool",
          "name": "",
          "type": "bool"
        }
      ],
      "stateMutability": "payable",
      "type": "function"
    },
    {
      "inputs": [],
      "name": "ethDecimals",
      "outputs": [
        {
          "internalType": "uint256",
          "name": "",
          "type": "uint256"
        }
      ],
      "stateMutability": "view",
      "type": "function"
    },
    {
      "inputs": [],
      "name": "fee",
      "outputs": [
        {
          "internalType": "uint256",
          "name": "",
          "type": "uint256"
        }
      ],
      "stateMutability": "view",
      "type": "function"
    },
    {
      "inputs": [],
      "name": "feeRecipient",
      "outputs": [
        {
          "internalType": "address",
          "name": "",
          "type": "address"
        }
      ],
      "stateMutability": "view",
      "type": "function"
    },
    {
      "inputs": [],
      "name": "getPaid",
      "outputs": [
        {
          "internalType": "bool",
          "name": "",
          "type": "bool"
        }
      ],
      "stateMutability": "nonpayable",
      "type": "function"
    },
    {
      "inputs": [
        {
          "internalType": "uint256",
          "name": "",
          "type": "uint256"
        }
      ],
      "name": "logArray",
      "outputs": [
        {
          "internalType": "bytes32",
          "name": "",
          "type": "bytes32"
        }
      ],
      "stateMutability": "view",
      "type": "function"
    },
    {
      "inputs": [],
      "name": "modulus",
      "outputs": [
        {
          "internalType": "uint256",
          "name": "",
          "type": "uint256"
        }
      ],
      "stateMutability": "view",
      "type": "function"
    },
    {
      "inputs": [],
      "name": "name",
      "outputs": [
        {
          "internalType": "string",
          "name": "",
          "type": "string"
        }
      ],
      "stateMutability": "view",
      "type": "function"
    },
    {
      "inputs": [],
      "name": "readyToDraw",
      "outputs": [
        {
          "internalType": "bool",
          "name": "",
          "type": "bool"
        }
      ],
      "stateMutability": "view",
      "type": "function"
    },
    {
      "inputs": [],
      "name": "ticketCounter",
      "outputs": [
        {
          "internalType": "uint256",
          "name": "",
          "type": "uint256"
        }
      ],
      "stateMutability": "view",
      "type": "function"
    },
    {
      "inputs": [],
      "name": "ticketPrice",
      "outputs": [
        {
          "internalType": "uint256",
          "name": "",
          "type": "uint256"
        }
      ],
      "stateMutability": "view",
      "type": "function"
    },
    {
      "inputs": [
        {
          "internalType": "bytes32",
          "name": "",
          "type": "bytes32"
        }
      ],
      "name": "tickets",
      "outputs": [
        {
          "internalType": "uint256",
          "name": "ticketNumber",
          "type": "uint256"
        }
      ],
      "stateMutability": "view",
      "type": "function"
    },
    {
      "inputs": [
        {
          "internalType": "uint256",
          "name": "",
          "type": "uint256"
        },
        {
          "internalType": "address",
          "name": "",
          "type": "address"
        },
        {
          "internalType": "uint256",
          "name": "",
          "type": "uint256"
        }
      ],
      "name": "userTickets",
      "outputs": [
        {
          "internalType": "bytes32",
          "name": "",
          "type": "bytes32"
        }
      ],
      "stateMutability": "view",
      "type": "function"
    },
    {
      "inputs": [],
      "name": "viewCurrentDraw",
      "outputs": [
        {
          "internalType": "uint256",
          "name": "",
          "type": "uint256"
        }
      ],
      "stateMutability": "view",
      "type": "function"
    },
    {
      "inputs": [],
      "name": "viewFinished",
      "outputs": [
        {
          "internalType": "bool",
          "name": "",
          "type": "bool"
        }
      ],
      "stateMutability": "view",
      "type": "function"
    },
    {
      "inputs": [],
      "name": "viewLast",
      "outputs": [
        {
          "internalType": "uint256",
          "name": "",
          "type": "uint256"
        }
      ],
      "stateMutability": "view",
      "type": "function"
    },
    {
      "inputs": [
        {
          "internalType": "uint256",
          "name": "index",
          "type": "uint256"
        }
      ],
      "name": "viewLogArray",
      "outputs": [
        {
          "internalType": "bytes32",
          "name": "",
          "type": "bytes32"
        }
      ],
      "stateMutability": "view",
      "type": "function"
    },
    {
      "inputs": [
        {
          "internalType": "uint256",
          "name": "lottoNumber",
          "type": "uint256"
        }
      ],
      "name": "viewLotto",
      "outputs": [
        {
          "components": [
            {
              "internalType": "uint256",
              "name": "startTime",
              "type": "uint256"
            },
            {
              "internalType": "uint256",
              "name": "lastDraw",
              "type": "uint256"
            },
            {
              "internalType": "uint256",
              "name": "totalPot",
              "type": "uint256"
            },
            {
              "internalType": "bytes32",
              "name": "winningTicket",
              "type": "bytes32"
            },
            {
              "internalType": "bool",
              "name": "finished",
              "type": "bool"
            }
          ],
          "internalType": "struct Lottery",
          "name": "",
          "type": "tuple"
        }
      ],
      "stateMutability": "view",
      "type": "function"
    },
    {
      "inputs": [],
      "name": "viewLottoNumber",
      "outputs": [
        {
          "internalType": "uint256",
          "name": "",
          "type": "uint256"
        }
      ],
      "stateMutability": "view",
      "type": "function"
    },
    {
      "inputs": [],
      "name": "viewOdds",
      "outputs": [
        {
          "internalType": "uint256",
          "name": "",
          "type": "uint256"
        }
      ],
      "stateMutability": "view",
      "type": "function"
    },
    {
      "inputs": [],
      "name": "viewPot",
      "outputs": [
        {
          "internalType": "uint256",
          "name": "",
          "type": "uint256"
        }
      ],
      "stateMutability": "view",
      "type": "function"
    },
    {
      "inputs": [],
      "name": "viewStart",
      "outputs": [
        {
          "internalType": "uint256",
          "name": "",
          "type": "uint256"
        }
      ],
      "stateMutability": "view",
      "type": "function"
    },
    {
      "inputs": [],
      "name": "viewTicketCount",
      "outputs": [
        {
          "internalType": "uint256",
          "name": "",
          "type": "uint256"
        }
      ],
      "stateMutability": "view",
      "type": "function"
    },
    {
      "inputs": [
        {
          "internalType": "bytes32",
          "name": "_ticketID",
          "type": "bytes32"
        }
      ],
      "name": "viewTicketHolders",
      "outputs": [
        {
          "internalType": "address[]",
          "name": "",
          "type": "address[]"
        }
      ],
      "stateMutability": "view",
      "type": "function"
    },
    {
      "inputs": [
        {
          "internalType": "bytes32",
          "name": "_ticketID",
          "type": "bytes32"
        }
      ],
      "name": "viewTicketNumber",
      "outputs": [
        {
          "internalType": "uint256",
          "name": "",
          "type": "uint256"
        }
      ],
      "stateMutability": "view",
      "type": "function"
    },
    {
      "inputs": [
        {
          "internalType": "uint256",
          "name": "lottoNumber",
          "type": "uint256"
        }
      ],
      "name": "viewTicketsByLotto",
      "outputs": [
        {
          "internalType": "bytes32[]",
          "name": "",
          "type": "bytes32[]"
        }
      ],
      "stateMutability": "view",
      "type": "function"
    },
    {
      "inputs": [],
      "name": "viewWinner",
      "outputs": [
        {
          "internalType": "bytes32",
          "name": "",
          "type": "bytes32"
        }
      ],
      "stateMutability": "view",
      "type": "function"
    },
    {
      "inputs": [
        {
          "internalType": "address",
          "name": "_user",
          "type": "address"
        }
      ],
      "name": "viewWinnings",
      "outputs": [
        {
          "internalType": "uint256",
          "name": "",
          "type": "uint256"
        }
      ],
      "stateMutability": "view",
      "type": "function"
    },
    {
      "inputs": [
        {
          "internalType": "address",
          "name": "addr",
          "type": "address"
        }
      ],
      "name": "viewWinningsByAddress",
      "outputs": [
        {
          "internalType": "uint256",
          "name": "",
          "type": "uint256"
        }
      ],
      "stateMutability": "view",
      "type": "function"
    }
  ],
  "bytecode": "0x60e06040526001600b553480156200001657600080fd5b506000670de0b6b3a76400006040518060400160405280600e81526020017f46616e746f6d204c6f747465727900000000000000000000000000000000000081525073f39fd6e51aad88f6f4ce6ab8827279cfffb92266600a600160008190555084608081815250508360a0818152505082600190805190602001906200009f9291906200028b565b5081600260006101000a81548173ffffffffffffffffffffffffffffffffffffffff021916908373ffffffffffffffffffffffffffffffffffffffff1602179055508060c08181525050620000f96200010560201b60201c565b505050505050620004f0565b60008060035411156200017b5760066000600354815260200190815260200160002060040160009054906101000a900460ff166200017a576040517f08c379a00000000000000000000000000000000000000000000000000000000081526004016200017190620003b4565b60405180910390fd5b5b60036000815480929190620001909062000444565b91905055506040518060a00160405280620001b06200028360201b60201c565b8152602001620001c56200028360201b60201c565b8152602001600081526020016000801b8152602001600015158152506006600060035481526020019081526020016000206000820151816000015560208201518160010155604082015181600201556060820151816003015560808201518160040160006101000a81548160ff0219169083151502179055509050507fa35bd591310404f547e67d0f261a54d0a2a7606bf1695c5e9134f4259805eb7c600354604051620002749190620003d6565b60405180910390a16001905090565b600042905090565b82805462000299906200040e565b90600052602060002090601f016020900481019282620002bd576000855562000309565b82601f10620002d857805160ff191683800117855562000309565b8280016001018555821562000309579182015b8281111562000308578251825591602001919060010190620002eb565b5b5090506200031891906200031c565b5090565b5b80821115620003375760008160009055506001016200031d565b5090565b60006200034a602183620003f3565b91507f70726576696f7573206c6f747465727920686173206e6f742066696e6973686560008301527f64000000000000000000000000000000000000000000000000000000000000006020830152604082019050919050565b620003ae8162000404565b82525050565b60006020820190508181036000830152620003cf816200033b565b9050919050565b6000602082019050620003ed6000830184620003a3565b92915050565b600082825260208201905092915050565b6000819050919050565b600060028204905060018216806200042757607f821691505b602082108114156200043e576200043d620004c1565b5b50919050565b6000620004518262000404565b91507fffffffffffffffffffffffffffffffffffffffffffffffffffffffffffffffff82141562000487576200048662000492565b5b600182019050919050565b7f4e487b7100000000000000000000000000000000000000000000000000000000600052601160045260246000fd5b7f4e487b7100000000000000000000000000000000000000000000000000000000600052602260045260246000fd5b60805160a05160c051612c6a6200053c60003960008181610c0c015281816116700152611b37015260008181610be601526113fc015260008181610e460152610f020152612c6a6000f3fe6080604052600436106102255760003560e01c8063a5a4054411610123578063dccd1ae1116100ab578063e97dcb621161006f578063e97dcb621461087b578063ebec936214610899578063f04bb87f146108d6578063f5268d37146108f4578063ff4b04001461091f57610225565b8063dccd1ae11461076e578063dd325f25146107ab578063ddca3f43146107d6578063df0dd0d514610801578063e56d71bc1461083e57610225565b8063b85d4be6116100f2578063b85d4be614610685578063be1f2cfd146106b0578063c932a7f7146106db578063cd15cf6114610718578063cf41d6f81461074357610225565b8063a5a40544146105b5578063af38c810146105e0578063af9509051461060b578063b858bb651461064857610225565b806355e9fa4f116101b15780638c4d59d0116101755780638c4d59d0146104cc57806397ba287c146104f75780639ad572f514610522578063a1dd2ac11461054d578063a200f8491461057857610225565b806355e9fa4f146103bf5780636da7b0d1146103fc578063841fd8fd1461042757806386ae228f14610452578063893ff4ee1461048f57610225565b806318854939116101f857806318854939146102d657806330bd8d6914610313578063392e24031461033e57806345ea375f14610369578063469048401461039457610225565b806306fdde031461022a5780630eecae21146102555780631209b1f614610280578063154a7980146102ab575b600080fd5b34801561023657600080fd5b5061023f61094a565b60405161024c919061270e565b60405180910390f35b34801561026157600080fd5b5061026a6109d8565b60405161027791906126f3565b60405180910390f35b34801561028c57600080fd5b50610295610be4565b6040516102a2919061282b565b60405180910390f35b3480156102b757600080fd5b506102c0610c08565b6040516102cd919061282b565b60405180910390f35b3480156102e257600080fd5b506102fd60048036038101906102f8919061203d565b610c3c565b60405161030a91906126af565b60405180910390f35b34801561031f57600080fd5b50610328610c72565b604051610335919061282b565b60405180910390f35b34801561034a57600080fd5b50610353610c7e565b60405161036091906126f3565b60405180910390f35b34801561037557600080fd5b5061037e610caa565b60405161038b919061282b565b60405180910390f35b3480156103a057600080fd5b506103a9610cca565b6040516103b691906125d5565b60405180910390f35b3480156103cb57600080fd5b506103e660048036038101906103e1919061203d565b610cf0565b6040516103f39190612672565b60405180910390f35b34801561040857600080fd5b50610411610d9f565b60405161041e919061282b565b60405180910390f35b34801561043357600080fd5b5061043c610da9565b6040516104499190612694565b60405180910390f35b34801561045e57600080fd5b5061047960048036038101906104749190612014565b610df9565b604051610486919061282b565b60405180910390f35b34801561049b57600080fd5b506104b660048036038101906104b1919061203d565b610e19565b6040516104c391906126f3565b60405180910390f35b3480156104d857600080fd5b506104e1610e36565b6040516104ee919061282b565b60405180910390f35b34801561050357600080fd5b5061050c610e3c565b604051610519919061282b565b60405180910390f35b34801561052e57600080fd5b50610537610e42565b60405161054491906126af565b60405180910390f35b34801561055957600080fd5b50610562610e97565b60405161056f919061282b565b60405180910390f35b34801561058457600080fd5b5061059f600480360381019061059a9190611feb565b610eb7565b6040516105ac919061282b565b60405180910390f35b3480156105c157600080fd5b506105ca610f00565b6040516105d7919061282b565b60405180910390f35b3480156105ec57600080fd5b506105f5610f24565b60405161060291906126af565b60405180910390f35b34801561061757600080fd5b50610632600480360381019061062d919061203d565b610f56565b60405161063f91906126f3565b60405180910390f35b34801561065457600080fd5b5061066f600480360381019061066a9190612066565b610f6e565b60405161067c91906126f3565b60405180910390f35b34801561069157600080fd5b5061069a610fac565b6040516106a7919061282b565b60405180910390f35b3480156106bc57600080fd5b506106c5610fb6565b6040516106d291906126af565b60405180910390f35b3480156106e757600080fd5b5061070260048036038101906106fd9190611feb565b610fef565b60405161070f919061282b565b60405180910390f35b34801561072457600080fd5b5061072d611038565b60405161073a919061282b565b60405180910390f35b34801561074f57600080fd5b5061075861103e565b60405161076591906126af565b60405180910390f35b34801561077a57600080fd5b506107956004803603810190610790919061203d565b61124d565b6040516107a29190612810565b60405180910390f35b3480156107b757600080fd5b506107c06112bd565b6040516107cd919061282b565b60405180910390f35b3480156107e257600080fd5b506107eb6112dd565b6040516107f8919061282b565b60405180910390f35b34801561080d57600080fd5b5061082860048036038101906108239190612014565b6112e8565b604051610835919061282b565b60405180910390f35b34801561084a57600080fd5b5061086560048036038101906108609190612014565b611306565b6040516108729190612650565b60405180910390f35b6108836113aa565b60405161089091906126f3565b60405180910390f35b3480156108a557600080fd5b506108c060048036038101906108bb9190611feb565b61160a565b6040516108cd919061282b565b60405180910390f35b6108de611622565b6040516108eb91906126af565b60405180910390f35b34801561090057600080fd5b50610909611664565b604051610916919061282b565b60405180910390f35b34801561092b57600080fd5b5061093461166e565b604051610941919061282b565b60405180910390f35b6001805461095790612a9b565b80601f016020809104026020016040519081016040528092919081815260200182805461098390612a9b565b80156109d05780601f106109a5576101008083540402835291602001916109d0565b820191906000526020600020905b8154815290600101906020018083116109b357829003601f168201915b505050505081565b600060026000541415610a20576040517f08c379a0000000000000000000000000000000000000000000000000000000008152600401610a17906127f0565b60405180910390fd5b6002600081905550610a30610e42565b610a6f576040517f08c379a0000000000000000000000000000000000000000000000000000000008152600401610a6690612750565b60405180910390fd5b60066000600354815260200190815260200160002060040160009054906101000a900460ff1615610ad5576040517f08c379a0000000000000000000000000000000000000000000000000000000008152600401610acc906127b0565b60405180910390fd5b610add611692565b600660006003548152602001908152602001600020600101819055506000610b0361169a565b90506000801b811415610b6b5760046000815480929190610b2390612acd565b91905055507fe0dbc9529120eb99dfdd738608a453baef8223964340a20ebbc2d79558ea1f9a600082604051610b5a9291906126ca565b60405180910390a180915050610bd9565b8060066000600354815260200190815260200160002060030181905550610b906116ec565b50610b996118b6565b507fe0dbc9529120eb99dfdd738608a453baef8223964340a20ebbc2d79558ea1f9a600182604051610bcc9291906126ca565b60405180910390a1809150505b600160008190555090565b7f000000000000000000000000000000000000000000000000000000000000000081565b60007f0000000000000000000000000000000000000000000000000000000000000000600a610c379190612988565b905090565b6000600660006001815260200190815260200160002060030154600a600084815260200190815260200160002054149050919050565b670de0b6b3a764000081565b6000600660006001600354610c9391906129e2565b815260200190815260200160002060030154905090565b600060066000600354815260200190815260200160002060020154905090565b600260009054906101000a900473ffffffffffffffffffffffffffffffffffffffff1681565b6060600860008381526020019081526020016000206000610d0f6118d7565b73ffffffffffffffffffffffffffffffffffffffff1673ffffffffffffffffffffffffffffffffffffffff168152602001908152602001600020805480602002602001604051908101604052809291908181526020018280548015610d9357602002820191906000526020600020905b815481526020019060010190808311610d7f575b50505050509050919050565b6000600554905090565b610db1611eaf565b6040518060a00160405280610dc46118df565b81526020016005610dd36118df565b610ddd9190612b20565b8152602001438152602001428152602001600554815250905090565b600060076000838152602001908152602001600020600101549050919050565b6000600a6000838152602001908152602001600020549050919050565b60055481565b60045481565b60007f000000000000000000000000000000000000000000000000000000000000000060066000600354815260200190815260200160002060010154610e86611692565b610e9091906129e2565b1015905090565b600060066000600354815260200190815260200160002060010154905090565b6000600960008373ffffffffffffffffffffffffffffffffffffffff1673ffffffffffffffffffffffffffffffffffffffff168152602001908152602001600020549050919050565b7f000000000000000000000000000000000000000000000000000000000000000081565b60008060001b600660006001600354610f3d91906129e2565b8152602001908152602001600020600301541415905090565b600a6020528060005260406000206000915090505481565b60086020528260005260406000206020528160005260406000208181548110610f9657600080fd5b9060005260206000200160009250925050505481565b6000600354905090565b6000600660006001600354610fcb91906129e2565b815260200190815260200160002060040160009054906101000a900460ff16905090565b6000600960008373ffffffffffffffffffffffffffffffffffffffff1673ffffffffffffffffffffffffffffffffffffffff168152602001908152602001600020549050919050565b60035481565b600060026000541415611086576040517f08c379a000000000000000000000000000000000000000000000000000000000815260040161107d906127f0565b60405180910390fd5b600260008190555060006009600061109c6118d7565b73ffffffffffffffffffffffffffffffffffffffff1673ffffffffffffffffffffffffffffffffffffffff168152602001908152602001600020541415611118576040517f08c379a000000000000000000000000000000000000000000000000000000000815260040161110f90612790565b60405180910390fd5b6000600960006111266118d7565b73ffffffffffffffffffffffffffffffffffffffff1673ffffffffffffffffffffffffffffffffffffffff1681526020019081526020016000205490506000600960006111716118d7565b73ffffffffffffffffffffffffffffffffffffffff1673ffffffffffffffffffffffffffffffffffffffff168152602001908152602001600020819055506111b76118d7565b73ffffffffffffffffffffffffffffffffffffffff166108fc829081150290604051600060405180830381858888f193505050501580156111fc573d6000803e3d6000fd5b507f481007a75a4407f69a4ebcf25782e3537f6d76c13b46f71db08ae80c2b699e076112266118d7565b82604051611235929190612627565b60405180910390a16001915050600160008190555090565b611255611ed1565b600660008381526020019081526020016000206040518060a0016040529081600082015481526020016001820154815260200160028201548152602001600382015481526020016004820160009054906101000a900460ff1615151515815250509050919050565b600060066000600354815260200190815260200160002060000154905090565b666a94d74f43000081565b60076020528060005260406000206000915090508060010154905081565b60606007600083815260200190815260200160002060000180548060200260200160405190810160405280929190818152602001828054801561139e57602002820191906000526020600020905b8160009054906101000a900473ffffffffffffffffffffffffffffffffffffffff1673ffffffffffffffffffffffffffffffffffffffff1681526020019060010190808311611354575b50505050509050919050565b6000600260005414156113f2576040517f08c379a00000000000000000000000000000000000000000000000000000000081526004016113e9906127f0565b60405180910390fd5b60026000819055507f0000000000000000000000000000000000000000000000000000000000000000341461145c576040517f08c379a000000000000000000000000000000000000000000000000000000000815260040161145390612770565b60405180910390fd5b6000151560066000600354815260200190815260200160002060040160009054906101000a900460ff161515146114c8576040517f08c379a00000000000000000000000000000000000000000000000000000000081526004016114bf906127d0565b60405180910390fd5b6000349050600560008154809291906114e090612acd565b919050555080600660006003548152602001908152602001600020600201600082825461150d9190612901565b92505081905550600061151e611916565b9050600860006003548152602001908152602001600020600061153f6118d7565b73ffffffffffffffffffffffffffffffffffffffff1673ffffffffffffffffffffffffffffffffffffffff1681526020019081526020016000208190806001815401808255809150506001900390600052602060002001600090919091909150557f1a68cfba6503f189182fd0e12b64a6c8b19d129ee1bb7aba124ab08d8a57e4686115c96118d7565b82600660006003548152602001908152602001600020600201546040516115f2939291906125f0565b60405180910390a18092505050600160008190555090565b60096020528060005260406000206000915090505481565b600061162c6113aa565b600a6000600b54815260200190815260200160002081905550600b600081548092919061165890612acd565b91905055506001905090565b6000600454905090565b7f000000000000000000000000000000000000000000000000000000000000000081565b600042905090565b6000806116a5611b26565b905060006116b282611b6b565b90506000600760008381526020019081526020016000206000018054905011156116e05780925050506116e9565b6000801b925050505b90565b6000600160066000600354815260200190815260200160002060040160006101000a81548160ff02191690831515021790555060006006600060035481526020019081526020016000206003015490506000600760008381526020019081526020016000206000018054806020026020016040519081016040528092919081815260200182805480156117d457602002820191906000526020600020905b8160009054906101000a900473ffffffffffffffffffffffffffffffffffffffff1673ffffffffffffffffffffffffffffffffffffffff168152602001906001019080831161178a575b5050505050905060006117e5611ba8565b905060006117f38285611c3a565b905060005b83518110156118aa57816009600086848151811061183f577f4e487b7100000000000000000000000000000000000000000000000000000000600052603260045260246000fd5b602002602001015173ffffffffffffffffffffffffffffffffffffffff1673ffffffffffffffffffffffffffffffffffffffff16815260200190815260200160002060008282546118909190612901565b9250508190555080806118a290612acd565b9150506117f8565b50600194505050505090565b60008060048190555060006005819055506118cf611d15565b506001905090565b600033905090565b600042436005546040516020016118f893929190612598565b6040516020818303038152906040528051906020012060001c905090565b600080611921611b26565b9050600061192e82611b6b565b90506000600760008381526020019081526020016000206000018054905011156119da57600760008281526020019081526020016000206000016119706118d7565b9080600181540180825580915050600190039060005260206000200160009091909190916101000a81548173ffffffffffffffffffffffffffffffffffffffff021916908373ffffffffffffffffffffffffffffffffffffffff1602179055508092505050611b23565b6000600167ffffffffffffffff811115611a1d577f4e487b7100000000000000000000000000000000000000000000000000000000600052604160045260246000fd5b604051908082528060200260200182016040528015611a4b5781602001602082028036833780820191505090505b509050611a566118d7565b81600081518110611a90577f4e487b7100000000000000000000000000000000000000000000000000000000600052603260045260246000fd5b602002602001019073ffffffffffffffffffffffffffffffffffffffff16908173ffffffffffffffffffffffffffffffffffffffff1681525050604051806040016040528082815260200184815250600760008481526020019081526020016000206000820151816000019080519060200190611b0e929190611f05565b50602082015181600101559050508193505050505b90565b600080611b316118df565b905060007f000000000000000000000000000000000000000000000000000000000000000082611b619190612b20565b9050809250505090565b60008060035460045484604051602001611b8793929190612598565b60405160208183030381529060405280519060200120905080915050919050565b6000806006600060035481526020019081526020016000206002015490506000611bd182611e7b565b905060008183611be191906129e2565b9050600660006003548152602001908152602001600020600201548110611c31577f4e487b7100000000000000000000000000000000000000000000000000000000600052600160045260246000fd5b80935050505090565b6000806007600084815260200190815260200160002060000180549050905060008460066000600354815260200190815260200160002060020154611c7f91906129e2565b90508060096000600260009054906101000a900473ffffffffffffffffffffffffffffffffffffffff1673ffffffffffffffffffffffffffffffffffffffff1673ffffffffffffffffffffffffffffffffffffffff1681526020019081526020016000206000828254611cf29190612901565b9250508190555060008286611d079190612957565b905080935050505092915050565b6000806003541115611d875760066000600354815260200190815260200160002060040160009054906101000a900460ff16611d86576040517f08c379a0000000000000000000000000000000000000000000000000000000008152600401611d7d90612730565b60405180910390fd5b5b60036000815480929190611d9a90612acd565b91905055506040518060a00160405280611db2611692565b8152602001611dbf611692565b8152602001600081526020016000801b8152602001600015158152506006600060035481526020019081526020016000206000820151816000015560208201518160010155604082015181600201556060820151816003015560808201518160040160006101000a81548160ff0219169083151502179055509050507fa35bd591310404f547e67d0f261a54d0a2a7606bf1695c5e9134f4259805eb7c600354604051611e6c919061282b565b60405180910390a16001905090565b600080670de0b6b3a7640000666a94d74f43000084611e9a9190612988565b611ea49190612957565b905080915050919050565b6040518060a00160405280600590602082028036833780820191505090505090565b6040518060a00160405280600081526020016000815260200160008152602001600080191681526020016000151581525090565b828054828255906000526020600020908101928215611f7e579160200282015b82811115611f7d5782518260006101000a81548173ffffffffffffffffffffffffffffffffffffffff021916908373ffffffffffffffffffffffffffffffffffffffff16021790555091602001919060010190611f25565b5b509050611f8b9190611f8f565b5090565b5b80821115611fa8576000816000905550600101611f90565b5090565b600081359050611fbb81612bef565b92915050565b600081359050611fd081612c06565b92915050565b600081359050611fe581612c1d565b92915050565b600060208284031215611ffd57600080fd5b600061200b84828501611fac565b91505092915050565b60006020828403121561202657600080fd5b600061203484828501611fc1565b91505092915050565b60006020828403121561204f57600080fd5b600061205d84828501611fd6565b91505092915050565b60008060006060848603121561207b57600080fd5b600061208986828701611fd6565b935050602061209a86828701611fac565b92505060406120ab86828701611fd6565b9150509250925092565b60006120c183836120fd565b60208301905092915050565b60006120d9838361224c565b60208301905092915050565b60006120f18383612563565b60208301905092915050565b61210681612a16565b82525050565b61211581612a16565b82525050565b600061212682612870565b61213081856128c3565b935061213b83612846565b8060005b8381101561216c57815161215388826120b5565b975061215e8361289c565b92505060018101905061213f565b5085935050505092915050565b60006121848261287b565b61218e81856128d4565b935061219983612856565b8060005b838110156121ca5781516121b188826120cd565b97506121bc836128a9565b92505060018101905061219d565b5085935050505092915050565b6121e081612886565b6121ea81846128e5565b92506121f582612866565b8060005b8381101561222657815161220d87826120e5565b9650612218836128b6565b9250506001810190506121f9565b505050505050565b61223781612a28565b82525050565b61224681612a28565b82525050565b61225581612a34565b82525050565b61226481612a34565b82525050565b600061227582612891565b61227f81856128f0565b935061228f818560208601612a68565b61229881612bde565b840191505092915050565b60006122b06021836128f0565b91507f70726576696f7573206c6f747465727920686173206e6f742066696e6973686560008301527f64000000000000000000000000000000000000000000000000000000000000006020830152604082019050919050565b60006123166026836128f0565b91507f4e6f7420656e6f7567682074696d6520656c61707365642066726f6d206c617360008301527f74206472617700000000000000000000000000000000000000000000000000006020830152604082019050919050565b600061237c600d836128f0565b91507f57726f6e6720616d6f756e742e000000000000000000000000000000000000006000830152602082019050919050565b60006123bc601d836128f0565b91507f796f752068617665206e6f2077696e6e696e677320746f20636c61696d0000006000830152602082019050919050565b60006123fc6030836128f0565b91507f63757272656e74206c6f7474657279206973206f7665722e20706c656173652060008301527f73746172742061206e6577206f6e652e000000000000000000000000000000006020830152604082019050919050565b6000612462603f836128f0565b91507f612077696e6e65722068617320616c7265616479206265656e2073656c65637460008301527f65642e20706c656173652073746172742061206e6577206c6f74746572792e006020830152604082019050919050565b60006124c8601f836128f0565b91507f5265656e7472616e637947756172643a207265656e7472616e742063616c6c006000830152602082019050919050565b60a0820160008201516125116000850182612563565b5060208201516125246020850182612563565b5060408201516125376040850182612563565b50606082015161254a606085018261224c565b50608082015161255d608085018261222e565b50505050565b61256c81612a5e565b82525050565b61257b81612a5e565b82525050565b61259261258d82612a5e565b612b16565b82525050565b60006125a48286612581565b6020820191506125b48285612581565b6020820191506125c48284612581565b602082019150819050949350505050565b60006020820190506125ea600083018461210c565b92915050565b6000606082019050612605600083018661210c565b612612602083018561225b565b61261f6040830184612572565b949350505050565b600060408201905061263c600083018561210c565b6126496020830184612572565b9392505050565b6000602082019050818103600083015261266a818461211b565b905092915050565b6000602082019050818103600083015261268c8184612179565b905092915050565b600060a0820190506126a960008301846121d7565b92915050565b60006020820190506126c4600083018461223d565b92915050565b60006040820190506126df600083018561223d565b6126ec602083018461225b565b9392505050565b6000602082019050612708600083018461225b565b92915050565b60006020820190508181036000830152612728818461226a565b905092915050565b60006020820190508181036000830152612749816122a3565b9050919050565b6000602082019050818103600083015261276981612309565b9050919050565b600060208201905081810360008301526127898161236f565b9050919050565b600060208201905081810360008301526127a9816123af565b9050919050565b600060208201905081810360008301526127c9816123ef565b9050919050565b600060208201905081810360008301526127e981612455565b9050919050565b60006020820190508181036000830152612809816124bb565b9050919050565b600060a08201905061282560008301846124fb565b92915050565b60006020820190506128406000830184612572565b92915050565b6000819050602082019050919050565b6000819050602082019050919050565b6000819050919050565b600081519050919050565b600081519050919050565b600060059050919050565b600081519050919050565b6000602082019050919050565b6000602082019050919050565b6000602082019050919050565b600082825260208201905092915050565b600082825260208201905092915050565b600081905092915050565b600082825260208201905092915050565b600061290c82612a5e565b915061291783612a5e565b9250827fffffffffffffffffffffffffffffffffffffffffffffffffffffffffffffffff0382111561294c5761294b612b51565b5b828201905092915050565b600061296282612a5e565b915061296d83612a5e565b92508261297d5761297c612b80565b5b828204905092915050565b600061299382612a5e565b915061299e83612a5e565b9250817fffffffffffffffffffffffffffffffffffffffffffffffffffffffffffffffff04831182151516156129d7576129d6612b51565b5b828202905092915050565b60006129ed82612a5e565b91506129f883612a5e565b925082821015612a0b57612a0a612b51565b5b828203905092915050565b6000612a2182612a3e565b9050919050565b60008115159050919050565b6000819050919050565b600073ffffffffffffffffffffffffffffffffffffffff82169050919050565b6000819050919050565b60005b83811015612a86578082015181840152602081019050612a6b565b83811115612a95576000848401525b50505050565b60006002820490506001821680612ab357607f821691505b60208210811415612ac757612ac6612baf565b5b50919050565b6000612ad882612a5e565b91507fffffffffffffffffffffffffffffffffffffffffffffffffffffffffffffffff821415612b0b57612b0a612b51565b5b600182019050919050565b6000819050919050565b6000612b2b82612a5e565b9150612b3683612a5e565b925082612b4657612b45612b80565b5b828206905092915050565b7f4e487b7100000000000000000000000000000000000000000000000000000000600052601160045260246000fd5b7f4e487b7100000000000000000000000000000000000000000000000000000000600052601260045260246000fd5b7f4e487b7100000000000000000000000000000000000000000000000000000000600052602260045260246000fd5b6000601f19601f8301169050919050565b612bf881612a16565b8114612c0357600080fd5b50565b612c0f81612a34565b8114612c1a57600080fd5b50565b612c2681612a5e565b8114612c3157600080fd5b5056fea2646970667358221220e1f8a1b5007212e167196c0fd37fb99e1c8872bda8f1e4d8ea503ccd55f9514d64736f6c63430008000033",
  "linkReferences": {},
  "deployedLinkReferences": {}
}