{
  "_format": "hh-sol-artifact-1",
  "contractName": "FantomLottery",
  "sourceName": "contracts/FantomLottery.sol",
  "abi": [
    {
      "inputs": [
        {
          "internalType": "string",
          "name": "_name",
          "type": "string"
        },
        {
          "internalType": "uint256",
          "name": "_drawFrequency",
          "type": "uint256"
        },
        {
          "internalType": "uint256",
          "name": "_ticketPrice",
          "type": "uint256"
        },
        {
          "internalType": "uint256",
          "name": "_winChance",
          "type": "uint256"
        },
        {
          "internalType": "uint256",
          "name": "_fee",
          "type": "uint256"
        },
        {
          "internalType": "address",
          "name": "_feeRecipient",
          "type": "address"
        }
      ],
      "stateMutability": "nonpayable",
      "type": "constructor"
    },
    {
      "anonymous": false,
      "inputs": [
        {
          "indexed": false,
          "internalType": "bool",
          "name": "winnerSelected",
          "type": "bool"
        },
        {
          "indexed": false,
          "internalType": "bytes32",
          "name": "winningTicket",
          "type": "bytes32"
        }
      ],
      "name": "newDraw",
      "type": "event"
    },
    {
      "anonymous": false,
      "inputs": [
        {
          "indexed": false,
          "internalType": "address",
          "name": "entrant",
          "type": "address"
        },
        {
          "indexed": false,
          "internalType": "bytes32",
          "name": "ticketID",
          "type": "bytes32"
        },
        {
          "indexed": false,
          "internalType": "uint256",
          "name": "totalPot",
          "type": "uint256"
        }
      ],
      "name": "newEntry",
      "type": "event"
    },
    {
      "anonymous": false,
      "inputs": [
        {
          "indexed": false,
          "internalType": "address",
          "name": "user",
          "type": "address"
        },
        {
          "indexed": false,
          "internalType": "uint256",
          "name": "amount",
          "type": "uint256"
        }
      ],
      "name": "newPayment",
      "type": "event"
    },
    {
      "anonymous": false,
      "inputs": [
        {
          "indexed": false,
          "internalType": "uint256",
          "name": "lottoNumber",
          "type": "uint256"
        }
      ],
      "name": "newRound",
      "type": "event"
    },
    {
      "inputs": [
        {
          "internalType": "address",
          "name": "",
          "type": "address"
        }
      ],
      "name": "ERC20DebtToRecipient",
      "outputs": [
        {
          "internalType": "uint256",
          "name": "",
          "type": "uint256"
        }
      ],
      "stateMutability": "view",
      "type": "function"
    },
    {
      "inputs": [
        {
          "internalType": "address",
          "name": "newSweeper",
          "type": "address"
        }
      ],
      "name": "changeSweeper",
      "outputs": [
        {
          "internalType": "bool",
          "name": "",
          "type": "bool"
        }
      ],
      "stateMutability": "nonpayable",
      "type": "function"
    },
    {
      "inputs": [],
      "name": "currentDraw",
      "outputs": [
        {
          "internalType": "uint256",
          "name": "",
          "type": "uint256"
        }
      ],
      "stateMutability": "view",
      "type": "function"
    },
    {
      "inputs": [],
      "name": "currentLotto",
      "outputs": [
        {
          "internalType": "uint256",
          "name": "",
          "type": "uint256"
        }
      ],
      "stateMutability": "view",
      "type": "function"
    },
    {
      "inputs": [
        {
          "internalType": "address",
          "name": "",
          "type": "address"
        }
      ],
      "name": "debtToUser",
      "outputs": [
        {
          "internalType": "uint256",
          "name": "",
          "type": "uint256"
        }
      ],
      "stateMutability": "view",
      "type": "function"
    },
    {
      "inputs": [],
      "name": "draw",
      "outputs": [
        {
          "internalType": "bool",
          "name": "",
          "type": "bool"
        }
      ],
      "stateMutability": "nonpayable",
      "type": "function"
    },
    {
      "inputs": [],
      "name": "drawFrequency",
      "outputs": [
        {
          "internalType": "uint256",
          "name": "",
          "type": "uint256"
        }
      ],
      "stateMutability": "view",
      "type": "function"
    },
    {
      "inputs": [],
      "name": "enter",
      "outputs": [
        {
          "internalType": "bool",
          "name": "",
          "type": "bool"
        }
      ],
      "stateMutability": "payable",
      "type": "function"
    },
    {
      "inputs": [],
      "name": "ethDecimals",
      "outputs": [
        {
          "internalType": "uint256",
          "name": "",
          "type": "uint256"
        }
      ],
      "stateMutability": "view",
      "type": "function"
    },
    {
      "inputs": [],
      "name": "fantomDebtToRecipient",
      "outputs": [
        {
          "internalType": "uint256",
          "name": "",
          "type": "uint256"
        }
      ],
      "stateMutability": "view",
      "type": "function"
    },
    {
      "inputs": [],
      "name": "fee",
      "outputs": [
        {
          "internalType": "uint256",
          "name": "",
          "type": "uint256"
        }
      ],
      "stateMutability": "view",
      "type": "function"
    },
    {
      "inputs": [],
      "name": "feeRecipient",
      "outputs": [
        {
          "internalType": "address",
          "name": "",
          "type": "address"
        }
      ],
      "stateMutability": "view",
      "type": "function"
    },
    {
      "inputs": [],
      "name": "getPaid",
      "outputs": [
        {
          "internalType": "bool",
          "name": "",
          "type": "bool"
        }
      ],
      "stateMutability": "nonpayable",
      "type": "function"
    },
    {
      "inputs": [],
      "name": "name",
      "outputs": [
        {
          "internalType": "string",
          "name": "",
          "type": "string"
        }
      ],
      "stateMutability": "view",
      "type": "function"
    },
    {
      "inputs": [],
      "name": "readyToDraw",
      "outputs": [
        {
          "internalType": "bool",
          "name": "",
          "type": "bool"
        }
      ],
      "stateMutability": "view",
      "type": "function"
    },
    {
      "inputs": [],
      "name": "self",
      "outputs": [
        {
          "internalType": "address",
          "name": "",
          "type": "address"
        }
      ],
      "stateMutability": "view",
      "type": "function"
    },
    {
      "inputs": [
        {
          "internalType": "address",
          "name": "tokenToSweep",
          "type": "address"
        }
      ],
      "name": "sweep",
      "outputs": [
        {
          "internalType": "bool",
          "name": "",
          "type": "bool"
        }
      ],
      "stateMutability": "nonpayable",
      "type": "function"
    },
    {
      "inputs": [],
      "name": "sweeper",
      "outputs": [
        {
          "internalType": "address",
          "name": "",
          "type": "address"
        }
      ],
      "stateMutability": "view",
      "type": "function"
    },
    {
      "inputs": [],
      "name": "ticketCounter",
      "outputs": [
        {
          "internalType": "uint256",
          "name": "",
          "type": "uint256"
        }
      ],
      "stateMutability": "view",
      "type": "function"
    },
    {
      "inputs": [],
      "name": "ticketPrice",
      "outputs": [
        {
          "internalType": "uint256",
          "name": "",
          "type": "uint256"
        }
      ],
      "stateMutability": "view",
      "type": "function"
    },
    {
      "inputs": [
        {
          "internalType": "bytes32",
          "name": "",
          "type": "bytes32"
        }
      ],
      "name": "tickets",
      "outputs": [
        {
          "internalType": "uint256",
          "name": "ticketNumber",
          "type": "uint256"
        }
      ],
      "stateMutability": "view",
      "type": "function"
    },
    {
      "inputs": [],
      "name": "totalValuePlayed",
      "outputs": [
        {
          "internalType": "uint256",
          "name": "",
          "type": "uint256"
        }
      ],
      "stateMutability": "view",
      "type": "function"
    },
    {
      "inputs": [
        {
          "internalType": "uint256",
          "name": "",
          "type": "uint256"
        },
        {
          "internalType": "address",
          "name": "",
          "type": "address"
        },
        {
          "internalType": "uint256",
          "name": "",
          "type": "uint256"
        }
      ],
      "name": "userTickets",
      "outputs": [
        {
          "internalType": "bytes32",
          "name": "",
          "type": "bytes32"
        }
      ],
      "stateMutability": "view",
      "type": "function"
    },
    {
      "inputs": [],
      "name": "viewCurrentLottery",
      "outputs": [
        {
          "internalType": "uint256",
          "name": "",
          "type": "uint256"
        }
      ],
      "stateMutability": "view",
      "type": "function"
    },
    {
      "inputs": [],
      "name": "viewDrawFrequency",
      "outputs": [
        {
          "internalType": "uint256",
          "name": "",
          "type": "uint256"
        }
      ],
      "stateMutability": "view",
      "type": "function"
    },
    {
      "inputs": [],
      "name": "viewFantomCollected",
      "outputs": [
        {
          "internalType": "uint256",
          "name": "",
          "type": "uint256"
        }
      ],
      "stateMutability": "view",
      "type": "function"
    },
    {
      "inputs": [
        {
          "internalType": "uint256",
          "name": "lottoNumber",
          "type": "uint256"
        }
      ],
      "name": "viewLastDrawTime",
      "outputs": [
        {
          "internalType": "uint256",
          "name": "",
          "type": "uint256"
        }
      ],
      "stateMutability": "view",
      "type": "function"
    },
    {
      "inputs": [],
      "name": "viewName",
      "outputs": [
        {
          "internalType": "string",
          "name": "",
          "type": "string"
        }
      ],
      "stateMutability": "view",
      "type": "function"
    },
    {
      "inputs": [
        {
          "internalType": "uint256",
          "name": "lottoNumber",
          "type": "uint256"
        }
      ],
      "name": "viewStartTime",
      "outputs": [
        {
          "internalType": "uint256",
          "name": "",
          "type": "uint256"
        }
      ],
      "stateMutability": "view",
      "type": "function"
    },
    {
      "inputs": [
        {
          "internalType": "bytes32",
          "name": "ticketID",
          "type": "bytes32"
        }
      ],
      "name": "viewTicketHolders",
      "outputs": [
        {
          "internalType": "address[]",
          "name": "",
          "type": "address[]"
        }
      ],
      "stateMutability": "view",
      "type": "function"
    },
    {
      "inputs": [
        {
          "internalType": "bytes32",
          "name": "ticketID",
          "type": "bytes32"
        }
      ],
      "name": "viewTicketNumber",
      "outputs": [
        {
          "internalType": "uint256",
          "name": "",
          "type": "uint256"
        }
      ],
      "stateMutability": "view",
      "type": "function"
    },
    {
      "inputs": [],
      "name": "viewTicketPrice",
      "outputs": [
        {
          "internalType": "uint256",
          "name": "",
          "type": "uint256"
        }
      ],
      "stateMutability": "view",
      "type": "function"
    },
    {
      "inputs": [
        {
          "internalType": "address",
          "name": "_token",
          "type": "address"
        }
      ],
      "name": "viewTokensCollected",
      "outputs": [
        {
          "internalType": "uint256",
          "name": "",
          "type": "uint256"
        }
      ],
      "stateMutability": "view",
      "type": "function"
    },
    {
      "inputs": [
        {
          "internalType": "uint256",
          "name": "lottoNumber",
          "type": "uint256"
        }
      ],
      "name": "viewTotalPot",
      "outputs": [
        {
          "internalType": "uint256",
          "name": "",
          "type": "uint256"
        }
      ],
      "stateMutability": "view",
      "type": "function"
    },
    {
      "inputs": [
        {
          "internalType": "uint256",
          "name": "lottoNumber",
          "type": "uint256"
        }
      ],
      "name": "viewUserTicketList",
      "outputs": [
        {
          "internalType": "bytes32[]",
          "name": "",
          "type": "bytes32[]"
        }
      ],
      "stateMutability": "view",
      "type": "function"
    },
    {
      "inputs": [],
      "name": "viewWinChance",
      "outputs": [
        {
          "internalType": "uint256",
          "name": "",
          "type": "uint256"
        }
      ],
      "stateMutability": "view",
      "type": "function"
    },
    {
      "inputs": [
        {
          "internalType": "uint256",
          "name": "lottoNumber",
          "type": "uint256"
        }
      ],
      "name": "viewWinningTicket",
      "outputs": [
        {
          "internalType": "bytes32",
          "name": "",
          "type": "bytes32"
        }
      ],
      "stateMutability": "view",
      "type": "function"
    },
    {
      "inputs": [],
      "name": "viewWinnings",
      "outputs": [
        {
          "internalType": "uint256",
          "name": "",
          "type": "uint256"
        }
      ],
      "stateMutability": "view",
      "type": "function"
    },
    {
      "inputs": [],
      "name": "winChance",
      "outputs": [
        {
          "internalType": "uint256",
          "name": "",
          "type": "uint256"
        }
      ],
      "stateMutability": "view",
      "type": "function"
    },
    {
      "inputs": [
        {
          "internalType": "address",
          "name": "ERC20Address",
          "type": "address"
        }
      ],
      "name": "withdrawERC20",
      "outputs": [
        {
          "internalType": "bool",
          "name": "",
          "type": "bool"
        }
      ],
      "stateMutability": "nonpayable",
      "type": "function"
    },
    {
      "inputs": [],
      "name": "withdrawFantom",
      "outputs": [
        {
          "internalType": "bool",
          "name": "",
          "type": "bool"
        }
      ],
      "stateMutability": "nonpayable",
      "type": "function"
    }
  ],
  "bytecode": "0x6080604052600060055560006006556000600755600060085530600f60006101000a81548173ffffffffffffffffffffffffffffffffffffffff021916908373ffffffffffffffffffffffffffffffffffffffff1602179055503480156200006657600080fd5b50604051620036223803806200362283398181016040528101906200008c9190620003e0565b6200009c6200017660201b60201c565b6000806101000a81548173ffffffffffffffffffffffffffffffffffffffff021916908373ffffffffffffffffffffffffffffffffffffffff16021790555060016012819055508560019080519060200190620000fb92919062000290565b5084600281905550836003819055508260048190555081600d8190555080600e60006101000a81548173ffffffffffffffffffffffffffffffffffffffff021916908373ffffffffffffffffffffffffffffffffffffffff160217905550620001696200017e60201b60201c565b50505050505050620006dd565b600033905090565b6000600560008154809291906200019590620005ce565b91905055506040518060a00160405280620001b56200028860201b60201c565b8152602001620001ca6200028860201b60201c565b8152602001600081526020016000801b8152602001600015158152506009600060055481526020019081526020016000206000820151816000015560208201518160010155604082015181600201556060820151816003015560808201518160040160006101000a81548160ff0219169083151502179055509050507fa35bd591310404f547e67d0f261a54d0a2a7606bf1695c5e9134f4259805eb7c600554604051620002799190620004a0565b60405180910390a16001905090565b600042905090565b8280546200029e9062000598565b90600052602060002090601f016020900481019282620002c257600085556200030e565b82601f10620002dd57805160ff19168380011785556200030e565b828001600101855582156200030e579182015b828111156200030d578251825591602001919060010190620002f0565b5b5090506200031d919062000321565b5090565b5b808211156200033c57600081600090555060010162000322565b5090565b6000620003576200035184620004f1565b620004bd565b9050828152602081018484840111156200037057600080fd5b6200037d84828562000562565b509392505050565b6000815190506200039681620006a9565b92915050565b600082601f830112620003ae57600080fd5b8151620003c084826020860162000340565b91505092915050565b600081519050620003da81620006c3565b92915050565b60008060008060008060c08789031215620003fa57600080fd5b600087015167ffffffffffffffff8111156200041557600080fd5b6200042389828a016200039c565b96505060206200043689828a01620003c9565b95505060406200044989828a01620003c9565b94505060606200045c89828a01620003c9565b93505060806200046f89828a01620003c9565b92505060a06200048289828a0162000385565b9150509295509295509295565b6200049a8162000558565b82525050565b6000602082019050620004b760008301846200048f565b92915050565b6000604051905081810181811067ffffffffffffffff82111715620004e757620004e66200067a565b5b8060405250919050565b600067ffffffffffffffff8211156200050f576200050e6200067a565b5b601f19601f8301169050602081019050919050565b6000620005318262000538565b9050919050565b600073ffffffffffffffffffffffffffffffffffffffff82169050919050565b6000819050919050565b60005b838110156200058257808201518184015260208101905062000565565b8381111562000592576000848401525b50505050565b60006002820490506001821680620005b157607f821691505b60208210811415620005c857620005c76200064b565b5b50919050565b6000620005db8262000558565b91507fffffffffffffffffffffffffffffffffffffffffffffffffffffffffffffffff8214156200061157620006106200061c565b5b600182019050919050565b7f4e487b7100000000000000000000000000000000000000000000000000000000600052601160045260246000fd5b7f4e487b7100000000000000000000000000000000000000000000000000000000600052602260045260246000fd5b7f4e487b7100000000000000000000000000000000000000000000000000000000600052604160045260246000fd5b620006b48162000524565b8114620006c057600080fd5b50565b620006ce8162000558565b8114620006da57600080fd5b50565b612f3580620006ed6000396000f3fe6080604052600436106102465760003560e01c80638c4d59d011610139578063c6289f25116100b6578063e04cac471161007a578063e04cac4714610904578063e56d71bc1461092f578063e8665a0c1461096c578063e97dcb6214610997578063ebec9362146109b5578063f4f3b200146109f257610246565b8063c6289f2514610809578063cd15cf6114610846578063cf41d6f814610871578063ddca3f431461089c578063df0dd0d5146108c757610246565b8063a4b73a6d116100fd578063a4b73a6d146106fc578063a5a4054414610739578063b5f10b3814610764578063b858bb651461078f578063b91c86f1146107cc57610246565b80638c4d59d0146106255780639189a59e1461065057806397ba287c1461067b5780639ad572f5146106a65780639cd5b0d6146106d157610246565b80634cec4ed1116101c75780637104ddb21161018b5780637104ddb2146105185780637b5015c8146105435780637fb95ce21461058057806386ae228f146105bd57806387687952146105fa57610246565b80634cec4ed11461041d57806359acaa8c1461045a5780635d269be014610485578063636ad6a6146104c25780636dbeffbe146104ed57610246565b80631e6cccf91161020e5780631e6cccf9146103345780632459c1fe1461035f57806330bd8d691461039c57806340c87c18146103c757806346904840146103f257610246565b806301681a621461024b57806306fdde03146102885780630eecae21146102b35780630f17ed02146102de5780631209b1f614610309575b600080fd5b34801561025757600080fd5b50610272600480360381019061026d9190612391565b610a2f565b60405161027f919061298b565b60405180910390f35b34801561029457600080fd5b5061029d610c16565b6040516102aa91906129ea565b60405180910390f35b3480156102bf57600080fd5b506102c8610ca4565b6040516102d5919061298b565b60405180910390f35b3480156102ea57600080fd5b506102f3610d5c565b6040516103009190612b0c565b60405180910390f35b34801561031557600080fd5b5061031e610d66565b60405161032b9190612b0c565b60405180910390f35b34801561034057600080fd5b50610349610d6c565b6040516103569190612b0c565b60405180910390f35b34801561036b57600080fd5b5061038660048036038101906103819190612391565b610d76565b6040516103939190612b0c565b60405180910390f35b3480156103a857600080fd5b506103b1610d8e565b6040516103be9190612b0c565b60405180910390f35b3480156103d357600080fd5b506103dc610d9a565b6040516103e99190612b0c565b60405180910390f35b3480156103fe57600080fd5b50610407610da4565b60405161041491906128cc565b60405180910390f35b34801561042957600080fd5b50610444600480360381019061043f9190612391565b610dca565b604051610451919061298b565b60405180910390f35b34801561046657600080fd5b5061046f610eab565b60405161047c9190612b0c565b60405180910390f35b34801561049157600080fd5b506104ac60048036038101906104a7919061240c565b610eb1565b6040516104b99190612b0c565b60405180910390f35b3480156104ce57600080fd5b506104d7610ed1565b6040516104e49190612b0c565b60405180910390f35b3480156104f957600080fd5b50610502610edb565b60405161050f9190612b0c565b60405180910390f35b34801561052457600080fd5b5061052d610ee1565b60405161053a91906128cc565b60405180910390f35b34801561054f57600080fd5b5061056a6004803603810190610565919061240c565b610f07565b6040516105779190612b0c565b60405180910390f35b34801561058c57600080fd5b506105a760048036038101906105a29190612391565b610f27565b6040516105b49190612b0c565b60405180910390f35b3480156105c957600080fd5b506105e460048036038101906105df91906123e3565b610f70565b6040516105f19190612b0c565b60405180910390f35b34801561060657600080fd5b5061060f610f90565b60405161061c9190612b0c565b60405180910390f35b34801561063157600080fd5b5061063a610fde565b6040516106479190612b0c565b60405180910390f35b34801561065c57600080fd5b50610665610fe4565b60405161067291906128cc565b60405180910390f35b34801561068757600080fd5b50610690611008565b60405161069d9190612b0c565b60405180910390f35b3480156106b257600080fd5b506106bb61100e565b6040516106c8919061298b565b60405180910390f35b3480156106dd57600080fd5b506106e6611045565b6040516106f39190612b0c565b60405180910390f35b34801561070857600080fd5b50610723600480360381019061071e919061240c565b61104b565b6040516107309190612b0c565b60405180910390f35b34801561074557600080fd5b5061074e61106b565b60405161075b9190612b0c565b60405180910390f35b34801561077057600080fd5b50610779611071565b60405161078691906129ea565b60405180910390f35b34801561079b57600080fd5b506107b660048036038101906107b1919061245e565b611103565b6040516107c391906129cf565b60405180910390f35b3480156107d857600080fd5b506107f360048036038101906107ee919061240c565b611141565b6040516108009190612969565b60405180910390f35b34801561081557600080fd5b50610830600480360381019061082b919061240c565b6111e9565b60405161083d91906129cf565b60405180910390f35b34801561085257600080fd5b5061085b611209565b6040516108689190612b0c565b60405180910390f35b34801561087d57600080fd5b5061088661120f565b604051610893919061298b565b60405180910390f35b3480156108a857600080fd5b506108b161135c565b6040516108be9190612b0c565b60405180910390f35b3480156108d357600080fd5b506108ee60048036038101906108e991906123e3565b611362565b6040516108fb9190612b0c565b60405180910390f35b34801561091057600080fd5b50610919611380565b6040516109269190612b0c565b60405180910390f35b34801561093b57600080fd5b50610956600480360381019061095191906123e3565b61138a565b6040516109639190612947565b60405180910390f35b34801561097857600080fd5b5061098161142e565b60405161098e919061298b565b60405180910390f35b61099f611563565b6040516109ac919061298b565b60405180910390f35b3480156109c157600080fd5b506109dc60048036038101906109d79190612391565b61161d565b6040516109e99190612b0c565b60405180910390f35b3480156109fe57600080fd5b50610a196004803603810190610a149190612391565b611635565b604051610a26919061298b565b60405180910390f35b60008060009054906101000a900473ffffffffffffffffffffffffffffffffffffffff1673ffffffffffffffffffffffffffffffffffffffff16610a7161188c565b73ffffffffffffffffffffffffffffffffffffffff1614610ac7576040517f08c379a0000000000000000000000000000000000000000000000000000000008152600401610abe90612a6c565b60405180910390fd5b60008273ffffffffffffffffffffffffffffffffffffffff166370a08231306040518263ffffffff1660e01b8152600401610b0291906128cc565b60206040518083038186803b158015610b1a57600080fd5b505afa158015610b2e573d6000803e3d6000fd5b505050506040513d601f19601f82011682018060405250810190610b529190612435565b90506000811115610c0c578273ffffffffffffffffffffffffffffffffffffffff1663a9059cbb60008054906101000a900473ffffffffffffffffffffffffffffffffffffffff16836040518363ffffffff1660e01b8152600401610bb892919061291e565b602060405180830381600087803b158015610bd257600080fd5b505af1158015610be6573d6000803e3d6000fd5b505050506040513d601f19601f82011682018060405250810190610c0a91906123ba565b505b6001915050919050565b60018054610c2390612d4f565b80601f0160208091040260200160405190810160405280929190818152602001828054610c4f90612d4f565b8015610c9c5780601f10610c7157610100808354040283529160200191610c9c565b820191906000526020600020905b815481529060010190602001808311610c7f57829003601f168201915b505050505081565b600060026012541415610cec576040517f08c379a0000000000000000000000000000000000000000000000000000000008152600401610ce390612aac565b60405180910390fd5b6002601281905550610cfc61100e565b610d3b576040517f08c379a0000000000000000000000000000000000000000000000000000000008152600401610d3290612a0c565b60405180910390fd5b610d43611894565b50610d4c6118c1565b5060019050600160128190555090565b6000600554905090565b60035481565b6000601054905090565b60116020528060005260406000206000915090505481565b670de0b6b3a764000081565b6000600454905090565b600e60009054906101000a900473ffffffffffffffffffffffffffffffffffffffff1681565b60008060009054906101000a900473ffffffffffffffffffffffffffffffffffffffff1673ffffffffffffffffffffffffffffffffffffffff16610e0c61188c565b73ffffffffffffffffffffffffffffffffffffffff1614610e62576040517f08c379a0000000000000000000000000000000000000000000000000000000008152600401610e5990612a2c565b60405180910390fd5b816000806101000a81548173ffffffffffffffffffffffffffffffffffffffff021916908373ffffffffffffffffffffffffffffffffffffffff16021790555060019050919050565b60105481565b600060096000838152602001908152602001600020600101549050919050565b6000600354905090565b60045481565b600f60009054906101000a900473ffffffffffffffffffffffffffffffffffffffff1681565b600060096000838152602001908152602001600020600201549050919050565b6000601160008373ffffffffffffffffffffffffffffffffffffffff1673ffffffffffffffffffffffffffffffffffffffff168152602001908152602001600020549050919050565b6000600a6000838152602001908152602001600020600101549050919050565b6000600c6000610f9e61188c565b73ffffffffffffffffffffffffffffffffffffffff1673ffffffffffffffffffffffffffffffffffffffff16815260200190815260200160002054905090565b60075481565b60008054906101000a900473ffffffffffffffffffffffffffffffffffffffff1681565b60065481565b6000600254600960006005548152602001908152602001600020600101546110346119a7565b61103e9190612c96565b1015905090565b60085481565b600060096000838152602001908152602001600020600001549050919050565b60025481565b60606001805461108090612d4f565b80601f01602080910402602001604051908101604052809291908181526020018280546110ac90612d4f565b80156110f95780601f106110ce576101008083540402835291602001916110f9565b820191906000526020600020905b8154815290600101906020018083116110dc57829003601f168201915b5050505050905090565b600b602052826000526040600020602052816000526040600020818154811061112b57600080fd5b9060005260206000200160009250925050505481565b6060600b600083815260200190815260200160002060003373ffffffffffffffffffffffffffffffffffffffff1673ffffffffffffffffffffffffffffffffffffffff1681526020019081526020016000208054806020026020016040519081016040528092919081815260200182805480156111dd57602002820191906000526020600020905b8154815260200190600101908083116111c9575b50505050509050919050565b600060096000838152602001908152602001600020600301549050919050565b60055481565b600060026012541415611257576040517f08c379a000000000000000000000000000000000000000000000000000000000815260040161124e90612aac565b60405180910390fd5b60026012819055506000600c600061126d61188c565b73ffffffffffffffffffffffffffffffffffffffff1673ffffffffffffffffffffffffffffffffffffffff1681526020019081526020016000205414156112e9576040517f08c379a00000000000000000000000000000000000000000000000000000000081526004016112e090612a4c565b60405180910390fd5b6112f16119af565b5060006112fc6119b4565b905061130661188c565b73ffffffffffffffffffffffffffffffffffffffff166108fc829081150290604051600060405180830381858888f1935050505015801561134b573d6000803e3d6000fd5b506001915050600160128190555090565b600d5481565b600a6020528060005260406000206000915090508060010154905081565b6000600254905090565b6060600a600083815260200190815260200160002060000180548060200260200160405190810160405280929190818152602001828054801561142257602002820191906000526020600020905b8160009054906101000a900473ffffffffffffffffffffffffffffffffffffffff1673ffffffffffffffffffffffffffffffffffffffff16815260200190600101908083116113d8575b50505050509050919050565b6000600e60009054906101000a900473ffffffffffffffffffffffffffffffffffffffff1673ffffffffffffffffffffffffffffffffffffffff163373ffffffffffffffffffffffffffffffffffffffff16146114c0576040517f08c379a00000000000000000000000000000000000000000000000000000000081526004016114b790612aec565b60405180910390fd5b600060105411611505576040517f08c379a00000000000000000000000000000000000000000000000000000000081526004016114fc90612a8c565b60405180910390fd5b6000601054905060006010819055503373ffffffffffffffffffffffffffffffffffffffff166108fc829081150290604051600060405180830381858888f1935050505015801561155a573d6000803e3d6000fd5b50600191505090565b6000600260125414156115ab576040517f08c379a00000000000000000000000000000000000000000000000000000000081526004016115a290612aac565b60405180910390fd5b600260128190555060035434146115f7576040517f08c379a00000000000000000000000000000000000000000000000000000000081526004016115ee90612acc565b60405180910390fd5b6000611601611a53565b905061160c81611a6a565b506001915050600160128190555090565b600c6020528060005260406000206000915090505481565b6000600e60009054906101000a900473ffffffffffffffffffffffffffffffffffffffff1673ffffffffffffffffffffffffffffffffffffffff163373ffffffffffffffffffffffffffffffffffffffff16146116c7576040517f08c379a00000000000000000000000000000000000000000000000000000000081526004016116be90612aec565b60405180910390fd5b6000601160008473ffffffffffffffffffffffffffffffffffffffff1673ffffffffffffffffffffffffffffffffffffffff1681526020019081526020016000205411611749576040517f08c379a000000000000000000000000000000000000000000000000000000000815260040161174090612a8c565b60405180910390fd5b6000601160008473ffffffffffffffffffffffffffffffffffffffff1673ffffffffffffffffffffffffffffffffffffffff1681526020019081526020016000205490506000601160008573ffffffffffffffffffffffffffffffffffffffff1673ffffffffffffffffffffffffffffffffffffffff168152602001908152602001600020819055508273ffffffffffffffffffffffffffffffffffffffff1663a9059cbb600e60009054906101000a900473ffffffffffffffffffffffffffffffffffffffff16836040518363ffffffff1660e01b815260040161182f92919061291e565b602060405180830381600087803b15801561184957600080fd5b505af115801561185d573d6000803e3d6000fd5b505050506040513d601f19601f8201168201806040525081019061188191906123ba565b506001915050919050565b600033905090565b600061189e6119a7565b600960006005548152602001908152602001600020600101819055506001905090565b6000806118cc611bbe565b90506000801b81141561193557600660008154809291906118ec90612d81565b91905055507fe0dbc9529120eb99dfdd738608a453baef8223964340a20ebbc2d79558ea1f9a6000826040516119239291906129a6565b60405180910390a160009150506119a4565b806009600060055481526020019081526020016000206003018190555061195a611c10565b50611963611c85565b507fe0dbc9529120eb99dfdd738608a453baef8223964340a20ebbc2d79558ea1f9a6001826040516119969291906129a6565b60405180910390a160019150505b90565b600042905090565b600090565b600080600c60006119c361188c565b73ffffffffffffffffffffffffffffffffffffffff1673ffffffffffffffffffffffffffffffffffffffff1681526020019081526020016000205490506000600c6000611a0e61188c565b73ffffffffffffffffffffffffffffffffffffffff1673ffffffffffffffffffffffffffffffffffffffff168152602001908152602001600020819055508091505090565b600080611a61600354611ca6565b90508091505090565b600060076000815480929190611a7f90612d81565b919050555060035460086000828254611a989190612bb5565b92505081905550816009600060055481526020019081526020016000206002016000828254611ac79190612bb5565b925050819055506000611ad8611ce7565b9050600b600060055481526020019081526020016000206000611af961188c565b73ffffffffffffffffffffffffffffffffffffffff1673ffffffffffffffffffffffffffffffffffffffff1681526020019081526020016000208190806001815401808255809150506001900390600052602060002001600090919091909150557f1a68cfba6503f189182fd0e12b64a6c8b19d129ee1bb7aba124ab08d8a57e468611b8361188c565b8260096000600554815260200190815260200160002060020154604051611bac939291906128e7565b60405180910390a16001915050919050565b600080611bc9611ef7565b90506000611bd682611f1e565b90506000600a6000838152602001908152602001600020600001805490501115611c04578092505050611c0d565b6000801b925050505b90565b6000600160096000600554815260200190815260200160002060040160006101000a81548160ff021916908315150217905550611c4b611f5b565b611c7e577f4e487b7100000000000000000000000000000000000000000000000000000000600052600160045260246000fd5b6001905090565b6000806006819055506000600781905550611c9e612125565b506001905090565b600080611cb28361221b565b90508060106000828254611cc69190612bb5565b9250508190555060008184611cdb9190612c96565b90508092505050919050565b600080611cf2611ef7565b90506000611cff82611f1e565b90506000600a6000838152602001908152602001600020600001805490501115611dab57600a6000828152602001908152602001600020600001611d4161188c565b9080600181540180825580915050600190039060005260206000200160009091909190916101000a81548173ffffffffffffffffffffffffffffffffffffffff021916908373ffffffffffffffffffffffffffffffffffffffff1602179055508092505050611ef4565b6000600167ffffffffffffffff811115611dee577f4e487b7100000000000000000000000000000000000000000000000000000000600052604160045260246000fd5b604051908082528060200260200182016040528015611e1c5781602001602082028036833780820191505090505b509050611e2761188c565b81600081518110611e61577f4e487b7100000000000000000000000000000000000000000000000000000000600052603260045260246000fd5b602002602001019073ffffffffffffffffffffffffffffffffffffffff16908173ffffffffffffffffffffffffffffffffffffffff1681525050604051806040016040528082815260200184815250600a60008481526020019081526020016000206000820151816000019080519060200190611edf929190612281565b50602082015181600101559050508193505050505b90565b600080611f0261224a565b9050600060045482611f149190612dd4565b9050809250505090565b60008060055460065484604051602001611f3a9392919061288f565b60405160208183030381529060405280519060200120905080915050919050565b60008060096000600554815260200190815260200160002060030154905060006009600060055481526020019081526020016000206002015490506000600a600084815260200190815260200160002060000180549050905060008183611fc29190612c0b565b90506000600a600086815260200190815260200160002060000180548060200260200160405190810160405280929190818152602001828054801561205c57602002820191906000526020600020905b8160009054906101000a900473ffffffffffffffffffffffffffffffffffffffff1673ffffffffffffffffffffffffffffffffffffffff1681526020019060010190808311612012575b5050505050905060005b81518110156121185782600c60008484815181106120ad577f4e487b7100000000000000000000000000000000000000000000000000000000600052603260045260246000fd5b602002602001015173ffffffffffffffffffffffffffffffffffffffff1673ffffffffffffffffffffffffffffffffffffffff16815260200190815260200160002060008282546120fe9190612bb5565b92505081905550808061211090612d81565b915050612066565b5060019550505050505090565b60006005600081548092919061213a90612d81565b91905055506040518060a001604052806121526119a7565b815260200161215f6119a7565b8152602001600081526020016000801b8152602001600015158152506009600060055481526020019081526020016000206000820151816000015560208201518160010155604082015181600201556060820151816003015560808201518160040160006101000a81548160ff0219169083151502179055509050507fa35bd591310404f547e67d0f261a54d0a2a7606bf1695c5e9134f4259805eb7c60055460405161220c9190612b0c565b60405180910390a16001905090565b600080670de0b6b3a7640000600d54846122359190612c3c565b61223f9190612c0b565b905080915050919050565b600042436007546040516020016122639392919061288f565b6040516020818303038152906040528051906020012060001c905090565b8280548282559060005260206000209081019282156122fa579160200282015b828111156122f95782518260006101000a81548173ffffffffffffffffffffffffffffffffffffffff021916908373ffffffffffffffffffffffffffffffffffffffff160217905550916020019190600101906122a1565b5b509050612307919061230b565b5090565b5b8082111561232457600081600090555060010161230c565b5090565b60008135905061233781612ea3565b92915050565b60008151905061234c81612eba565b92915050565b60008135905061236181612ed1565b92915050565b60008135905061237681612ee8565b92915050565b60008151905061238b81612ee8565b92915050565b6000602082840312156123a357600080fd5b60006123b184828501612328565b91505092915050565b6000602082840312156123cc57600080fd5b60006123da8482850161233d565b91505092915050565b6000602082840312156123f557600080fd5b600061240384828501612352565b91505092915050565b60006020828403121561241e57600080fd5b600061242c84828501612367565b91505092915050565b60006020828403121561244757600080fd5b60006124558482850161237c565b91505092915050565b60008060006060848603121561247357600080fd5b600061248186828701612367565b935050602061249286828701612328565b92505060406124a386828701612367565b9150509250925092565b60006124b983836124dd565b60208301905092915050565b60006124d183836125c6565b60208301905092915050565b6124e681612cca565b82525050565b6124f581612cca565b82525050565b600061250682612b47565b6125108185612b82565b935061251b83612b27565b8060005b8381101561254c57815161253388826124ad565b975061253e83612b68565b92505060018101905061251f565b5085935050505092915050565b600061256482612b52565b61256e8185612b93565b935061257983612b37565b8060005b838110156125aa57815161259188826124c5565b975061259c83612b75565b92505060018101905061257d565b5085935050505092915050565b6125c081612cdc565b82525050565b6125cf81612ce8565b82525050565b6125de81612ce8565b82525050565b60006125ef82612b5d565b6125f98185612ba4565b9350612609818560208601612d1c565b61261281612e92565b840191505092915050565b600061262a602b83612ba4565b91507f6e6f7420656e6f7567682074696d652068617320656c61707365642073696e6360008301527f65206c61737420647261770000000000000000000000000000000000000000006020830152604082019050919050565b6000612690602983612ba4565b91507f4f6e6c792074686520737765657065722063616e2061737369676e206120726560008301527f706c6163656d656e7400000000000000000000000000000000000000000000006020830152604082019050919050565b60006126f6601d83612ba4565b91507f796f752068617665206e6f2077696e6e696e677320746f20636c61696d0000006000830152602082019050919050565b6000612736601383612ba4565b91507f6d757374206265207468652073776565706572000000000000000000000000006000830152602082019050919050565b6000612776601983612ba4565b91507f796f752068617665206e6f7468696e6720746f20636c61696d000000000000006000830152602082019050919050565b60006127b6601f83612ba4565b91507f5265656e7472616e637947756172643a207265656e7472616e742063616c6c006000830152602082019050919050565b60006127f6601683612ba4565b91507f77726f6e6720616d6f756e74206f6620746f6b656e73000000000000000000006000830152602082019050919050565b6000612836601d83612ba4565b91507f596f7520617265206e6f74207468652066656520726563697069656e740000006000830152602082019050919050565b61287281612d12565b82525050565b61288961288482612d12565b612dca565b82525050565b600061289b8286612878565b6020820191506128ab8285612878565b6020820191506128bb8284612878565b602082019150819050949350505050565b60006020820190506128e160008301846124ec565b92915050565b60006060820190506128fc60008301866124ec565b61290960208301856125d5565b6129166040830184612869565b949350505050565b600060408201905061293360008301856124ec565b6129406020830184612869565b9392505050565b6000602082019050818103600083015261296181846124fb565b905092915050565b600060208201905081810360008301526129838184612559565b905092915050565b60006020820190506129a060008301846125b7565b92915050565b60006040820190506129bb60008301856125b7565b6129c860208301846125d5565b9392505050565b60006020820190506129e460008301846125d5565b92915050565b60006020820190508181036000830152612a0481846125e4565b905092915050565b60006020820190508181036000830152612a258161261d565b9050919050565b60006020820190508181036000830152612a4581612683565b9050919050565b60006020820190508181036000830152612a65816126e9565b9050919050565b60006020820190508181036000830152612a8581612729565b9050919050565b60006020820190508181036000830152612aa581612769565b9050919050565b60006020820190508181036000830152612ac5816127a9565b9050919050565b60006020820190508181036000830152612ae5816127e9565b9050919050565b60006020820190508181036000830152612b0581612829565b9050919050565b6000602082019050612b216000830184612869565b92915050565b6000819050602082019050919050565b6000819050602082019050919050565b600081519050919050565b600081519050919050565b600081519050919050565b6000602082019050919050565b6000602082019050919050565b600082825260208201905092915050565b600082825260208201905092915050565b600082825260208201905092915050565b6000612bc082612d12565b9150612bcb83612d12565b9250827fffffffffffffffffffffffffffffffffffffffffffffffffffffffffffffffff03821115612c0057612bff612e05565b5b828201905092915050565b6000612c1682612d12565b9150612c2183612d12565b925082612c3157612c30612e34565b5b828204905092915050565b6000612c4782612d12565b9150612c5283612d12565b9250817fffffffffffffffffffffffffffffffffffffffffffffffffffffffffffffffff0483118215151615612c8b57612c8a612e05565b5b828202905092915050565b6000612ca182612d12565b9150612cac83612d12565b925082821015612cbf57612cbe612e05565b5b828203905092915050565b6000612cd582612cf2565b9050919050565b60008115159050919050565b6000819050919050565b600073ffffffffffffffffffffffffffffffffffffffff82169050919050565b6000819050919050565b60005b83811015612d3a578082015181840152602081019050612d1f565b83811115612d49576000848401525b50505050565b60006002820490506001821680612d6757607f821691505b60208210811415612d7b57612d7a612e63565b5b50919050565b6000612d8c82612d12565b91507fffffffffffffffffffffffffffffffffffffffffffffffffffffffffffffffff821415612dbf57612dbe612e05565b5b600182019050919050565b6000819050919050565b6000612ddf82612d12565b9150612dea83612d12565b925082612dfa57612df9612e34565b5b828206905092915050565b7f4e487b7100000000000000000000000000000000000000000000000000000000600052601160045260246000fd5b7f4e487b7100000000000000000000000000000000000000000000000000000000600052601260045260246000fd5b7f4e487b7100000000000000000000000000000000000000000000000000000000600052602260045260246000fd5b6000601f19601f8301169050919050565b612eac81612cca565b8114612eb757600080fd5b50565b612ec381612cdc565b8114612ece57600080fd5b50565b612eda81612ce8565b8114612ee557600080fd5b50565b612ef181612d12565b8114612efc57600080fd5b5056fea264697066735822122013844665cf4c0dc3ce560edab67ecec636c4d470ee15835dc6fd1d741f7365b664736f6c63430008000033",
  "linkReferences": {},
  "deployedLinkReferences": {}
}