{
  "_format": "hh-sol-artifact-1",
  "contractName": "ERC20LottoHelper",
  "sourceName": "contracts/TestHelpers/ERC20LottoHelpers.sol",
  "abi": [
    {
      "inputs": [],
      "stateMutability": "nonpayable",
      "type": "constructor"
    },
    {
      "anonymous": false,
      "inputs": [
        {
          "indexed": true,
          "internalType": "address",
          "name": "owner",
          "type": "address"
        },
        {
          "indexed": true,
          "internalType": "address",
          "name": "spender",
          "type": "address"
        },
        {
          "indexed": false,
          "internalType": "uint256",
          "name": "value",
          "type": "uint256"
        }
      ],
      "name": "Approval",
      "type": "event"
    },
    {
      "anonymous": false,
      "inputs": [
        {
          "indexed": true,
          "internalType": "address",
          "name": "from",
          "type": "address"
        },
        {
          "indexed": true,
          "internalType": "address",
          "name": "to",
          "type": "address"
        },
        {
          "indexed": false,
          "internalType": "uint256",
          "name": "value",
          "type": "uint256"
        }
      ],
      "name": "Transfer",
      "type": "event"
    },
    {
      "anonymous": false,
      "inputs": [
        {
          "indexed": false,
          "internalType": "bool",
          "name": "winnerSelected",
          "type": "bool"
        },
        {
          "indexed": false,
          "internalType": "bytes32",
          "name": "winningTicket",
          "type": "bytes32"
        }
      ],
      "name": "newDraw",
      "type": "event"
    },
    {
      "anonymous": false,
      "inputs": [
        {
          "indexed": false,
          "internalType": "address",
          "name": "entrant",
          "type": "address"
        },
        {
          "indexed": false,
          "internalType": "bytes32",
          "name": "ticketID",
          "type": "bytes32"
        },
        {
          "indexed": false,
          "internalType": "uint256",
          "name": "totalPot",
          "type": "uint256"
        }
      ],
      "name": "newEntry",
      "type": "event"
    },
    {
      "anonymous": false,
      "inputs": [
        {
          "indexed": false,
          "internalType": "address",
          "name": "user",
          "type": "address"
        },
        {
          "indexed": false,
          "internalType": "uint256",
          "name": "amount",
          "type": "uint256"
        }
      ],
      "name": "newPayment",
      "type": "event"
    },
    {
      "anonymous": false,
      "inputs": [
        {
          "indexed": false,
          "internalType": "uint256",
          "name": "lottoNumber",
          "type": "uint256"
        }
      ],
      "name": "newRound",
      "type": "event"
    },
    {
      "inputs": [
        {
          "internalType": "address",
          "name": "owner",
          "type": "address"
        },
        {
          "internalType": "address",
          "name": "spender",
          "type": "address"
        }
      ],
      "name": "allowance",
      "outputs": [
        {
          "internalType": "uint256",
          "name": "",
          "type": "uint256"
        }
      ],
      "stateMutability": "view",
      "type": "function"
    },
    {
      "inputs": [
        {
          "internalType": "address",
          "name": "spender",
          "type": "address"
        },
        {
          "internalType": "uint256",
          "name": "amount",
          "type": "uint256"
        }
      ],
      "name": "approve",
      "outputs": [
        {
          "internalType": "bool",
          "name": "",
          "type": "bool"
        }
      ],
      "stateMutability": "nonpayable",
      "type": "function"
    },
    {
      "inputs": [
        {
          "internalType": "address",
          "name": "account",
          "type": "address"
        }
      ],
      "name": "balanceOf",
      "outputs": [
        {
          "internalType": "uint256",
          "name": "",
          "type": "uint256"
        }
      ],
      "stateMutability": "view",
      "type": "function"
    },
    {
      "inputs": [],
      "name": "checkRandomness",
      "outputs": [
        {
          "internalType": "uint256[5]",
          "name": "",
          "type": "uint256[5]"
        }
      ],
      "stateMutability": "view",
      "type": "function"
    },
    {
      "inputs": [
        {
          "internalType": "uint256",
          "name": "index",
          "type": "uint256"
        }
      ],
      "name": "checkWinner",
      "outputs": [
        {
          "internalType": "bool",
          "name": "",
          "type": "bool"
        }
      ],
      "stateMutability": "view",
      "type": "function"
    },
    {
      "inputs": [],
      "name": "currentDraw",
      "outputs": [
        {
          "internalType": "uint256",
          "name": "",
          "type": "uint256"
        }
      ],
      "stateMutability": "view",
      "type": "function"
    },
    {
      "inputs": [],
      "name": "currentLotto",
      "outputs": [
        {
          "internalType": "uint256",
          "name": "",
          "type": "uint256"
        }
      ],
      "stateMutability": "view",
      "type": "function"
    },
    {
      "inputs": [
        {
          "internalType": "address",
          "name": "",
          "type": "address"
        }
      ],
      "name": "debtToUser",
      "outputs": [
        {
          "internalType": "uint256",
          "name": "",
          "type": "uint256"
        }
      ],
      "stateMutability": "view",
      "type": "function"
    },
    {
      "inputs": [],
      "name": "decimals",
      "outputs": [
        {
          "internalType": "uint8",
          "name": "",
          "type": "uint8"
        }
      ],
      "stateMutability": "view",
      "type": "function"
    },
    {
      "inputs": [
        {
          "internalType": "address",
          "name": "spender",
          "type": "address"
        },
        {
          "internalType": "uint256",
          "name": "subtractedValue",
          "type": "uint256"
        }
      ],
      "name": "decreaseAllowance",
      "outputs": [
        {
          "internalType": "bool",
          "name": "",
          "type": "bool"
        }
      ],
      "stateMutability": "nonpayable",
      "type": "function"
    },
    {
      "inputs": [],
      "name": "didSomeoneWin",
      "outputs": [
        {
          "internalType": "bool",
          "name": "",
          "type": "bool"
        }
      ],
      "stateMutability": "view",
      "type": "function"
    },
    {
      "inputs": [],
      "name": "draw",
      "outputs": [
        {
          "internalType": "bytes32",
          "name": "",
          "type": "bytes32"
        }
      ],
      "stateMutability": "nonpayable",
      "type": "function"
    },
    {
      "inputs": [],
      "name": "drawFrequency",
      "outputs": [
        {
          "internalType": "uint256",
          "name": "",
          "type": "uint256"
        }
      ],
      "stateMutability": "view",
      "type": "function"
    },
    {
      "inputs": [],
      "name": "enter",
      "outputs": [
        {
          "internalType": "bytes32",
          "name": "",
          "type": "bytes32"
        }
      ],
      "stateMutability": "nonpayable",
      "type": "function"
    },
    {
      "inputs": [],
      "name": "enterAndLog",
      "outputs": [
        {
          "internalType": "bool",
          "name": "",
          "type": "bool"
        }
      ],
      "stateMutability": "payable",
      "type": "function"
    },
    {
      "inputs": [],
      "name": "ethDecimals",
      "outputs": [
        {
          "internalType": "uint256",
          "name": "",
          "type": "uint256"
        }
      ],
      "stateMutability": "view",
      "type": "function"
    },
    {
      "inputs": [],
      "name": "fee",
      "outputs": [
        {
          "internalType": "uint256",
          "name": "",
          "type": "uint256"
        }
      ],
      "stateMutability": "view",
      "type": "function"
    },
    {
      "inputs": [],
      "name": "feeRecipient",
      "outputs": [
        {
          "internalType": "address",
          "name": "",
          "type": "address"
        }
      ],
      "stateMutability": "view",
      "type": "function"
    },
    {
      "inputs": [],
      "name": "getPaid",
      "outputs": [
        {
          "internalType": "bool",
          "name": "",
          "type": "bool"
        }
      ],
      "stateMutability": "nonpayable",
      "type": "function"
    },
    {
      "inputs": [],
      "name": "getTokenAddress",
      "outputs": [
        {
          "internalType": "address",
          "name": "",
          "type": "address"
        }
      ],
      "stateMutability": "view",
      "type": "function"
    },
    {
      "inputs": [
        {
          "internalType": "address",
          "name": "spender",
          "type": "address"
        },
        {
          "internalType": "uint256",
          "name": "addedValue",
          "type": "uint256"
        }
      ],
      "name": "increaseAllowance",
      "outputs": [
        {
          "internalType": "bool",
          "name": "",
          "type": "bool"
        }
      ],
      "stateMutability": "nonpayable",
      "type": "function"
    },
    {
      "inputs": [
        {
          "internalType": "uint256",
          "name": "",
          "type": "uint256"
        }
      ],
      "name": "logArray",
      "outputs": [
        {
          "internalType": "bytes32",
          "name": "",
          "type": "bytes32"
        }
      ],
      "stateMutability": "view",
      "type": "function"
    },
    {
      "inputs": [],
      "name": "modulus",
      "outputs": [
        {
          "internalType": "uint256",
          "name": "",
          "type": "uint256"
        }
      ],
      "stateMutability": "view",
      "type": "function"
    },
    {
      "inputs": [],
      "name": "name",
      "outputs": [
        {
          "internalType": "string",
          "name": "",
          "type": "string"
        }
      ],
      "stateMutability": "view",
      "type": "function"
    },
    {
      "inputs": [],
      "name": "namee",
      "outputs": [
        {
          "internalType": "string",
          "name": "",
          "type": "string"
        }
      ],
      "stateMutability": "view",
      "type": "function"
    },
    {
      "inputs": [],
      "name": "readyToDraw",
      "outputs": [
        {
          "internalType": "bool",
          "name": "",
          "type": "bool"
        }
      ],
      "stateMutability": "view",
      "type": "function"
    },
    {
      "inputs": [
        {
          "internalType": "address",
          "name": "sweepee",
          "type": "address"
        }
      ],
      "name": "sweep",
      "outputs": [
        {
          "internalType": "bool",
          "name": "",
          "type": "bool"
        }
      ],
      "stateMutability": "nonpayable",
      "type": "function"
    },
    {
      "inputs": [],
      "name": "symbol",
      "outputs": [
        {
          "internalType": "string",
          "name": "",
          "type": "string"
        }
      ],
      "stateMutability": "view",
      "type": "function"
    },
    {
      "inputs": [],
      "name": "ticketCounter",
      "outputs": [
        {
          "internalType": "uint256",
          "name": "",
          "type": "uint256"
        }
      ],
      "stateMutability": "view",
      "type": "function"
    },
    {
      "inputs": [],
      "name": "ticketPrice",
      "outputs": [
        {
          "internalType": "uint256",
          "name": "",
          "type": "uint256"
        }
      ],
      "stateMutability": "view",
      "type": "function"
    },
    {
      "inputs": [
        {
          "internalType": "bytes32",
          "name": "",
          "type": "bytes32"
        }
      ],
      "name": "tickets",
      "outputs": [
        {
          "internalType": "uint256",
          "name": "ticketNumber",
          "type": "uint256"
        }
      ],
      "stateMutability": "view",
      "type": "function"
    },
    {
      "inputs": [],
      "name": "tokenAddress",
      "outputs": [
        {
          "internalType": "address",
          "name": "",
          "type": "address"
        }
      ],
      "stateMutability": "view",
      "type": "function"
    },
    {
      "inputs": [],
      "name": "totalSupply",
      "outputs": [
        {
          "internalType": "uint256",
          "name": "",
          "type": "uint256"
        }
      ],
      "stateMutability": "view",
      "type": "function"
    },
    {
      "inputs": [
        {
          "internalType": "address",
          "name": "recipient",
          "type": "address"
        },
        {
          "internalType": "uint256",
          "name": "amount",
          "type": "uint256"
        }
      ],
      "name": "transfer",
      "outputs": [
        {
          "internalType": "bool",
          "name": "",
          "type": "bool"
        }
      ],
      "stateMutability": "nonpayable",
      "type": "function"
    },
    {
      "inputs": [
        {
          "internalType": "address",
          "name": "sender",
          "type": "address"
        },
        {
          "internalType": "address",
          "name": "recipient",
          "type": "address"
        },
        {
          "internalType": "uint256",
          "name": "amount",
          "type": "uint256"
        }
      ],
      "name": "transferFrom",
      "outputs": [
        {
          "internalType": "bool",
          "name": "",
          "type": "bool"
        }
      ],
      "stateMutability": "nonpayable",
      "type": "function"
    },
    {
      "inputs": [
        {
          "internalType": "uint256",
          "name": "",
          "type": "uint256"
        },
        {
          "internalType": "address",
          "name": "",
          "type": "address"
        },
        {
          "internalType": "uint256",
          "name": "",
          "type": "uint256"
        }
      ],
      "name": "userTickets",
      "outputs": [
        {
          "internalType": "bytes32",
          "name": "",
          "type": "bytes32"
        }
      ],
      "stateMutability": "view",
      "type": "function"
    },
    {
      "inputs": [],
      "name": "viewCurrentDraw",
      "outputs": [
        {
          "internalType": "uint256",
          "name": "",
          "type": "uint256"
        }
      ],
      "stateMutability": "view",
      "type": "function"
    },
    {
      "inputs": [],
      "name": "viewFinished",
      "outputs": [
        {
          "internalType": "bool",
          "name": "",
          "type": "bool"
        }
      ],
      "stateMutability": "view",
      "type": "function"
    },
    {
      "inputs": [],
      "name": "viewLast",
      "outputs": [
        {
          "internalType": "uint256",
          "name": "",
          "type": "uint256"
        }
      ],
      "stateMutability": "view",
      "type": "function"
    },
    {
      "inputs": [
        {
          "internalType": "uint256",
          "name": "index",
          "type": "uint256"
        }
      ],
      "name": "viewLogArray",
      "outputs": [
        {
          "internalType": "bytes32",
          "name": "",
          "type": "bytes32"
        }
      ],
      "stateMutability": "view",
      "type": "function"
    },
    {
      "inputs": [
        {
          "internalType": "uint256",
          "name": "lottoNumber",
          "type": "uint256"
        }
      ],
      "name": "viewLotto",
      "outputs": [
        {
          "components": [
            {
              "internalType": "uint256",
              "name": "startTime",
              "type": "uint256"
            },
            {
              "internalType": "uint256",
              "name": "lastDraw",
              "type": "uint256"
            },
            {
              "internalType": "uint256",
              "name": "totalPot",
              "type": "uint256"
            },
            {
              "internalType": "bytes32",
              "name": "winningTicket",
              "type": "bytes32"
            },
            {
              "internalType": "bool",
              "name": "finished",
              "type": "bool"
            }
          ],
          "internalType": "struct Lottery",
          "name": "",
          "type": "tuple"
        }
      ],
      "stateMutability": "view",
      "type": "function"
    },
    {
      "inputs": [],
      "name": "viewLottoNumber",
      "outputs": [
        {
          "internalType": "uint256",
          "name": "",
          "type": "uint256"
        }
      ],
      "stateMutability": "view",
      "type": "function"
    },
    {
      "inputs": [],
      "name": "viewOdds",
      "outputs": [
        {
          "internalType": "uint256",
          "name": "",
          "type": "uint256"
        }
      ],
      "stateMutability": "view",
      "type": "function"
    },
    {
      "inputs": [],
      "name": "viewPot",
      "outputs": [
        {
          "internalType": "uint256",
          "name": "",
          "type": "uint256"
        }
      ],
      "stateMutability": "view",
      "type": "function"
    },
    {
      "inputs": [],
      "name": "viewStart",
      "outputs": [
        {
          "internalType": "uint256",
          "name": "",
          "type": "uint256"
        }
      ],
      "stateMutability": "view",
      "type": "function"
    },
    {
      "inputs": [],
      "name": "viewTicketCount",
      "outputs": [
        {
          "internalType": "uint256",
          "name": "",
          "type": "uint256"
        }
      ],
      "stateMutability": "view",
      "type": "function"
    },
    {
      "inputs": [
        {
          "internalType": "bytes32",
          "name": "_ticketID",
          "type": "bytes32"
        }
      ],
      "name": "viewTicketHolders",
      "outputs": [
        {
          "internalType": "address[]",
          "name": "",
          "type": "address[]"
        }
      ],
      "stateMutability": "view",
      "type": "function"
    },
    {
      "inputs": [
        {
          "internalType": "bytes32",
          "name": "_ticketID",
          "type": "bytes32"
        }
      ],
      "name": "viewTicketNumber",
      "outputs": [
        {
          "internalType": "uint256",
          "name": "",
          "type": "uint256"
        }
      ],
      "stateMutability": "view",
      "type": "function"
    },
    {
      "inputs": [
        {
          "internalType": "uint256",
          "name": "lottoNumber",
          "type": "uint256"
        }
      ],
      "name": "viewTicketsByLotto",
      "outputs": [
        {
          "internalType": "bytes32[]",
          "name": "",
          "type": "bytes32[]"
        }
      ],
      "stateMutability": "view",
      "type": "function"
    },
    {
      "inputs": [],
      "name": "viewWinner",
      "outputs": [
        {
          "internalType": "bytes32",
          "name": "",
          "type": "bytes32"
        }
      ],
      "stateMutability": "view",
      "type": "function"
    },
    {
      "inputs": [],
      "name": "viewWinnings",
      "outputs": [
        {
          "internalType": "uint256",
          "name": "",
          "type": "uint256"
        }
      ],
      "stateMutability": "view",
      "type": "function"
    },
    {
      "inputs": [
        {
          "internalType": "address",
          "name": "addr",
          "type": "address"
        }
      ],
      "name": "viewWinningsByAddress",
      "outputs": [
        {
          "internalType": "uint256",
          "name": "",
          "type": "uint256"
        }
      ],
      "stateMutability": "view",
      "type": "function"
    }
  ],
  "bytecode": "0x60e0604052600360009054906101000a900473ffffffffffffffffffffffffffffffffffffffff16600460006101000a81548173ffffffffffffffffffffffffffffffffffffffff021916908373ffffffffffffffffffffffffffffffffffffffff16021790555073f39fd6e51aad88f6f4ce6ab8827279cfffb92266601160006101000a81548173ffffffffffffffffffffffffffffffffffffffff021916908373ffffffffffffffffffffffffffffffffffffffff1602179055507370997970c51812dc3a010c7d01b50e0d17dc79c8601260006101000a81548173ffffffffffffffffffffffffffffffffffffffff021916908373ffffffffffffffffffffffffffffffffffffffff160217905550733c44cdddb6a900fa2b585dd299e03d12fa4293bc601360006101000a81548173ffffffffffffffffffffffffffffffffffffffff021916908373ffffffffffffffffffffffffffffffffffffffff1602179055507390f79bf6eb2c4f870365e785982e1f101e93b906601460006101000a81548173ffffffffffffffffffffffffffffffffffffffff021916908373ffffffffffffffffffffffffffffffffffffffff1602179055507315d34aaf54267db7d7c367839aaf71a00a2c6a65601560006101000a81548173ffffffffffffffffffffffffffffffffffffffff021916908373ffffffffffffffffffffffffffffffffffffffff1602179055506b204fce5e3e2502611000000060165560016018553480156200023257600080fd5b506040518060400160405280600681526020017f74546f6b656e00000000000000000000000000000000000000000000000000008152506040518060400160405280600281526020017f54540000000000000000000000000000000000000000000000000000000000008152506000670de0b6b3a76400006040518060400160405280601481526020017f46616e746f6d204552433230204c6f7474657279000000000000000000000000815250601160009054906101000a900473ffffffffffffffffffffffffffffffffffffffff16600a30600160008190555085608081815250508460a0818152505083600190805190602001906200033692919062000811565b5082600260006101000a81548173ffffffffffffffffffffffffffffffffffffffff021916908373ffffffffffffffffffffffffffffffffffffffff1602179055508160c0818152505080600360006101000a81548173ffffffffffffffffffffffffffffffffffffffff021916908373ffffffffffffffffffffffffffffffffffffffff160217905550620003d16200052060201b60201c565b5050505050505081600f9080519060200190620003f092919062000811565b5080601090805190602001906200040992919062000811565b50505062000442601160009054906101000a900473ffffffffffffffffffffffffffffffffffffffff166016546200069e60201b60201c565b62000478601260009054906101000a900473ffffffffffffffffffffffffffffffffffffffff166016546200069e60201b60201c565b620004ae601360009054906101000a900473ffffffffffffffffffffffffffffffffffffffff166016546200069e60201b60201c565b620004e4601460009054906101000a900473ffffffffffffffffffffffffffffffffffffffff166016546200069e60201b60201c565b6200051a601560009054906101000a900473ffffffffffffffffffffffffffffffffffffffff166016546200069e60201b60201c565b62000b37565b6000806005541115620005965760086000600554815260200190815260200160002060040160009054906101000a900460ff1662000595576040517f08c379a00000000000000000000000000000000000000000000000000000000081526004016200058c906200097c565b60405180910390fd5b5b60056000815480929190620005ab9062000a8b565b91905055506040518060a00160405280620005cb6200080460201b60201c565b8152602001620005e06200080460201b60201c565b8152602001600081526020016000801b8152602001600015158152506008600060055481526020019081526020016000206000820151816000015560208201518160010155604082015181600201556060820151816003015560808201518160040160006101000a81548160ff0219169083151502179055509050507fa35bd591310404f547e67d0f261a54d0a2a7606bf1695c5e9134f4259805eb7c6005546040516200068f9190620009c0565b60405180910390a16001905090565b600073ffffffffffffffffffffffffffffffffffffffff168273ffffffffffffffffffffffffffffffffffffffff16141562000711576040517f08c379a000000000000000000000000000000000000000000000000000000000815260040162000708906200099e565b60405180910390fd5b62000725600083836200080c60201b60201c565b80600e6000828254620007399190620009ee565b9250508190555080600c60008473ffffffffffffffffffffffffffffffffffffffff1673ffffffffffffffffffffffffffffffffffffffff1681526020019081526020016000206000828254620007919190620009ee565b925050819055508173ffffffffffffffffffffffffffffffffffffffff16600073ffffffffffffffffffffffffffffffffffffffff167fddf252ad1be2c89b69c2b068fc378daa952ba7f163c4a11628f55a4df523b3ef83604051620007f89190620009c0565b60405180910390a35050565b600042905090565b505050565b8280546200081f9062000a55565b90600052602060002090601f0160209004810192826200084357600085556200088f565b82601f106200085e57805160ff19168380011785556200088f565b828001600101855582156200088f579182015b828111156200088e57825182559160200191906001019062000871565b5b5090506200089e9190620008a2565b5090565b5b80821115620008bd576000816000905550600101620008a3565b5090565b6000620008d0602183620009dd565b91507f70726576696f7573206c6f747465727920686173206e6f742066696e6973686560008301527f64000000000000000000000000000000000000000000000000000000000000006020830152604082019050919050565b600062000938601f83620009dd565b91507f45524332303a206d696e7420746f20746865207a65726f2061646472657373006000830152602082019050919050565b620009768162000a4b565b82525050565b600060208201905081810360008301526200099781620008c1565b9050919050565b60006020820190508181036000830152620009b98162000929565b9050919050565b6000602082019050620009d760008301846200096b565b92915050565b600082825260208201905092915050565b6000620009fb8262000a4b565b915062000a088362000a4b565b9250827fffffffffffffffffffffffffffffffffffffffffffffffffffffffffffffffff0382111562000a405762000a3f62000ad9565b5b828201905092915050565b6000819050919050565b6000600282049050600182168062000a6e57607f821691505b6020821081141562000a855762000a8462000b08565b5b50919050565b600062000a988262000a4b565b91507fffffffffffffffffffffffffffffffffffffffffffffffffffffffffffffffff82141562000ace5762000acd62000ad9565b5b600182019050919050565b7f4e487b7100000000000000000000000000000000000000000000000000000000600052601160045260246000fd5b7f4e487b7100000000000000000000000000000000000000000000000000000000600052602260045260246000fd5b60805160a05160c05161421a62000b8a60003960008181611203015281816122540152612b700152600081816111dd0152818161200a01526120b401526000818161171a01526118a7015261421a6000f3fe6080604052600436106102ff5760003560e01c80639ad572f511610190578063cd15cf61116100dc578063df0dd0d511610095578063ebec93621161006f578063ebec936214610c58578063f04bb87f14610c95578063f5268d3714610cb3578063ff4b040014610cde576102ff565b8063df0dd0d514610bb3578063e56d71bc14610bf0578063e97dcb6214610c2d576102ff565b8063cd15cf6114610a8d578063cf41d6f814610ab8578063dccd1ae114610ae3578063dd325f2514610b20578063dd62ed3e14610b4b578063ddca3f4314610b88576102ff565b8063af38c81011610149578063b85d4be611610123578063b85d4be6146109cf578063be1f2cfd146109fa578063c932a7f714610a25578063c99fd49b14610a62576102ff565b8063af38c8101461092a578063af95090514610955578063b858bb6514610992576102ff565b80639ad572f5146108045780639d76ea581461082f578063a1dd2ac11461085a578063a457c2d714610885578063a5a40544146108c2578063a9059cbb146108ed576102ff565b8063395093511161024f578063841fd8fd11610208578063893ff4ee116101e2578063893ff4ee146107465780638c4d59d01461078357806395d89b41146107ae57806397ba287c146107d9576102ff565b8063841fd8fd146106b357806386ae228f146106de578063876879521461071b576102ff565b8063395093511461057b57806345ea375f146105b857806346904840146105e357806355e9fa4f1461060e5780636da7b0d11461064b57806370a0823114610676576102ff565b8063154a7980116102bc57806323b872dd1161029657806323b872dd146104bd57806330bd8d69146104fa578063313ce56714610525578063392e240314610550576102ff565b8063154a79801461042a57806318160ddd146104555780631885493914610480576102ff565b806301681a621461030457806306fdde0314610341578063095ea7b31461036c5780630eecae21146103a957806310fe9ae8146103d45780631209b1f6146103ff575b600080fd5b34801561031057600080fd5b5061032b60048036038101906103269190613053565b610d09565b6040516103389190613b40565b60405180910390f35b34801561034d57600080fd5b50610356610ef9565b6040516103639190613b9f565b60405180910390f35b34801561037857600080fd5b50610393600480360381019061038e9190613107565b610f87565b6040516103a09190613b40565b60405180910390f35b3480156103b557600080fd5b506103be610fa5565b6040516103cb9190613b84565b60405180910390f35b3480156103e057600080fd5b506103e96111b1565b6040516103f69190613a2f565b60405180910390f35b34801561040b57600080fd5b506104146111db565b6040516104219190613d9c565b60405180910390f35b34801561043657600080fd5b5061043f6111ff565b60405161044c9190613d9c565b60405180910390f35b34801561046157600080fd5b5061046a611233565b6040516104779190613d9c565b60405180910390f35b34801561048c57600080fd5b506104a760048036038101906104a29190613195565b61123d565b6040516104b49190613b40565b60405180910390f35b3480156104c957600080fd5b506104e460048036038101906104df91906130b8565b611273565b6040516104f19190613b40565b60405180910390f35b34801561050657600080fd5b5061050f611374565b60405161051c9190613d9c565b60405180910390f35b34801561053157600080fd5b5061053a611380565b6040516105479190613db7565b60405180910390f35b34801561055c57600080fd5b50610565611389565b6040516105729190613b84565b60405180910390f35b34801561058757600080fd5b506105a2600480360381019061059d9190613107565b6113a9565b6040516105af9190613b40565b60405180910390f35b3480156105c457600080fd5b506105cd611455565b6040516105da9190613d9c565b60405180910390f35b3480156105ef57600080fd5b506105f8611475565b6040516106059190613a2f565b60405180910390f35b34801561061a57600080fd5b5061063560048036038101906106309190613195565b61149b565b6040516106429190613b03565b60405180910390f35b34801561065757600080fd5b5061066061154a565b60405161066d9190613d9c565b60405180910390f35b34801561068257600080fd5b5061069d60048036038101906106989190613053565b611554565b6040516106aa9190613d9c565b60405180910390f35b3480156106bf57600080fd5b506106c861159d565b6040516106d59190613b25565b60405180910390f35b3480156106ea57600080fd5b506107056004803603810190610700919061316c565b6115ed565b6040516107129190613d9c565b60405180910390f35b34801561072757600080fd5b5061073061160d565b60405161073d9190613d9c565b60405180910390f35b34801561075257600080fd5b5061076d60048036038101906107689190613195565b61165b565b60405161077a9190613b84565b60405180910390f35b34801561078f57600080fd5b50610798611678565b6040516107a59190613d9c565b60405180910390f35b3480156107ba57600080fd5b506107c361167e565b6040516107d09190613b9f565b60405180910390f35b3480156107e557600080fd5b506107ee611710565b6040516107fb9190613d9c565b60405180910390f35b34801561081057600080fd5b50610819611716565b6040516108269190613b40565b60405180910390f35b34801561083b57600080fd5b5061084461176b565b6040516108519190613a2f565b60405180910390f35b34801561086657600080fd5b5061086f611791565b60405161087c9190613d9c565b60405180910390f35b34801561089157600080fd5b506108ac60048036038101906108a79190613107565b6117b1565b6040516108b99190613b40565b60405180910390f35b3480156108ce57600080fd5b506108d76118a5565b6040516108e49190613d9c565b60405180910390f35b3480156108f957600080fd5b50610914600480360381019061090f9190613107565b6118c9565b6040516109219190613b40565b60405180910390f35b34801561093657600080fd5b5061093f6118e7565b60405161094c9190613b40565b60405180910390f35b34801561096157600080fd5b5061097c60048036038101906109779190613195565b61190d565b6040516109899190613b84565b60405180910390f35b34801561099e57600080fd5b506109b960048036038101906109b491906131e7565b611925565b6040516109c69190613b84565b60405180910390f35b3480156109db57600080fd5b506109e4611963565b6040516109f19190613d9c565b60405180910390f35b348015610a0657600080fd5b50610a0f61196d565b604051610a1c9190613b40565b60405180910390f35b348015610a3157600080fd5b50610a4c6004803603810190610a479190613053565b61199a565b604051610a599190613d9c565b60405180910390f35b348015610a6e57600080fd5b50610a776119e3565b604051610a849190613b9f565b60405180910390f35b348015610a9957600080fd5b50610aa2611a75565b604051610aaf9190613d9c565b60405180910390f35b348015610ac457600080fd5b50610acd611a7b565b604051610ada9190613b40565b60405180910390f35b348015610aef57600080fd5b50610b0a6004803603810190610b059190613195565b611d70565b604051610b179190613d81565b60405180910390f35b348015610b2c57600080fd5b50610b35611de0565b604051610b429190613d9c565b60405180910390f35b348015610b5757600080fd5b50610b726004803603810190610b6d919061307c565b611e00565b604051610b7f9190613d9c565b60405180910390f35b348015610b9457600080fd5b50610b9d611e87565b604051610baa9190613d9c565b60405180910390f35b348015610bbf57600080fd5b50610bda6004803603810190610bd5919061316c565b611e92565b604051610be79190613d9c565b60405180910390f35b348015610bfc57600080fd5b50610c176004803603810190610c12919061316c565b611eb0565b604051610c249190613ae1565b60405180910390f35b348015610c3957600080fd5b50610c42611f54565b604051610c4f9190613b84565b60405180910390f35b348015610c6457600080fd5b50610c7f6004803603810190610c7a9190613053565b6121ee565b604051610c8c9190613d9c565b60405180910390f35b610c9d612206565b604051610caa9190613b40565b60405180910390f35b348015610cbf57600080fd5b50610cc8612248565b604051610cd59190613d9c565b60405180910390f35b348015610cea57600080fd5b50610cf3612252565b604051610d009190613d9c565b60405180910390f35b6000600260009054906101000a900473ffffffffffffffffffffffffffffffffffffffff1673ffffffffffffffffffffffffffffffffffffffff16610d4c612276565b73ffffffffffffffffffffffffffffffffffffffff1614610da2576040517f08c379a0000000000000000000000000000000000000000000000000000000008152600401610d9990613c41565b60405180910390fd5b600082905060008173ffffffffffffffffffffffffffffffffffffffff166370a08231306040518263ffffffff1660e01b8152600401610de29190613a2f565b60206040518083038186803b158015610dfa57600080fd5b505afa158015610e0e573d6000803e3d6000fd5b505050506040513d601f19601f82011682018060405250810190610e3291906131be565b90506000811115610eee578173ffffffffffffffffffffffffffffffffffffffff1663a9059cbb600260009054906101000a900473ffffffffffffffffffffffffffffffffffffffff16836040518363ffffffff1660e01b8152600401610e9a929190613ab8565b602060405180830381600087803b158015610eb457600080fd5b505af1158015610ec8573d6000803e3d6000fd5b505050506040513d601f19601f82011682018060405250810190610eec9190613143565b505b600192505050919050565b60018054610f0690614034565b80601f0160208091040260200160405190810160405280929190818152602001828054610f3290614034565b8015610f7f5780601f10610f5457610100808354040283529160200191610f7f565b820191906000526020600020905b815481529060010190602001808311610f6257829003601f168201915b505050505081565b6000610f9b610f9461227e565b8484612286565b6001905092915050565b600060026000541415610fed576040517f08c379a0000000000000000000000000000000000000000000000000000000008152600401610fe490613d41565b60405180910390fd5b6002600081905550610ffd611716565b61103c576040517f08c379a000000000000000000000000000000000000000000000000000000000815260040161103390613c61565b60405180910390fd5b60086000600554815260200190815260200160002060040160009054906101000a900460ff16156110a2576040517f08c379a000000000000000000000000000000000000000000000000000000000815260040161109990613d01565b60405180910390fd5b6110aa612451565b6008600060055481526020019081526020016000206001018190555060006110d0612459565b90506000801b81141561113857600660008154809291906110f090614066565b91905055507fe0dbc9529120eb99dfdd738608a453baef8223964340a20ebbc2d79558ea1f9a600082604051611127929190613b5b565b60405180910390a1809150506111a6565b806008600060055481526020019081526020016000206003018190555061115d6124ab565b50611166612675565b507fe0dbc9529120eb99dfdd738608a453baef8223964340a20ebbc2d79558ea1f9a600182604051611199929190613b5b565b60405180910390a1809150505b600160008190555090565b6000600360009054906101000a900473ffffffffffffffffffffffffffffffffffffffff16905090565b7f000000000000000000000000000000000000000000000000000000000000000081565b60007f0000000000000000000000000000000000000000000000000000000000000000600a61122e9190613f14565b905090565b6000600e54905090565b60006008600060018152602001908152602001600020600301546017600084815260200190815260200160002054149050919050565b6000611280848484612696565b6000600d60008673ffffffffffffffffffffffffffffffffffffffff1673ffffffffffffffffffffffffffffffffffffffff16815260200190815260200160002060006112cb61227e565b73ffffffffffffffffffffffffffffffffffffffff1673ffffffffffffffffffffffffffffffffffffffff1681526020019081526020016000205490508281101561134b576040517f08c379a000000000000000000000000000000000000000000000000000000000815260040161134290613ca1565b60405180910390fd5b6113688561135761227e565b85846113639190613f6e565b612286565b60019150509392505050565b670de0b6b3a764000081565b60006012905090565b600060086000600554815260200190815260200160002060030154905090565b600061144b6113b661227e565b8484600d60006113c461227e565b73ffffffffffffffffffffffffffffffffffffffff1673ffffffffffffffffffffffffffffffffffffffff16815260200190815260200160002060008873ffffffffffffffffffffffffffffffffffffffff1673ffffffffffffffffffffffffffffffffffffffff168152602001908152602001600020546114469190613e8d565b612286565b6001905092915050565b600060086000600554815260200190815260200160002060020154905090565b600260009054906101000a900473ffffffffffffffffffffffffffffffffffffffff1681565b6060600a600083815260200190815260200160002060006114ba612276565b73ffffffffffffffffffffffffffffffffffffffff1673ffffffffffffffffffffffffffffffffffffffff16815260200190815260200160002080548060200260200160405190810160405280929190818152602001828054801561153e57602002820191906000526020600020905b81548152602001906001019080831161152a575b50505050509050919050565b6000600754905090565b6000600c60008373ffffffffffffffffffffffffffffffffffffffff1673ffffffffffffffffffffffffffffffffffffffff168152602001908152602001600020549050919050565b6115a5612eed565b6040518060a001604052806115b8612918565b815260200160056115c7612918565b6115d191906140b9565b8152602001438152602001428152602001600754815250905090565b600060096000838152602001908152602001600020600101549050919050565b6000600b600061161b612276565b73ffffffffffffffffffffffffffffffffffffffff1673ffffffffffffffffffffffffffffffffffffffff16815260200190815260200160002054905090565b600060176000838152602001908152602001600020549050919050565b60075481565b60606010805461168d90614034565b80601f01602080910402602001604051908101604052809291908181526020018280546116b990614034565b80156117065780601f106116db57610100808354040283529160200191611706565b820191906000526020600020905b8154815290600101906020018083116116e957829003601f168201915b5050505050905090565b60065481565b60007f00000000000000000000000000000000000000000000000000000000000000006008600060055481526020019081526020016000206001015461175a612451565b6117649190613f6e565b1015905090565b600360009054906101000a900473ffffffffffffffffffffffffffffffffffffffff1681565b600060086000600554815260200190815260200160002060010154905090565b600080600d60006117c061227e565b73ffffffffffffffffffffffffffffffffffffffff1673ffffffffffffffffffffffffffffffffffffffff16815260200190815260200160002060008573ffffffffffffffffffffffffffffffffffffffff1673ffffffffffffffffffffffffffffffffffffffff1681526020019081526020016000205490508281101561187d576040517f08c379a000000000000000000000000000000000000000000000000000000000815260040161187490613d61565b60405180910390fd5b61189a61188861227e565b8585846118959190613f6e565b612286565b600191505092915050565b7f000000000000000000000000000000000000000000000000000000000000000081565b60006118dd6118d661227e565b8484612696565b6001905092915050565b60008060001b600860006005548152602001908152602001600020600301541415905090565b60176020528060005260406000206000915090505481565b600a602052826000526040600020602052816000526040600020818154811061194d57600080fd5b9060005260206000200160009250925050505481565b6000600554905090565b600060086000600554815260200190815260200160002060040160009054906101000a900460ff16905090565b6000600b60008373ffffffffffffffffffffffffffffffffffffffff1673ffffffffffffffffffffffffffffffffffffffff168152602001908152602001600020549050919050565b6060600f80546119f290614034565b80601f0160208091040260200160405190810160405280929190818152602001828054611a1e90614034565b8015611a6b5780601f10611a4057610100808354040283529160200191611a6b565b820191906000526020600020905b815481529060010190602001808311611a4e57829003601f168201915b5050505050905090565b60055481565b600060026000541415611ac3576040517f08c379a0000000000000000000000000000000000000000000000000000000008152600401611aba90613d41565b60405180910390fd5b60026000819055506000600b6000611ad9612276565b73ffffffffffffffffffffffffffffffffffffffff1673ffffffffffffffffffffffffffffffffffffffff168152602001908152602001600020541415611b55576040517f08c379a0000000000000000000000000000000000000000000000000000000008152600401611b4c90613c81565b60405180910390fd5b6000600b6000611b63612276565b73ffffffffffffffffffffffffffffffffffffffff1673ffffffffffffffffffffffffffffffffffffffff1681526020019081526020016000205490506000600b6000611bae612276565b73ffffffffffffffffffffffffffffffffffffffff1673ffffffffffffffffffffffffffffffffffffffff16815260200190815260200160002081905550600460009054906101000a900473ffffffffffffffffffffffffffffffffffffffff1673ffffffffffffffffffffffffffffffffffffffff1663a9059cbb611c32612276565b836040518363ffffffff1660e01b8152600401611c50929190613ab8565b602060405180830381600087803b158015611c6a57600080fd5b505af1158015611c7e573d6000803e3d6000fd5b505050506040513d601f19601f82011682018060405250810190611ca29190613143565b506000600b6000611cb1612276565b73ffffffffffffffffffffffffffffffffffffffff1673ffffffffffffffffffffffffffffffffffffffff1681526020019081526020016000205414611d20577f4e487b7100000000000000000000000000000000000000000000000000000000600052600160045260246000fd5b7f481007a75a4407f69a4ebcf25782e3537f6d76c13b46f71db08ae80c2b699e07611d49612276565b82604051611d58929190613ab8565b60405180910390a16001915050600160008190555090565b611d78612f0f565b600860008381526020019081526020016000206040518060a0016040529081600082015481526020016001820154815260200160028201548152602001600382015481526020016004820160009054906101000a900460ff1615151515815250509050919050565b600060086000600554815260200190815260200160002060000154905090565b6000600d60008473ffffffffffffffffffffffffffffffffffffffff1673ffffffffffffffffffffffffffffffffffffffff16815260200190815260200160002060008373ffffffffffffffffffffffffffffffffffffffff1673ffffffffffffffffffffffffffffffffffffffff16815260200190815260200160002054905092915050565b666a94d74f43000081565b60096020528060005260406000206000915090508060010154905081565b606060096000838152602001908152602001600020600001805480602002602001604051908101604052809291908181526020018280548015611f4857602002820191906000526020600020905b8160009054906101000a900473ffffffffffffffffffffffffffffffffffffffff1673ffffffffffffffffffffffffffffffffffffffff1681526020019060010190808311611efe575b50505050509050919050565b600080151560086000600554815260200190815260200160002060040160009054906101000a900460ff16151514611fc1576040517f08c379a0000000000000000000000000000000000000000000000000000000008152600401611fb890613d21565b60405180910390fd5b600460009054906101000a900473ffffffffffffffffffffffffffffffffffffffff1673ffffffffffffffffffffffffffffffffffffffff166323b872dd612007612276565b307f00000000000000000000000000000000000000000000000000000000000000006040518463ffffffff1660e01b815260040161204793929190613a4a565b602060405180830381600087803b15801561206157600080fd5b505af1158015612075573d6000803e3d6000fd5b505050506040513d601f19601f820116820180604052508101906120999190613143565b50600760008154809291906120ad90614066565b91905055507f000000000000000000000000000000000000000000000000000000000000000060086000600554815260200190815260200160002060020160008282546120fa9190613e8d565b92505081905550600061210b61294f565b9050600a60006005548152602001908152602001600020600061212c612276565b73ffffffffffffffffffffffffffffffffffffffff1673ffffffffffffffffffffffffffffffffffffffff1681526020019081526020016000208190806001815401808255809150506001900390600052602060002001600090919091909150557f1a68cfba6503f189182fd0e12b64a6c8b19d129ee1bb7aba124ab08d8a57e4686121b6612276565b82600860006005548152602001908152602001600020600201546040516121df93929190613a81565b60405180910390a18091505090565b600b6020528060005260406000206000915090505481565b6000612210611f54565b601760006018548152602001908152602001600020819055506018600081548092919061223c90614066565b91905055506001905090565b6000600654905090565b7f000000000000000000000000000000000000000000000000000000000000000081565b600033905090565b600033905090565b600073ffffffffffffffffffffffffffffffffffffffff168373ffffffffffffffffffffffffffffffffffffffff1614156122f6576040517f08c379a00000000000000000000000000000000000000000000000000000000081526004016122ed90613ce1565b60405180910390fd5b600073ffffffffffffffffffffffffffffffffffffffff168273ffffffffffffffffffffffffffffffffffffffff161415612366576040517f08c379a000000000000000000000000000000000000000000000000000000000815260040161235d90613be1565b60405180910390fd5b80600d60008573ffffffffffffffffffffffffffffffffffffffff1673ffffffffffffffffffffffffffffffffffffffff16815260200190815260200160002060008473ffffffffffffffffffffffffffffffffffffffff1673ffffffffffffffffffffffffffffffffffffffff168152602001908152602001600020819055508173ffffffffffffffffffffffffffffffffffffffff168373ffffffffffffffffffffffffffffffffffffffff167f8c5be1e5ebec7d5bd14f71427d1e84f3dd0314c0f7b2291e5b200ac8c7c3b925836040516124449190613d9c565b60405180910390a3505050565b600042905090565b600080612464612b5f565b9050600061247182612ba4565b905060006009600083815260200190815260200160002060000180549050111561249f5780925050506124a8565b6000801b925050505b90565b6000600160086000600554815260200190815260200160002060040160006101000a81548160ff021916908315150217905550600060086000600554815260200190815260200160002060030154905060006009600083815260200190815260200160002060000180548060200260200160405190810160405280929190818152602001828054801561259357602002820191906000526020600020905b8160009054906101000a900473ffffffffffffffffffffffffffffffffffffffff1673ffffffffffffffffffffffffffffffffffffffff1681526020019060010190808311612549575b5050505050905060006125a4612be1565b905060006125b28285612c73565b905060005b83518110156126695781600b60008684815181106125fe577f4e487b7100000000000000000000000000000000000000000000000000000000600052603260045260246000fd5b602002602001015173ffffffffffffffffffffffffffffffffffffffff1673ffffffffffffffffffffffffffffffffffffffff168152602001908152602001600020600082825461264f9190613e8d565b92505081905550808061266190614066565b9150506125b7565b50600194505050505090565b600080600681905550600060078190555061268e612d4e565b506001905090565b600073ffffffffffffffffffffffffffffffffffffffff168373ffffffffffffffffffffffffffffffffffffffff161415612706576040517f08c379a00000000000000000000000000000000000000000000000000000000081526004016126fd90613cc1565b60405180910390fd5b600073ffffffffffffffffffffffffffffffffffffffff168273ffffffffffffffffffffffffffffffffffffffff161415612776576040517f08c379a000000000000000000000000000000000000000000000000000000000815260040161276d90613bc1565b60405180910390fd5b612781838383612eb4565b6000600c60008573ffffffffffffffffffffffffffffffffffffffff1673ffffffffffffffffffffffffffffffffffffffff16815260200190815260200160002054905081811015612808576040517f08c379a00000000000000000000000000000000000000000000000000000000081526004016127ff90613c21565b60405180910390fd5b81816128149190613f6e565b600c60008673ffffffffffffffffffffffffffffffffffffffff1673ffffffffffffffffffffffffffffffffffffffff1681526020019081526020016000208190555081600c60008573ffffffffffffffffffffffffffffffffffffffff1673ffffffffffffffffffffffffffffffffffffffff16815260200190815260200160002060008282546128a69190613e8d565b925050819055508273ffffffffffffffffffffffffffffffffffffffff168473ffffffffffffffffffffffffffffffffffffffff167fddf252ad1be2c89b69c2b068fc378daa952ba7f163c4a11628f55a4df523b3ef8460405161290a9190613d9c565b60405180910390a350505050565b60004243600754604051602001612931939291906139f2565b6040516020818303038152906040528051906020012060001c905090565b60008061295a612b5f565b9050600061296782612ba4565b9050600060096000838152602001908152602001600020600001805490501115612a1357600960008281526020019081526020016000206000016129a9612276565b9080600181540180825580915050600190039060005260206000200160009091909190916101000a81548173ffffffffffffffffffffffffffffffffffffffff021916908373ffffffffffffffffffffffffffffffffffffffff1602179055508092505050612b5c565b6000600167ffffffffffffffff811115612a56577f4e487b7100000000000000000000000000000000000000000000000000000000600052604160045260246000fd5b604051908082528060200260200182016040528015612a845781602001602082028036833780820191505090505b509050612a8f612276565b81600081518110612ac9577f4e487b7100000000000000000000000000000000000000000000000000000000600052603260045260246000fd5b602002602001019073ffffffffffffffffffffffffffffffffffffffff16908173ffffffffffffffffffffffffffffffffffffffff1681525050604051806040016040528082815260200184815250600960008481526020019081526020016000206000820151816000019080519060200190612b47929190612f43565b50602082015181600101559050508193505050505b90565b600080612b6a612918565b905060007f000000000000000000000000000000000000000000000000000000000000000082612b9a91906140b9565b9050809250505090565b60008060055460065484604051602001612bc0939291906139f2565b60405160208183030381529060405280519060200120905080915050919050565b6000806008600060055481526020019081526020016000206002015490506000612c0a82612eb9565b905060008183612c1a9190613f6e565b9050600860006005548152602001908152602001600020600201548110612c6a577f4e487b7100000000000000000000000000000000000000000000000000000000600052600160045260246000fd5b80935050505090565b6000806009600084815260200190815260200160002060000180549050905060008460086000600554815260200190815260200160002060020154612cb89190613f6e565b905080600b6000600260009054906101000a900473ffffffffffffffffffffffffffffffffffffffff1673ffffffffffffffffffffffffffffffffffffffff1673ffffffffffffffffffffffffffffffffffffffff1681526020019081526020016000206000828254612d2b9190613e8d565b9250508190555060008286612d409190613ee3565b905080935050505092915050565b6000806005541115612dc05760086000600554815260200190815260200160002060040160009054906101000a900460ff16612dbf576040517f08c379a0000000000000000000000000000000000000000000000000000000008152600401612db690613c01565b60405180910390fd5b5b60056000815480929190612dd390614066565b91905055506040518060a00160405280612deb612451565b8152602001612df8612451565b8152602001600081526020016000801b8152602001600015158152506008600060055481526020019081526020016000206000820151816000015560208201518160010155604082015181600201556060820151816003015560808201518160040160006101000a81548160ff0219169083151502179055509050507fa35bd591310404f547e67d0f261a54d0a2a7606bf1695c5e9134f4259805eb7c600554604051612ea59190613d9c565b60405180910390a16001905090565b505050565b600080670de0b6b3a7640000666a94d74f43000084612ed89190613f14565b612ee29190613ee3565b905080915050919050565b6040518060a00160405280600590602082028036833780820191505090505090565b6040518060a00160405280600081526020016000815260200160008152602001600080191681526020016000151581525090565b828054828255906000526020600020908101928215612fbc579160200282015b82811115612fbb5782518260006101000a81548173ffffffffffffffffffffffffffffffffffffffff021916908373ffffffffffffffffffffffffffffffffffffffff16021790555091602001919060010190612f63565b5b509050612fc99190612fcd565b5090565b5b80821115612fe6576000816000905550600101612fce565b5090565b600081359050612ff981614188565b92915050565b60008151905061300e8161419f565b92915050565b600081359050613023816141b6565b92915050565b600081359050613038816141cd565b92915050565b60008151905061304d816141cd565b92915050565b60006020828403121561306557600080fd5b600061307384828501612fea565b91505092915050565b6000806040838503121561308f57600080fd5b600061309d85828601612fea565b92505060206130ae85828601612fea565b9150509250929050565b6000806000606084860312156130cd57600080fd5b60006130db86828701612fea565b93505060206130ec86828701612fea565b92505060406130fd86828701613029565b9150509250925092565b6000806040838503121561311a57600080fd5b600061312885828601612fea565b925050602061313985828601613029565b9150509250929050565b60006020828403121561315557600080fd5b600061316384828501612fff565b91505092915050565b60006020828403121561317e57600080fd5b600061318c84828501613014565b91505092915050565b6000602082840312156131a757600080fd5b60006131b584828501613029565b91505092915050565b6000602082840312156131d057600080fd5b60006131de8482850161303e565b91505092915050565b6000806000606084860312156131fc57600080fd5b600061320a86828701613029565b935050602061321b86828701612fea565b925050604061322c86828701613029565b9150509250925092565b6000613242838361327e565b60208301905092915050565b600061325a83836133cd565b60208301905092915050565b600061327283836139ae565b60208301905092915050565b61328781613fa2565b82525050565b61329681613fa2565b82525050565b60006132a782613dfc565b6132b18185613e4f565b93506132bc83613dd2565b8060005b838110156132ed5781516132d48882613236565b97506132df83613e28565b9250506001810190506132c0565b5085935050505092915050565b600061330582613e07565b61330f8185613e60565b935061331a83613de2565b8060005b8381101561334b578151613332888261324e565b975061333d83613e35565b92505060018101905061331e565b5085935050505092915050565b61336181613e12565b61336b8184613e71565b925061337682613df2565b8060005b838110156133a757815161338e8782613266565b965061339983613e42565b92505060018101905061337a565b505050505050565b6133b881613fb4565b82525050565b6133c781613fb4565b82525050565b6133d681613fc0565b82525050565b6133e581613fc0565b82525050565b60006133f682613e1d565b6134008185613e7c565b9350613410818560208601614001565b61341981614177565b840191505092915050565b6000613431602383613e7c565b91507f45524332303a207472616e7366657220746f20746865207a65726f206164647260008301527f65737300000000000000000000000000000000000000000000000000000000006020830152604082019050919050565b6000613497602283613e7c565b91507f45524332303a20617070726f766520746f20746865207a65726f20616464726560008301527f73730000000000000000000000000000000000000000000000000000000000006020830152604082019050919050565b60006134fd602183613e7c565b91507f70726576696f7573206c6f747465727920686173206e6f742066696e6973686560008301527f64000000000000000000000000000000000000000000000000000000000000006020830152604082019050919050565b6000613563602683613e7c565b91507f45524332303a207472616e7366657220616d6f756e742065786365656473206260008301527f616c616e636500000000000000000000000000000000000000000000000000006020830152604082019050919050565b60006135c9601983613e7c565b91507f6d757374206265207468652066656520726563697069656e74000000000000006000830152602082019050919050565b6000613609602683613e7c565b91507f4e6f7420656e6f7567682074696d6520656c61707365642066726f6d206c617360008301527f74206472617700000000000000000000000000000000000000000000000000006020830152604082019050919050565b600061366f601d83613e7c565b91507f796f752068617665206e6f2077696e6e696e677320746f20636c61696d0000006000830152602082019050919050565b60006136af602883613e7c565b91507f45524332303a207472616e7366657220616d6f756e742065786365656473206160008301527f6c6c6f77616e63650000000000000000000000000000000000000000000000006020830152604082019050919050565b6000613715602583613e7c565b91507f45524332303a207472616e736665722066726f6d20746865207a65726f20616460008301527f64726573730000000000000000000000000000000000000000000000000000006020830152604082019050919050565b600061377b602483613e7c565b91507f45524332303a20617070726f76652066726f6d20746865207a65726f2061646460008301527f72657373000000000000000000000000000000000000000000000000000000006020830152604082019050919050565b60006137e1603083613e7c565b91507f63757272656e74206c6f7474657279206973206f7665722e20706c656173652060008301527f73746172742061206e6577206f6e652e000000000000000000000000000000006020830152604082019050919050565b6000613847603f83613e7c565b91507f612077696e6e65722068617320616c7265616479206265656e2073656c65637460008301527f65642e20706c656173652073746172742061206e6577206c6f74746572792e006020830152604082019050919050565b60006138ad601f83613e7c565b91507f5265656e7472616e637947756172643a207265656e7472616e742063616c6c006000830152602082019050919050565b60006138ed602583613e7c565b91507f45524332303a2064656372656173656420616c6c6f77616e63652062656c6f7760008301527f207a65726f0000000000000000000000000000000000000000000000000000006020830152604082019050919050565b60a08201600082015161395c60008501826139ae565b50602082015161396f60208501826139ae565b50604082015161398260408501826139ae565b50606082015161399560608501826133cd565b5060808201516139a860808501826133af565b50505050565b6139b781613fea565b82525050565b6139c681613fea565b82525050565b6139dd6139d882613fea565b6140af565b82525050565b6139ec81613ff4565b82525050565b60006139fe82866139cc565b602082019150613a0e82856139cc565b602082019150613a1e82846139cc565b602082019150819050949350505050565b6000602082019050613a44600083018461328d565b92915050565b6000606082019050613a5f600083018661328d565b613a6c602083018561328d565b613a7960408301846139bd565b949350505050565b6000606082019050613a96600083018661328d565b613aa360208301856133dc565b613ab060408301846139bd565b949350505050565b6000604082019050613acd600083018561328d565b613ada60208301846139bd565b9392505050565b60006020820190508181036000830152613afb818461329c565b905092915050565b60006020820190508181036000830152613b1d81846132fa565b905092915050565b600060a082019050613b3a6000830184613358565b92915050565b6000602082019050613b5560008301846133be565b92915050565b6000604082019050613b7060008301856133be565b613b7d60208301846133dc565b9392505050565b6000602082019050613b9960008301846133dc565b92915050565b60006020820190508181036000830152613bb981846133eb565b905092915050565b60006020820190508181036000830152613bda81613424565b9050919050565b60006020820190508181036000830152613bfa8161348a565b9050919050565b60006020820190508181036000830152613c1a816134f0565b9050919050565b60006020820190508181036000830152613c3a81613556565b9050919050565b60006020820190508181036000830152613c5a816135bc565b9050919050565b60006020820190508181036000830152613c7a816135fc565b9050919050565b60006020820190508181036000830152613c9a81613662565b9050919050565b60006020820190508181036000830152613cba816136a2565b9050919050565b60006020820190508181036000830152613cda81613708565b9050919050565b60006020820190508181036000830152613cfa8161376e565b9050919050565b60006020820190508181036000830152613d1a816137d4565b9050919050565b60006020820190508181036000830152613d3a8161383a565b9050919050565b60006020820190508181036000830152613d5a816138a0565b9050919050565b60006020820190508181036000830152613d7a816138e0565b9050919050565b600060a082019050613d966000830184613946565b92915050565b6000602082019050613db160008301846139bd565b92915050565b6000602082019050613dcc60008301846139e3565b92915050565b6000819050602082019050919050565b6000819050602082019050919050565b6000819050919050565b600081519050919050565b600081519050919050565b600060059050919050565b600081519050919050565b6000602082019050919050565b6000602082019050919050565b6000602082019050919050565b600082825260208201905092915050565b600082825260208201905092915050565b600081905092915050565b600082825260208201905092915050565b6000613e9882613fea565b9150613ea383613fea565b9250827fffffffffffffffffffffffffffffffffffffffffffffffffffffffffffffffff03821115613ed857613ed76140ea565b5b828201905092915050565b6000613eee82613fea565b9150613ef983613fea565b925082613f0957613f08614119565b5b828204905092915050565b6000613f1f82613fea565b9150613f2a83613fea565b9250817fffffffffffffffffffffffffffffffffffffffffffffffffffffffffffffffff0483118215151615613f6357613f626140ea565b5b828202905092915050565b6000613f7982613fea565b9150613f8483613fea565b925082821015613f9757613f966140ea565b5b828203905092915050565b6000613fad82613fca565b9050919050565b60008115159050919050565b6000819050919050565b600073ffffffffffffffffffffffffffffffffffffffff82169050919050565b6000819050919050565b600060ff82169050919050565b60005b8381101561401f578082015181840152602081019050614004565b8381111561402e576000848401525b50505050565b6000600282049050600182168061404c57607f821691505b602082108114156140605761405f614148565b5b50919050565b600061407182613fea565b91507fffffffffffffffffffffffffffffffffffffffffffffffffffffffffffffffff8214156140a4576140a36140ea565b5b600182019050919050565b6000819050919050565b60006140c482613fea565b91506140cf83613fea565b9250826140df576140de614119565b5b828206905092915050565b7f4e487b7100000000000000000000000000000000000000000000000000000000600052601160045260246000fd5b7f4e487b7100000000000000000000000000000000000000000000000000000000600052601260045260246000fd5b7f4e487b7100000000000000000000000000000000000000000000000000000000600052602260045260246000fd5b6000601f19601f8301169050919050565b61419181613fa2565b811461419c57600080fd5b50565b6141a881613fb4565b81146141b357600080fd5b50565b6141bf81613fc0565b81146141ca57600080fd5b50565b6141d681613fea565b81146141e157600080fd5b5056fea2646970667358221220e4769822865dfecb2084643ce17fd0cd7412fca599353dd47cb6ed60945093d864736f6c63430008000033",
  "linkReferences": {},
  "deployedLinkReferences": {}
}