{
  "_format": "hh-sol-artifact-1",
  "contractName": "ERC20Lottery",
  "sourceName": "contracts/ERC20Lottery.sol",
  "abi": [
    {
      "inputs": [
        {
          "internalType": "string",
          "name": "_name",
          "type": "string"
        },
        {
          "internalType": "uint256",
          "name": "_drawFrequency",
          "type": "uint256"
        },
        {
          "internalType": "uint256",
          "name": "_ticketPrice",
          "type": "uint256"
        },
        {
          "internalType": "uint256",
          "name": "_winChance",
          "type": "uint256"
        },
        {
          "internalType": "address",
          "name": "_tokenAddress",
          "type": "address"
        },
        {
          "internalType": "uint256",
          "name": "_fee",
          "type": "uint256"
        },
        {
          "internalType": "address",
          "name": "_feeRecipient",
          "type": "address"
        }
      ],
      "stateMutability": "nonpayable",
      "type": "constructor"
    },
    {
      "anonymous": false,
      "inputs": [
        {
          "indexed": false,
          "internalType": "bool",
          "name": "winnerSelected",
          "type": "bool"
        },
        {
          "indexed": false,
          "internalType": "bytes32",
          "name": "winningTicket",
          "type": "bytes32"
        }
      ],
      "name": "newDraw",
      "type": "event"
    },
    {
      "anonymous": false,
      "inputs": [
        {
          "indexed": false,
          "internalType": "address",
          "name": "entrant",
          "type": "address"
        },
        {
          "indexed": false,
          "internalType": "bytes32",
          "name": "ticketID",
          "type": "bytes32"
        },
        {
          "indexed": false,
          "internalType": "uint256",
          "name": "totalPot",
          "type": "uint256"
        }
      ],
      "name": "newEntry",
      "type": "event"
    },
    {
      "anonymous": false,
      "inputs": [
        {
          "indexed": false,
          "internalType": "address",
          "name": "user",
          "type": "address"
        },
        {
          "indexed": false,
          "internalType": "uint256",
          "name": "amount",
          "type": "uint256"
        }
      ],
      "name": "newPayment",
      "type": "event"
    },
    {
      "anonymous": false,
      "inputs": [
        {
          "indexed": false,
          "internalType": "uint256",
          "name": "lottoNumber",
          "type": "uint256"
        }
      ],
      "name": "newRound",
      "type": "event"
    },
    {
      "inputs": [
        {
          "internalType": "address",
          "name": "",
          "type": "address"
        }
      ],
      "name": "ERC20DebtToRecipient",
      "outputs": [
        {
          "internalType": "uint256",
          "name": "",
          "type": "uint256"
        }
      ],
      "stateMutability": "view",
      "type": "function"
    },
    {
      "inputs": [
        {
          "internalType": "address",
          "name": "newSweeper",
          "type": "address"
        }
      ],
      "name": "changeSweeper",
      "outputs": [
        {
          "internalType": "bool",
          "name": "",
          "type": "bool"
        }
      ],
      "stateMutability": "nonpayable",
      "type": "function"
    },
    {
      "inputs": [],
      "name": "currentDraw",
      "outputs": [
        {
          "internalType": "uint256",
          "name": "",
          "type": "uint256"
        }
      ],
      "stateMutability": "view",
      "type": "function"
    },
    {
      "inputs": [],
      "name": "currentLotto",
      "outputs": [
        {
          "internalType": "uint256",
          "name": "",
          "type": "uint256"
        }
      ],
      "stateMutability": "view",
      "type": "function"
    },
    {
      "inputs": [
        {
          "internalType": "address",
          "name": "",
          "type": "address"
        }
      ],
      "name": "debtToUser",
      "outputs": [
        {
          "internalType": "uint256",
          "name": "",
          "type": "uint256"
        }
      ],
      "stateMutability": "view",
      "type": "function"
    },
    {
      "inputs": [],
      "name": "draw",
      "outputs": [
        {
          "internalType": "bool",
          "name": "",
          "type": "bool"
        }
      ],
      "stateMutability": "nonpayable",
      "type": "function"
    },
    {
      "inputs": [],
      "name": "drawFrequency",
      "outputs": [
        {
          "internalType": "uint256",
          "name": "",
          "type": "uint256"
        }
      ],
      "stateMutability": "view",
      "type": "function"
    },
    {
      "inputs": [],
      "name": "enter",
      "outputs": [
        {
          "internalType": "bool",
          "name": "",
          "type": "bool"
        }
      ],
      "stateMutability": "nonpayable",
      "type": "function"
    },
    {
      "inputs": [],
      "name": "ethDecimals",
      "outputs": [
        {
          "internalType": "uint256",
          "name": "",
          "type": "uint256"
        }
      ],
      "stateMutability": "view",
      "type": "function"
    },
    {
      "inputs": [],
      "name": "fantomDebtToRecipient",
      "outputs": [
        {
          "internalType": "uint256",
          "name": "",
          "type": "uint256"
        }
      ],
      "stateMutability": "view",
      "type": "function"
    },
    {
      "inputs": [],
      "name": "fee",
      "outputs": [
        {
          "internalType": "uint256",
          "name": "",
          "type": "uint256"
        }
      ],
      "stateMutability": "view",
      "type": "function"
    },
    {
      "inputs": [],
      "name": "feeRecipient",
      "outputs": [
        {
          "internalType": "address",
          "name": "",
          "type": "address"
        }
      ],
      "stateMutability": "view",
      "type": "function"
    },
    {
      "inputs": [],
      "name": "getPaid",
      "outputs": [
        {
          "internalType": "bool",
          "name": "",
          "type": "bool"
        }
      ],
      "stateMutability": "nonpayable",
      "type": "function"
    },
    {
      "inputs": [],
      "name": "name",
      "outputs": [
        {
          "internalType": "string",
          "name": "",
          "type": "string"
        }
      ],
      "stateMutability": "view",
      "type": "function"
    },
    {
      "inputs": [],
      "name": "readyToDraw",
      "outputs": [
        {
          "internalType": "bool",
          "name": "",
          "type": "bool"
        }
      ],
      "stateMutability": "view",
      "type": "function"
    },
    {
      "inputs": [],
      "name": "self",
      "outputs": [
        {
          "internalType": "address",
          "name": "",
          "type": "address"
        }
      ],
      "stateMutability": "view",
      "type": "function"
    },
    {
      "inputs": [
        {
          "internalType": "address",
          "name": "tokenToSweep",
          "type": "address"
        }
      ],
      "name": "sweep",
      "outputs": [
        {
          "internalType": "bool",
          "name": "",
          "type": "bool"
        }
      ],
      "stateMutability": "nonpayable",
      "type": "function"
    },
    {
      "inputs": [],
      "name": "sweeper",
      "outputs": [
        {
          "internalType": "address",
          "name": "",
          "type": "address"
        }
      ],
      "stateMutability": "view",
      "type": "function"
    },
    {
      "inputs": [],
      "name": "ticketCounter",
      "outputs": [
        {
          "internalType": "uint256",
          "name": "",
          "type": "uint256"
        }
      ],
      "stateMutability": "view",
      "type": "function"
    },
    {
      "inputs": [],
      "name": "ticketPrice",
      "outputs": [
        {
          "internalType": "uint256",
          "name": "",
          "type": "uint256"
        }
      ],
      "stateMutability": "view",
      "type": "function"
    },
    {
      "inputs": [
        {
          "internalType": "bytes32",
          "name": "",
          "type": "bytes32"
        }
      ],
      "name": "tickets",
      "outputs": [
        {
          "internalType": "uint256",
          "name": "ticketNumber",
          "type": "uint256"
        }
      ],
      "stateMutability": "view",
      "type": "function"
    },
    {
      "inputs": [],
      "name": "tokenAddress",
      "outputs": [
        {
          "internalType": "address",
          "name": "",
          "type": "address"
        }
      ],
      "stateMutability": "view",
      "type": "function"
    },
    {
      "inputs": [],
      "name": "totalValuePlayed",
      "outputs": [
        {
          "internalType": "uint256",
          "name": "",
          "type": "uint256"
        }
      ],
      "stateMutability": "view",
      "type": "function"
    },
    {
      "inputs": [
        {
          "internalType": "uint256",
          "name": "",
          "type": "uint256"
        },
        {
          "internalType": "address",
          "name": "",
          "type": "address"
        },
        {
          "internalType": "uint256",
          "name": "",
          "type": "uint256"
        }
      ],
      "name": "userTickets",
      "outputs": [
        {
          "internalType": "bytes32",
          "name": "",
          "type": "bytes32"
        }
      ],
      "stateMutability": "view",
      "type": "function"
    },
    {
      "inputs": [],
      "name": "viewCurrentLottery",
      "outputs": [
        {
          "internalType": "uint256",
          "name": "",
          "type": "uint256"
        }
      ],
      "stateMutability": "view",
      "type": "function"
    },
    {
      "inputs": [],
      "name": "viewDrawFrequency",
      "outputs": [
        {
          "internalType": "uint256",
          "name": "",
          "type": "uint256"
        }
      ],
      "stateMutability": "view",
      "type": "function"
    },
    {
      "inputs": [],
      "name": "viewFantomCollected",
      "outputs": [
        {
          "internalType": "uint256",
          "name": "",
          "type": "uint256"
        }
      ],
      "stateMutability": "view",
      "type": "function"
    },
    {
      "inputs": [
        {
          "internalType": "uint256",
          "name": "lottoNumber",
          "type": "uint256"
        }
      ],
      "name": "viewLastDrawTime",
      "outputs": [
        {
          "internalType": "uint256",
          "name": "",
          "type": "uint256"
        }
      ],
      "stateMutability": "view",
      "type": "function"
    },
    {
      "inputs": [],
      "name": "viewName",
      "outputs": [
        {
          "internalType": "string",
          "name": "",
          "type": "string"
        }
      ],
      "stateMutability": "view",
      "type": "function"
    },
    {
      "inputs": [
        {
          "internalType": "uint256",
          "name": "lottoNumber",
          "type": "uint256"
        }
      ],
      "name": "viewStartTime",
      "outputs": [
        {
          "internalType": "uint256",
          "name": "",
          "type": "uint256"
        }
      ],
      "stateMutability": "view",
      "type": "function"
    },
    {
      "inputs": [
        {
          "internalType": "bytes32",
          "name": "ticketID",
          "type": "bytes32"
        }
      ],
      "name": "viewTicketHolders",
      "outputs": [
        {
          "internalType": "address[]",
          "name": "",
          "type": "address[]"
        }
      ],
      "stateMutability": "view",
      "type": "function"
    },
    {
      "inputs": [
        {
          "internalType": "bytes32",
          "name": "ticketID",
          "type": "bytes32"
        }
      ],
      "name": "viewTicketNumber",
      "outputs": [
        {
          "internalType": "uint256",
          "name": "",
          "type": "uint256"
        }
      ],
      "stateMutability": "view",
      "type": "function"
    },
    {
      "inputs": [],
      "name": "viewTicketPrice",
      "outputs": [
        {
          "internalType": "uint256",
          "name": "",
          "type": "uint256"
        }
      ],
      "stateMutability": "view",
      "type": "function"
    },
    {
      "inputs": [],
      "name": "viewTokenAddress",
      "outputs": [
        {
          "internalType": "address",
          "name": "",
          "type": "address"
        }
      ],
      "stateMutability": "view",
      "type": "function"
    },
    {
      "inputs": [
        {
          "internalType": "address",
          "name": "_token",
          "type": "address"
        }
      ],
      "name": "viewTokensCollected",
      "outputs": [
        {
          "internalType": "uint256",
          "name": "",
          "type": "uint256"
        }
      ],
      "stateMutability": "view",
      "type": "function"
    },
    {
      "inputs": [
        {
          "internalType": "uint256",
          "name": "lottoNumber",
          "type": "uint256"
        }
      ],
      "name": "viewTotalPot",
      "outputs": [
        {
          "internalType": "uint256",
          "name": "",
          "type": "uint256"
        }
      ],
      "stateMutability": "view",
      "type": "function"
    },
    {
      "inputs": [
        {
          "internalType": "uint256",
          "name": "lottoNumber",
          "type": "uint256"
        }
      ],
      "name": "viewUserTicketList",
      "outputs": [
        {
          "internalType": "bytes32[]",
          "name": "",
          "type": "bytes32[]"
        }
      ],
      "stateMutability": "view",
      "type": "function"
    },
    {
      "inputs": [],
      "name": "viewWinChance",
      "outputs": [
        {
          "internalType": "uint256",
          "name": "",
          "type": "uint256"
        }
      ],
      "stateMutability": "view",
      "type": "function"
    },
    {
      "inputs": [
        {
          "internalType": "uint256",
          "name": "lottoNumber",
          "type": "uint256"
        }
      ],
      "name": "viewWinningTicket",
      "outputs": [
        {
          "internalType": "bytes32",
          "name": "",
          "type": "bytes32"
        }
      ],
      "stateMutability": "view",
      "type": "function"
    },
    {
      "inputs": [],
      "name": "viewWinnings",
      "outputs": [
        {
          "internalType": "uint256",
          "name": "",
          "type": "uint256"
        }
      ],
      "stateMutability": "view",
      "type": "function"
    },
    {
      "inputs": [],
      "name": "winChance",
      "outputs": [
        {
          "internalType": "uint256",
          "name": "",
          "type": "uint256"
        }
      ],
      "stateMutability": "view",
      "type": "function"
    },
    {
      "inputs": [
        {
          "internalType": "address",
          "name": "ERC20Address",
          "type": "address"
        }
      ],
      "name": "withdrawERC20",
      "outputs": [
        {
          "internalType": "bool",
          "name": "",
          "type": "bool"
        }
      ],
      "stateMutability": "nonpayable",
      "type": "function"
    },
    {
      "inputs": [],
      "name": "withdrawFantom",
      "outputs": [
        {
          "internalType": "bool",
          "name": "",
          "type": "bool"
        }
      ],
      "stateMutability": "nonpayable",
      "type": "function"
    }
  ],
  "bytecode": "0x6080604052600060055560006006556000600755600060085530600f60006101000a81548173ffffffffffffffffffffffffffffffffffffffff021916908373ffffffffffffffffffffffffffffffffffffffff1602179055503480156200006657600080fd5b50604051620036653803806200366583398181016040528101906200008c91906200041a565b6200009c620001b060201b60201c565b6000806101000a81548173ffffffffffffffffffffffffffffffffffffffff021916908373ffffffffffffffffffffffffffffffffffffffff1602179055508660019080519060200190620000f3929190620002ca565b5085600281905550846003819055508360048190555081600d8190555080600e60006101000a81548173ffffffffffffffffffffffffffffffffffffffff021916908373ffffffffffffffffffffffffffffffffffffffff16021790555082601260006101000a81548173ffffffffffffffffffffffffffffffffffffffff021916908373ffffffffffffffffffffffffffffffffffffffff160217905550620001a2620001b860201b60201c565b50505050505050506200072e565b600033905090565b600060056000815480929190620001cf906200061f565b91905055506040518060a00160405280620001ef620002c260201b60201c565b815260200162000204620002c260201b60201c565b8152602001600081526020016000801b8152602001600015158152506009600060055481526020019081526020016000206000820151816000015560208201518160010155604082015181600201556060820151816003015560808201518160040160006101000a81548160ff0219169083151502179055509050507fa35bd591310404f547e67d0f261a54d0a2a7606bf1695c5e9134f4259805eb7c600554604051620002b39190620004f1565b60405180910390a16001905090565b600042905090565b828054620002d890620005e9565b90600052602060002090601f016020900481019282620002fc576000855562000348565b82601f106200031757805160ff191683800117855562000348565b8280016001018555821562000348579182015b82811115620003475782518255916020019190600101906200032a565b5b5090506200035791906200035b565b5090565b5b80821115620003765760008160009055506001016200035c565b5090565b6000620003916200038b8462000542565b6200050e565b905082815260208101848484011115620003aa57600080fd5b620003b7848285620005b3565b509392505050565b600081519050620003d081620006fa565b92915050565b600082601f830112620003e857600080fd5b8151620003fa8482602086016200037a565b91505092915050565b600081519050620004148162000714565b92915050565b600080600080600080600060e0888a0312156200043657600080fd5b600088015167ffffffffffffffff8111156200045157600080fd5b6200045f8a828b01620003d6565b9750506020620004728a828b0162000403565b9650506040620004858a828b0162000403565b9550506060620004988a828b0162000403565b9450506080620004ab8a828b01620003bf565b93505060a0620004be8a828b0162000403565b92505060c0620004d18a828b01620003bf565b91505092959891949750929550565b620004eb81620005a9565b82525050565b6000602082019050620005086000830184620004e0565b92915050565b6000604051905081810181811067ffffffffffffffff82111715620005385762000537620006cb565b5b8060405250919050565b600067ffffffffffffffff82111562000560576200055f620006cb565b5b601f19601f8301169050602081019050919050565b6000620005828262000589565b9050919050565b600073ffffffffffffffffffffffffffffffffffffffff82169050919050565b6000819050919050565b60005b83811015620005d3578082015181840152602081019050620005b6565b83811115620005e3576000848401525b50505050565b600060028204905060018216806200060257607f821691505b602082108114156200061957620006186200069c565b5b50919050565b60006200062c82620005a9565b91507fffffffffffffffffffffffffffffffffffffffffffffffffffffffffffffffff8214156200066257620006616200066d565b5b600182019050919050565b7f4e487b7100000000000000000000000000000000000000000000000000000000600052601160045260246000fd5b7f4e487b7100000000000000000000000000000000000000000000000000000000600052602260045260246000fd5b7f4e487b7100000000000000000000000000000000000000000000000000000000600052604160045260246000fd5b620007058162000575565b81146200071157600080fd5b50565b6200071f81620005a9565b81146200072b57600080fd5b50565b612f27806200073e6000396000f3fe608060405234801561001057600080fd5b50600436106102695760003560e01c80638c4d59d011610151578063c6289f25116100c3578063e04cac4711610087578063e04cac471461079c578063e56d71bc146107ba578063e8665a0c146107ea578063e97dcb6214610808578063ebec936214610826578063f4f3b2001461085657610269565b8063c6289f25146106e2578063cd15cf6114610712578063cf41d6f814610730578063ddca3f431461074e578063df0dd0d51461076c57610269565b80639d76ea58116101155780639d76ea58146105f8578063a4b73a6d14610616578063a5a4054414610646578063b5f10b3814610664578063b858bb6514610682578063b91c86f1146106b257610269565b80638c4d59d0146105625780639189a59e1461058057806397ba287c1461059e5780639ad572f5146105bc5780639cd5b0d6146105da57610269565b806346904840116101ea5780636dbeffbe116101ae5780636dbeffbe146104785780637104ddb2146104965780637b5015c8146104b45780637fb95ce2146104e457806386ae228f14610514578063876879521461054457610269565b806346904840146103be5780634cec4ed1146103dc57806359acaa8c1461040c5780635d269be01461042a578063636ad6a61461045a57610269565b80631209b1f6116102315780631209b1f6146103165780631e6cccf9146103345780632459c1fe1461035257806330bd8d691461038257806340c87c18146103a057610269565b806301681a621461026e57806306fdde031461029e578063093b13a7146102bc5780630eecae21146102da5780630f17ed02146102f8575b600080fd5b610288600480360381019061028391906123ac565b610886565b604051610295919061299d565b60405180910390f35b6102a6610a6d565b6040516102b391906129fc565b60405180910390f35b6102c4610afb565b6040516102d191906128a7565b60405180910390f35b6102e2610b25565b6040516102ef919061299d565b60405180910390f35b610300610b87565b60405161030d9190612afe565b60405180910390f35b61031e610b91565b60405161032b9190612afe565b60405180910390f35b61033c610b97565b6040516103499190612afe565b60405180910390f35b61036c600480360381019061036791906123ac565b610ba1565b6040516103799190612afe565b60405180910390f35b61038a610bb9565b6040516103979190612afe565b60405180910390f35b6103a8610bc5565b6040516103b59190612afe565b60405180910390f35b6103c6610bcf565b6040516103d391906128a7565b60405180910390f35b6103f660048036038101906103f191906123ac565b610bf5565b604051610403919061299d565b60405180910390f35b610414610cd6565b6040516104219190612afe565b60405180910390f35b610444600480360381019061043f9190612427565b610cdc565b6040516104519190612afe565b60405180910390f35b610462610cfc565b60405161046f9190612afe565b60405180910390f35b610480610d06565b60405161048d9190612afe565b60405180910390f35b61049e610d0c565b6040516104ab91906128a7565b60405180910390f35b6104ce60048036038101906104c99190612427565b610d32565b6040516104db9190612afe565b60405180910390f35b6104fe60048036038101906104f991906123ac565b610d52565b60405161050b9190612afe565b60405180910390f35b61052e600480360381019061052991906123fe565b610d9b565b60405161053b9190612afe565b60405180910390f35b61054c610dbb565b6040516105599190612afe565b60405180910390f35b61056a610e09565b6040516105779190612afe565b60405180910390f35b610588610e0f565b60405161059591906128a7565b60405180910390f35b6105a6610e33565b6040516105b39190612afe565b60405180910390f35b6105c4610e39565b6040516105d1919061299d565b60405180910390f35b6105e2610e70565b6040516105ef9190612afe565b60405180910390f35b610600610e76565b60405161060d91906128a7565b60405180910390f35b610630600480360381019061062b9190612427565b610e9c565b60405161063d9190612afe565b60405180910390f35b61064e610ebc565b60405161065b9190612afe565b60405180910390f35b61066c610ec2565b60405161067991906129fc565b60405180910390f35b61069c60048036038101906106979190612479565b610f54565b6040516106a991906129e1565b60405180910390f35b6106cc60048036038101906106c79190612427565b610f92565b6040516106d9919061297b565b60405180910390f35b6106fc60048036038101906106f79190612427565b61103a565b60405161070991906129e1565b60405180910390f35b61071a61105a565b6040516107279190612afe565b60405180910390f35b610738611060565b604051610745919061299d565b60405180910390f35b6107566111ff565b6040516107639190612afe565b60405180910390f35b610786600480360381019061078191906123fe565b611205565b6040516107939190612afe565b60405180910390f35b6107a4611223565b6040516107b19190612afe565b60405180910390f35b6107d460048036038101906107cf91906123fe565b61122d565b6040516107e19190612959565b60405180910390f35b6107f26112d1565b6040516107ff919061299d565b60405180910390f35b610810611406565b60405161081d919061299d565b60405180910390f35b610840600480360381019061083b91906123ac565b61151c565b60405161084d9190612afe565b60405180910390f35b610870600480360381019061086b91906123ac565b611534565b60405161087d919061299d565b60405180910390f35b60008060009054906101000a900473ffffffffffffffffffffffffffffffffffffffff1673ffffffffffffffffffffffffffffffffffffffff166108c861178b565b73ffffffffffffffffffffffffffffffffffffffff161461091e576040517f08c379a000000000000000000000000000000000000000000000000000000000815260040161091590612a9e565b60405180910390fd5b60008273ffffffffffffffffffffffffffffffffffffffff166370a08231306040518263ffffffff1660e01b815260040161095991906128a7565b60206040518083038186803b15801561097157600080fd5b505afa158015610985573d6000803e3d6000fd5b505050506040513d601f19601f820116820180604052508101906109a99190612450565b90506000811115610a63578273ffffffffffffffffffffffffffffffffffffffff1663a9059cbb60008054906101000a900473ffffffffffffffffffffffffffffffffffffffff16836040518363ffffffff1660e01b8152600401610a0f929190612930565b602060405180830381600087803b158015610a2957600080fd5b505af1158015610a3d573d6000803e3d6000fd5b505050506040513d601f19601f82011682018060405250810190610a6191906123d5565b505b6001915050919050565b60018054610a7a90612d41565b80601f0160208091040260200160405190810160405280929190818152602001828054610aa690612d41565b8015610af35780601f10610ac857610100808354040283529160200191610af3565b820191906000526020600020905b815481529060010190602001808311610ad657829003601f168201915b505050505081565b6000601260009054906101000a900473ffffffffffffffffffffffffffffffffffffffff16905090565b6000610b2f610e39565b610b6e576040517f08c379a0000000000000000000000000000000000000000000000000000000008152600401610b6590612a1e565b60405180910390fd5b610b76611793565b50610b7f6117c0565b506001905090565b6000600554905090565b60035481565b6000601054905090565b60116020528060005260406000206000915090505481565b670de0b6b3a764000081565b6000600454905090565b600e60009054906101000a900473ffffffffffffffffffffffffffffffffffffffff1681565b60008060009054906101000a900473ffffffffffffffffffffffffffffffffffffffff1673ffffffffffffffffffffffffffffffffffffffff16610c3761178b565b73ffffffffffffffffffffffffffffffffffffffff1614610c8d576040517f08c379a0000000000000000000000000000000000000000000000000000000008152600401610c8490612a3e565b60405180910390fd5b816000806101000a81548173ffffffffffffffffffffffffffffffffffffffff021916908373ffffffffffffffffffffffffffffffffffffffff16021790555060019050919050565b60105481565b600060096000838152602001908152602001600020600101549050919050565b6000600354905090565b60045481565b600f60009054906101000a900473ffffffffffffffffffffffffffffffffffffffff1681565b600060096000838152602001908152602001600020600201549050919050565b6000601160008373ffffffffffffffffffffffffffffffffffffffff1673ffffffffffffffffffffffffffffffffffffffff168152602001908152602001600020549050919050565b6000600a6000838152602001908152602001600020600101549050919050565b6000600c6000610dc961178b565b73ffffffffffffffffffffffffffffffffffffffff1673ffffffffffffffffffffffffffffffffffffffff16815260200190815260200160002054905090565b60075481565b60008054906101000a900473ffffffffffffffffffffffffffffffffffffffff1681565b60065481565b600060025460096000600554815260200190815260200160002060010154610e5f6118a6565b610e699190612c88565b1015905090565b60085481565b601260009054906101000a900473ffffffffffffffffffffffffffffffffffffffff1681565b600060096000838152602001908152602001600020600001549050919050565b60025481565b606060018054610ed190612d41565b80601f0160208091040260200160405190810160405280929190818152602001828054610efd90612d41565b8015610f4a5780601f10610f1f57610100808354040283529160200191610f4a565b820191906000526020600020905b815481529060010190602001808311610f2d57829003601f168201915b5050505050905090565b600b6020528260005260406000206020528160005260406000208181548110610f7c57600080fd5b9060005260206000200160009250925050505481565b6060600b600083815260200190815260200160002060003373ffffffffffffffffffffffffffffffffffffffff1673ffffffffffffffffffffffffffffffffffffffff16815260200190815260200160002080548060200260200160405190810160405280929190818152602001828054801561102e57602002820191906000526020600020905b81548152602001906001019080831161101a575b50505050509050919050565b600060096000838152602001908152602001600020600301549050919050565b60055481565b600080600c600061106f61178b565b73ffffffffffffffffffffffffffffffffffffffff1673ffffffffffffffffffffffffffffffffffffffff1681526020019081526020016000205414156110eb576040517f08c379a00000000000000000000000000000000000000000000000000000000081526004016110e290612a7e565b60405180910390fd5b6110f36118ae565b5060006110fe6118b3565b9050601260009054906101000a900473ffffffffffffffffffffffffffffffffffffffff1673ffffffffffffffffffffffffffffffffffffffff1663a9059cbb61114661178b565b836040518363ffffffff1660e01b8152600401611164929190612930565b602060405180830381600087803b15801561117e57600080fd5b505af1158015611192573d6000803e3d6000fd5b505050506040513d601f19601f820116820180604052508101906111b691906123d5565b507f481007a75a4407f69a4ebcf25782e3537f6d76c13b46f71db08ae80c2b699e076111e061178b565b826040516111ef929190612930565b60405180910390a1600191505090565b600d5481565b600a6020528060005260406000206000915090508060010154905081565b6000600254905090565b6060600a60008381526020019081526020016000206000018054806020026020016040519081016040528092919081815260200182805480156112c557602002820191906000526020600020905b8160009054906101000a900473ffffffffffffffffffffffffffffffffffffffff1673ffffffffffffffffffffffffffffffffffffffff168152602001906001019080831161127b575b50505050509050919050565b6000600e60009054906101000a900473ffffffffffffffffffffffffffffffffffffffff1673ffffffffffffffffffffffffffffffffffffffff163373ffffffffffffffffffffffffffffffffffffffff1614611363576040517f08c379a000000000000000000000000000000000000000000000000000000000815260040161135a90612ade565b60405180910390fd5b6000601054116113a8576040517f08c379a000000000000000000000000000000000000000000000000000000000815260040161139f90612abe565b60405180910390fd5b6000601054905060006010819055503373ffffffffffffffffffffffffffffffffffffffff166108fc829081150290604051600060405180830381858888f193505050501580156113fd573d6000803e3d6000fd5b50600191505090565b6000600354601260009054906101000a900473ffffffffffffffffffffffffffffffffffffffff1673ffffffffffffffffffffffffffffffffffffffff166370a0823161145161178b565b6040518263ffffffff1660e01b815260040161146d91906128a7565b60206040518083038186803b15801561148557600080fd5b505afa158015611499573d6000803e3d6000fd5b505050506040513d601f19601f820116820180604052508101906114bd9190612450565b10156114fe576040517f08c379a00000000000000000000000000000000000000000000000000000000081526004016114f590612a5e565b60405180910390fd5b6000611508611952565b905061151381611a47565b50600191505090565b600c6020528060005260406000206000915090505481565b6000600e60009054906101000a900473ffffffffffffffffffffffffffffffffffffffff1673ffffffffffffffffffffffffffffffffffffffff163373ffffffffffffffffffffffffffffffffffffffff16146115c6576040517f08c379a00000000000000000000000000000000000000000000000000000000081526004016115bd90612ade565b60405180910390fd5b6000601160008473ffffffffffffffffffffffffffffffffffffffff1673ffffffffffffffffffffffffffffffffffffffff1681526020019081526020016000205411611648576040517f08c379a000000000000000000000000000000000000000000000000000000000815260040161163f90612abe565b60405180910390fd5b6000601160008473ffffffffffffffffffffffffffffffffffffffff1673ffffffffffffffffffffffffffffffffffffffff1681526020019081526020016000205490506000601160008573ffffffffffffffffffffffffffffffffffffffff1673ffffffffffffffffffffffffffffffffffffffff168152602001908152602001600020819055508273ffffffffffffffffffffffffffffffffffffffff1663a9059cbb600e60009054906101000a900473ffffffffffffffffffffffffffffffffffffffff16836040518363ffffffff1660e01b815260040161172e929190612930565b602060405180830381600087803b15801561174857600080fd5b505af115801561175c573d6000803e3d6000fd5b505050506040513d601f19601f8201168201806040525081019061178091906123d5565b506001915050919050565b600033905090565b600061179d6118a6565b600960006005548152602001908152602001600020600101819055506001905090565b6000806117cb611b9b565b90506000801b81141561183457600660008154809291906117eb90612d73565b91905055507fe0dbc9529120eb99dfdd738608a453baef8223964340a20ebbc2d79558ea1f9a6000826040516118229291906129b8565b60405180910390a160009150506118a3565b8060096000600554815260200190815260200160002060030181905550611859611bed565b50611862611c62565b507fe0dbc9529120eb99dfdd738608a453baef8223964340a20ebbc2d79558ea1f9a6001826040516118959291906129b8565b60405180910390a160019150505b90565b600042905090565b600090565b600080600c60006118c261178b565b73ffffffffffffffffffffffffffffffffffffffff1673ffffffffffffffffffffffffffffffffffffffff1681526020019081526020016000205490506000600c600061190d61178b565b73ffffffffffffffffffffffffffffffffffffffff1673ffffffffffffffffffffffffffffffffffffffff168152602001908152602001600020819055508091505090565b600080611983601260009054906101000a900473ffffffffffffffffffffffffffffffffffffffff16600354611c83565b9050601260009054906101000a900473ffffffffffffffffffffffffffffffffffffffff1673ffffffffffffffffffffffffffffffffffffffff166323b872dd6119cb61178b565b306003546040518463ffffffff1660e01b81526004016119ed939291906128c2565b602060405180830381600087803b158015611a0757600080fd5b505af1158015611a1b573d6000803e3d6000fd5b505050506040513d601f19601f82011682018060405250810190611a3f91906123d5565b508091505090565b600060076000815480929190611a5c90612d73565b919050555060035460086000828254611a759190612ba7565b92505081905550816009600060055481526020019081526020016000206002016000828254611aa49190612ba7565b925050819055506000611ab5611d02565b9050600b600060055481526020019081526020016000206000611ad661178b565b73ffffffffffffffffffffffffffffffffffffffff1673ffffffffffffffffffffffffffffffffffffffff1681526020019081526020016000208190806001815401808255809150506001900390600052602060002001600090919091909150557f1a68cfba6503f189182fd0e12b64a6c8b19d129ee1bb7aba124ab08d8a57e468611b6061178b565b8260096000600554815260200190815260200160002060020154604051611b89939291906128f9565b60405180910390a16001915050919050565b600080611ba6611f12565b90506000611bb382611f39565b90506000600a6000838152602001908152602001600020600001805490501115611be1578092505050611bea565b6000801b925050505b90565b6000600160096000600554815260200190815260200160002060040160006101000a81548160ff021916908315150217905550611c28611f76565b611c5b577f4e487b7100000000000000000000000000000000000000000000000000000000600052600160045260246000fd5b6001905090565b6000806006819055506000600781905550611c7b612140565b506001905090565b600080611c8f83612236565b905080601160008673ffffffffffffffffffffffffffffffffffffffff1673ffffffffffffffffffffffffffffffffffffffff1681526020019081526020016000206000828254611ce09190612ba7565b9250508190555060008184611cf59190612c88565b9050809250505092915050565b600080611d0d611f12565b90506000611d1a82611f39565b90506000600a6000838152602001908152602001600020600001805490501115611dc657600a6000828152602001908152602001600020600001611d5c61178b565b9080600181540180825580915050600190039060005260206000200160009091909190916101000a81548173ffffffffffffffffffffffffffffffffffffffff021916908373ffffffffffffffffffffffffffffffffffffffff1602179055508092505050611f0f565b6000600167ffffffffffffffff811115611e09577f4e487b7100000000000000000000000000000000000000000000000000000000600052604160045260246000fd5b604051908082528060200260200182016040528015611e375781602001602082028036833780820191505090505b509050611e4261178b565b81600081518110611e7c577f4e487b7100000000000000000000000000000000000000000000000000000000600052603260045260246000fd5b602002602001019073ffffffffffffffffffffffffffffffffffffffff16908173ffffffffffffffffffffffffffffffffffffffff1681525050604051806040016040528082815260200184815250600a60008481526020019081526020016000206000820151816000019080519060200190611efa92919061229c565b50602082015181600101559050508193505050505b90565b600080611f1d612265565b9050600060045482611f2f9190612dc6565b9050809250505090565b60008060055460065484604051602001611f559392919061286a565b60405160208183030381529060405280519060200120905080915050919050565b60008060096000600554815260200190815260200160002060030154905060006009600060055481526020019081526020016000206002015490506000600a600084815260200190815260200160002060000180549050905060008183611fdd9190612bfd565b90506000600a600086815260200190815260200160002060000180548060200260200160405190810160405280929190818152602001828054801561207757602002820191906000526020600020905b8160009054906101000a900473ffffffffffffffffffffffffffffffffffffffff1673ffffffffffffffffffffffffffffffffffffffff168152602001906001019080831161202d575b5050505050905060005b81518110156121335782600c60008484815181106120c8577f4e487b7100000000000000000000000000000000000000000000000000000000600052603260045260246000fd5b602002602001015173ffffffffffffffffffffffffffffffffffffffff1673ffffffffffffffffffffffffffffffffffffffff16815260200190815260200160002060008282546121199190612ba7565b92505081905550808061212b90612d73565b915050612081565b5060019550505050505090565b60006005600081548092919061215590612d73565b91905055506040518060a0016040528061216d6118a6565b815260200161217a6118a6565b8152602001600081526020016000801b8152602001600015158152506009600060055481526020019081526020016000206000820151816000015560208201518160010155604082015181600201556060820151816003015560808201518160040160006101000a81548160ff0219169083151502179055509050507fa35bd591310404f547e67d0f261a54d0a2a7606bf1695c5e9134f4259805eb7c6005546040516122279190612afe565b60405180910390a16001905090565b600080670de0b6b3a7640000600d54846122509190612c2e565b61225a9190612bfd565b905080915050919050565b6000424360075460405160200161227e9392919061286a565b6040516020818303038152906040528051906020012060001c905090565b828054828255906000526020600020908101928215612315579160200282015b828111156123145782518260006101000a81548173ffffffffffffffffffffffffffffffffffffffff021916908373ffffffffffffffffffffffffffffffffffffffff160217905550916020019190600101906122bc565b5b5090506123229190612326565b5090565b5b8082111561233f576000816000905550600101612327565b5090565b60008135905061235281612e95565b92915050565b60008151905061236781612eac565b92915050565b60008135905061237c81612ec3565b92915050565b60008135905061239181612eda565b92915050565b6000815190506123a681612eda565b92915050565b6000602082840312156123be57600080fd5b60006123cc84828501612343565b91505092915050565b6000602082840312156123e757600080fd5b60006123f584828501612358565b91505092915050565b60006020828403121561241057600080fd5b600061241e8482850161236d565b91505092915050565b60006020828403121561243957600080fd5b600061244784828501612382565b91505092915050565b60006020828403121561246257600080fd5b600061247084828501612397565b91505092915050565b60008060006060848603121561248e57600080fd5b600061249c86828701612382565b93505060206124ad86828701612343565b92505060406124be86828701612382565b9150509250925092565b60006124d483836124f8565b60208301905092915050565b60006124ec83836125e1565b60208301905092915050565b61250181612cbc565b82525050565b61251081612cbc565b82525050565b600061252182612b39565b61252b8185612b74565b935061253683612b19565b8060005b8381101561256757815161254e88826124c8565b975061255983612b5a565b92505060018101905061253a565b5085935050505092915050565b600061257f82612b44565b6125898185612b85565b935061259483612b29565b8060005b838110156125c55781516125ac88826124e0565b97506125b783612b67565b925050600181019050612598565b5085935050505092915050565b6125db81612cce565b82525050565b6125ea81612cda565b82525050565b6125f981612cda565b82525050565b600061260a82612b4f565b6126148185612b96565b9350612624818560208601612d0e565b61262d81612e84565b840191505092915050565b6000612645602b83612b96565b91507f6e6f7420656e6f7567682074696d652068617320656c61707365642073696e6360008301527f65206c61737420647261770000000000000000000000000000000000000000006020830152604082019050919050565b60006126ab602983612b96565b91507f4f6e6c792074686520737765657065722063616e2061737369676e206120726560008301527f706c6163656d656e7400000000000000000000000000000000000000000000006020830152604082019050919050565b6000612711601a83612b96565b91507f6e6f7420656e6f75676820746f6b656e7320746f20656e7465720000000000006000830152602082019050919050565b6000612751601a83612b96565b91507f796f7520617265206e6f74206f77656420616e79206d6f6e65790000000000006000830152602082019050919050565b6000612791601383612b96565b91507f6d757374206265207468652073776565706572000000000000000000000000006000830152602082019050919050565b60006127d1601983612b96565b91507f796f752068617665206e6f7468696e6720746f20636c61696d000000000000006000830152602082019050919050565b6000612811601d83612b96565b91507f596f7520617265206e6f74207468652066656520726563697069656e740000006000830152602082019050919050565b61284d81612d04565b82525050565b61286461285f82612d04565b612dbc565b82525050565b60006128768286612853565b6020820191506128868285612853565b6020820191506128968284612853565b602082019150819050949350505050565b60006020820190506128bc6000830184612507565b92915050565b60006060820190506128d76000830186612507565b6128e46020830185612507565b6128f16040830184612844565b949350505050565b600060608201905061290e6000830186612507565b61291b60208301856125f0565b6129286040830184612844565b949350505050565b60006040820190506129456000830185612507565b6129526020830184612844565b9392505050565b600060208201905081810360008301526129738184612516565b905092915050565b600060208201905081810360008301526129958184612574565b905092915050565b60006020820190506129b260008301846125d2565b92915050565b60006040820190506129cd60008301856125d2565b6129da60208301846125f0565b9392505050565b60006020820190506129f660008301846125f0565b92915050565b60006020820190508181036000830152612a1681846125ff565b905092915050565b60006020820190508181036000830152612a3781612638565b9050919050565b60006020820190508181036000830152612a578161269e565b9050919050565b60006020820190508181036000830152612a7781612704565b9050919050565b60006020820190508181036000830152612a9781612744565b9050919050565b60006020820190508181036000830152612ab781612784565b9050919050565b60006020820190508181036000830152612ad7816127c4565b9050919050565b60006020820190508181036000830152612af781612804565b9050919050565b6000602082019050612b136000830184612844565b92915050565b6000819050602082019050919050565b6000819050602082019050919050565b600081519050919050565b600081519050919050565b600081519050919050565b6000602082019050919050565b6000602082019050919050565b600082825260208201905092915050565b600082825260208201905092915050565b600082825260208201905092915050565b6000612bb282612d04565b9150612bbd83612d04565b9250827fffffffffffffffffffffffffffffffffffffffffffffffffffffffffffffffff03821115612bf257612bf1612df7565b5b828201905092915050565b6000612c0882612d04565b9150612c1383612d04565b925082612c2357612c22612e26565b5b828204905092915050565b6000612c3982612d04565b9150612c4483612d04565b9250817fffffffffffffffffffffffffffffffffffffffffffffffffffffffffffffffff0483118215151615612c7d57612c7c612df7565b5b828202905092915050565b6000612c9382612d04565b9150612c9e83612d04565b925082821015612cb157612cb0612df7565b5b828203905092915050565b6000612cc782612ce4565b9050919050565b60008115159050919050565b6000819050919050565b600073ffffffffffffffffffffffffffffffffffffffff82169050919050565b6000819050919050565b60005b83811015612d2c578082015181840152602081019050612d11565b83811115612d3b576000848401525b50505050565b60006002820490506001821680612d5957607f821691505b60208210811415612d6d57612d6c612e55565b5b50919050565b6000612d7e82612d04565b91507fffffffffffffffffffffffffffffffffffffffffffffffffffffffffffffffff821415612db157612db0612df7565b5b600182019050919050565b6000819050919050565b6000612dd182612d04565b9150612ddc83612d04565b925082612dec57612deb612e26565b5b828206905092915050565b7f4e487b7100000000000000000000000000000000000000000000000000000000600052601160045260246000fd5b7f4e487b7100000000000000000000000000000000000000000000000000000000600052601260045260246000fd5b7f4e487b7100000000000000000000000000000000000000000000000000000000600052602260045260246000fd5b6000601f19601f8301169050919050565b612e9e81612cbc565b8114612ea957600080fd5b50565b612eb581612cce565b8114612ec057600080fd5b50565b612ecc81612cda565b8114612ed757600080fd5b50565b612ee381612d04565b8114612eee57600080fd5b5056fea26469706673582212201fac5e131d56cebc4fc83c00c372b5084a26eb45e926e7b1c6be9e391600a0fd64736f6c63430008000033",
  "linkReferences": {},
  "deployedLinkReferences": {}
}