{
  "_format": "hh-sol-artifact-1",
  "contractName": "TestToken",
  "sourceName": "contracts/TestHelpers/TestToken.sol",
  "abi": [
    {
      "inputs": [
        {
          "internalType": "address",
          "name": "ad1",
          "type": "address"
        },
        {
          "internalType": "address",
          "name": "ad2",
          "type": "address"
        },
        {
          "internalType": "address",
          "name": "ad3",
          "type": "address"
        },
        {
          "internalType": "address",
          "name": "ad4",
          "type": "address"
        },
        {
          "internalType": "address",
          "name": "ad5",
          "type": "address"
        }
      ],
      "stateMutability": "nonpayable",
      "type": "constructor"
    },
    {
      "anonymous": false,
      "inputs": [
        {
          "indexed": true,
          "internalType": "address",
          "name": "owner",
          "type": "address"
        },
        {
          "indexed": true,
          "internalType": "address",
          "name": "spender",
          "type": "address"
        },
        {
          "indexed": false,
          "internalType": "uint256",
          "name": "value",
          "type": "uint256"
        }
      ],
      "name": "Approval",
      "type": "event"
    },
    {
      "anonymous": false,
      "inputs": [
        {
          "indexed": true,
          "internalType": "address",
          "name": "from",
          "type": "address"
        },
        {
          "indexed": true,
          "internalType": "address",
          "name": "to",
          "type": "address"
        },
        {
          "indexed": false,
          "internalType": "uint256",
          "name": "value",
          "type": "uint256"
        }
      ],
      "name": "Transfer",
      "type": "event"
    },
    {
      "inputs": [
        {
          "internalType": "address",
          "name": "owner",
          "type": "address"
        },
        {
          "internalType": "address",
          "name": "spender",
          "type": "address"
        }
      ],
      "name": "allowance",
      "outputs": [
        {
          "internalType": "uint256",
          "name": "",
          "type": "uint256"
        }
      ],
      "stateMutability": "view",
      "type": "function"
    },
    {
      "inputs": [
        {
          "internalType": "address",
          "name": "spender",
          "type": "address"
        },
        {
          "internalType": "uint256",
          "name": "amount",
          "type": "uint256"
        }
      ],
      "name": "approve",
      "outputs": [
        {
          "internalType": "bool",
          "name": "",
          "type": "bool"
        }
      ],
      "stateMutability": "nonpayable",
      "type": "function"
    },
    {
      "inputs": [
        {
          "internalType": "address",
          "name": "account",
          "type": "address"
        }
      ],
      "name": "balanceOf",
      "outputs": [
        {
          "internalType": "uint256",
          "name": "",
          "type": "uint256"
        }
      ],
      "stateMutability": "view",
      "type": "function"
    },
    {
      "inputs": [
        {
          "internalType": "address",
          "name": "newSweeper",
          "type": "address"
        }
      ],
      "name": "changeSweeper",
      "outputs": [
        {
          "internalType": "bool",
          "name": "",
          "type": "bool"
        }
      ],
      "stateMutability": "nonpayable",
      "type": "function"
    },
    {
      "inputs": [],
      "name": "decimals",
      "outputs": [
        {
          "internalType": "uint8",
          "name": "",
          "type": "uint8"
        }
      ],
      "stateMutability": "view",
      "type": "function"
    },
    {
      "inputs": [
        {
          "internalType": "address",
          "name": "spender",
          "type": "address"
        },
        {
          "internalType": "uint256",
          "name": "subtractedValue",
          "type": "uint256"
        }
      ],
      "name": "decreaseAllowance",
      "outputs": [
        {
          "internalType": "bool",
          "name": "",
          "type": "bool"
        }
      ],
      "stateMutability": "nonpayable",
      "type": "function"
    },
    {
      "inputs": [
        {
          "internalType": "address",
          "name": "spender",
          "type": "address"
        },
        {
          "internalType": "uint256",
          "name": "addedValue",
          "type": "uint256"
        }
      ],
      "name": "increaseAllowance",
      "outputs": [
        {
          "internalType": "bool",
          "name": "",
          "type": "bool"
        }
      ],
      "stateMutability": "nonpayable",
      "type": "function"
    },
    {
      "inputs": [],
      "name": "namee",
      "outputs": [
        {
          "internalType": "string",
          "name": "",
          "type": "string"
        }
      ],
      "stateMutability": "view",
      "type": "function"
    },
    {
      "inputs": [
        {
          "internalType": "address",
          "name": "tokenToSweep",
          "type": "address"
        }
      ],
      "name": "sweep",
      "outputs": [
        {
          "internalType": "bool",
          "name": "",
          "type": "bool"
        }
      ],
      "stateMutability": "nonpayable",
      "type": "function"
    },
    {
      "inputs": [],
      "name": "sweeper",
      "outputs": [
        {
          "internalType": "address",
          "name": "",
          "type": "address"
        }
      ],
      "stateMutability": "view",
      "type": "function"
    },
    {
      "inputs": [],
      "name": "symbol",
      "outputs": [
        {
          "internalType": "string",
          "name": "",
          "type": "string"
        }
      ],
      "stateMutability": "view",
      "type": "function"
    },
    {
      "inputs": [],
      "name": "totalSupply",
      "outputs": [
        {
          "internalType": "uint256",
          "name": "",
          "type": "uint256"
        }
      ],
      "stateMutability": "view",
      "type": "function"
    },
    {
      "inputs": [
        {
          "internalType": "address",
          "name": "recipient",
          "type": "address"
        },
        {
          "internalType": "uint256",
          "name": "amount",
          "type": "uint256"
        }
      ],
      "name": "transfer",
      "outputs": [
        {
          "internalType": "bool",
          "name": "",
          "type": "bool"
        }
      ],
      "stateMutability": "nonpayable",
      "type": "function"
    },
    {
      "inputs": [
        {
          "internalType": "address",
          "name": "sender",
          "type": "address"
        },
        {
          "internalType": "address",
          "name": "recipient",
          "type": "address"
        },
        {
          "internalType": "uint256",
          "name": "amount",
          "type": "uint256"
        }
      ],
      "name": "transferFrom",
      "outputs": [
        {
          "internalType": "bool",
          "name": "",
          "type": "bool"
        }
      ],
      "stateMutability": "nonpayable",
      "type": "function"
    }
  ],
  "bytecode": "0x60806040523480156200001157600080fd5b5060405162001f7a38038062001f7a833981810160405281019062000037919062000401565b6040518060400160405280600681526020017f74546f6b656e00000000000000000000000000000000000000000000000000008152506040518060400160405280600281526020017f5454000000000000000000000000000000000000000000000000000000000000815250620000b3620001c760201b60201c565b6000806101000a81548173ffffffffffffffffffffffffffffffffffffffff021916908373ffffffffffffffffffffffffffffffffffffffff16021790555081600490805190602001906200010a9291906200033a565b508060059080519060200190620001239291906200033a565b50505062000144856b204fce5e3e25026110000000620001cf60201b60201c565b62000162846b204fce5e3e25026110000000620001cf60201b60201c565b62000180836b204fce5e3e25026110000000620001cf60201b60201c565b6200019e826b204fce5e3e25026110000000620001cf60201b60201c565b620001bc816b204fce5e3e25026110000000620001cf60201b60201c565b50505050506200066f565b600033905090565b600073ffffffffffffffffffffffffffffffffffffffff168273ffffffffffffffffffffffffffffffffffffffff16141562000242576040517f08c379a00000000000000000000000000000000000000000000000000000000081526004016200023990620004d6565b60405180910390fd5b62000256600083836200033560201b60201c565b80600360008282546200026a919062000526565b9250508190555080600160008473ffffffffffffffffffffffffffffffffffffffff1673ffffffffffffffffffffffffffffffffffffffff1681526020019081526020016000206000828254620002c2919062000526565b925050819055508173ffffffffffffffffffffffffffffffffffffffff16600073ffffffffffffffffffffffffffffffffffffffff167fddf252ad1be2c89b69c2b068fc378daa952ba7f163c4a11628f55a4df523b3ef83604051620003299190620004f8565b60405180910390a35050565b505050565b8280546200034890620005c1565b90600052602060002090601f0160209004810192826200036c5760008555620003b8565b82601f106200038757805160ff1916838001178555620003b8565b82800160010185558215620003b8579182015b82811115620003b75782518255916020019190600101906200039a565b5b509050620003c79190620003cb565b5090565b5b80821115620003e6576000816000905550600101620003cc565b5090565b600081519050620003fb8162000655565b92915050565b600080600080600060a086880312156200041a57600080fd5b60006200042a88828901620003ea565b95505060206200043d88828901620003ea565b94505060406200045088828901620003ea565b93505060606200046388828901620003ea565b92505060806200047688828901620003ea565b9150509295509295909350565b600062000492601f8362000515565b91507f45524332303a206d696e7420746f20746865207a65726f2061646472657373006000830152602082019050919050565b620004d081620005b7565b82525050565b60006020820190508181036000830152620004f18162000483565b9050919050565b60006020820190506200050f6000830184620004c5565b92915050565b600082825260208201905092915050565b60006200053382620005b7565b91506200054083620005b7565b9250827fffffffffffffffffffffffffffffffffffffffffffffffffffffffffffffffff03821115620005785762000577620005f7565b5b828201905092915050565b6000620005908262000597565b9050919050565b600073ffffffffffffffffffffffffffffffffffffffff82169050919050565b6000819050919050565b60006002820490506001821680620005da57607f821691505b60208210811415620005f157620005f062000626565b5b50919050565b7f4e487b7100000000000000000000000000000000000000000000000000000000600052601160045260246000fd5b7f4e487b7100000000000000000000000000000000000000000000000000000000600052602260045260246000fd5b620006608162000583565b81146200066c57600080fd5b50565b6118fb806200067f6000396000f3fe608060405234801561001057600080fd5b50600436106100ea5760003560e01c806370a082311161008c578063a457c2d711610066578063a457c2d714610287578063a9059cbb146102b7578063c99fd49b146102e7578063dd62ed3e14610305576100ea565b806370a082311461021b5780639189a59e1461024b57806395d89b4114610269576100ea565b806323b872dd116100c857806323b872dd1461016d578063313ce5671461019d57806339509351146101bb5780634cec4ed1146101eb576100ea565b806301681a62146100ef578063095ea7b31461011f57806318160ddd1461014f575b600080fd5b61010960048036038101906101049190610fb3565b610335565b604051610116919061151e565b60405180910390f35b61013960048036038101906101349190611067565b61051c565b604051610146919061151e565b60405180910390f35b61015761053a565b604051610164919061167b565b60405180910390f35b61018760048036038101906101829190611018565b610544565b604051610194919061151e565b60405180910390f35b6101a5610645565b6040516101b29190611696565b60405180910390f35b6101d560048036038101906101d09190611067565b61064e565b6040516101e2919061151e565b60405180910390f35b61020560048036038101906102009190610fb3565b6106fa565b604051610212919061151e565b60405180910390f35b61023560048036038101906102309190610fb3565b6107db565b604051610242919061167b565b60405180910390f35b610253610824565b60405161026091906114da565b60405180910390f35b610271610848565b60405161027e9190611539565b60405180910390f35b6102a1600480360381019061029c9190611067565b6108da565b6040516102ae919061151e565b60405180910390f35b6102d160048036038101906102cc9190611067565b6109ce565b6040516102de919061151e565b60405180910390f35b6102ef6109ec565b6040516102fc9190611539565b60405180910390f35b61031f600480360381019061031a9190610fdc565b610a7e565b60405161032c919061167b565b60405180910390f35b60008060009054906101000a900473ffffffffffffffffffffffffffffffffffffffff1673ffffffffffffffffffffffffffffffffffffffff16610377610b05565b73ffffffffffffffffffffffffffffffffffffffff16146103cd576040517f08c379a00000000000000000000000000000000000000000000000000000000081526004016103c49061161b565b60405180910390fd5b60008273ffffffffffffffffffffffffffffffffffffffff166370a08231306040518263ffffffff1660e01b815260040161040891906114da565b60206040518083038186803b15801561042057600080fd5b505afa158015610434573d6000803e3d6000fd5b505050506040513d601f19601f8201168201806040525081019061045891906110cc565b90506000811115610512578273ffffffffffffffffffffffffffffffffffffffff1663a9059cbb60008054906101000a900473ffffffffffffffffffffffffffffffffffffffff16836040518363ffffffff1660e01b81526004016104be9291906114f5565b602060405180830381600087803b1580156104d857600080fd5b505af11580156104ec573d6000803e3d6000fd5b505050506040513d601f19601f8201168201806040525081019061051091906110a3565b505b6001915050919050565b6000610530610529610b05565b8484610b0d565b6001905092915050565b6000600354905090565b6000610551848484610cd8565b6000600260008673ffffffffffffffffffffffffffffffffffffffff1673ffffffffffffffffffffffffffffffffffffffff168152602001908152602001600020600061059c610b05565b73ffffffffffffffffffffffffffffffffffffffff1673ffffffffffffffffffffffffffffffffffffffff1681526020019081526020016000205490508281101561061c576040517f08c379a0000000000000000000000000000000000000000000000000000000008152600401610613906115db565b60405180910390fd5b61063985610628610b05565b85846106349190611723565b610b0d565b60019150509392505050565b60006012905090565b60006106f061065b610b05565b848460026000610669610b05565b73ffffffffffffffffffffffffffffffffffffffff1673ffffffffffffffffffffffffffffffffffffffff16815260200190815260200160002060008873ffffffffffffffffffffffffffffffffffffffff1673ffffffffffffffffffffffffffffffffffffffff168152602001908152602001600020546106eb91906116cd565b610b0d565b6001905092915050565b60008060009054906101000a900473ffffffffffffffffffffffffffffffffffffffff1673ffffffffffffffffffffffffffffffffffffffff1661073c610b05565b73ffffffffffffffffffffffffffffffffffffffff1614610792576040517f08c379a0000000000000000000000000000000000000000000000000000000008152600401610789906115bb565b60405180910390fd5b816000806101000a81548173ffffffffffffffffffffffffffffffffffffffff021916908373ffffffffffffffffffffffffffffffffffffffff16021790555060019050919050565b6000600160008373ffffffffffffffffffffffffffffffffffffffff1673ffffffffffffffffffffffffffffffffffffffff168152602001908152602001600020549050919050565b60008054906101000a900473ffffffffffffffffffffffffffffffffffffffff1681565b606060058054610857906117df565b80601f0160208091040260200160405190810160405280929190818152602001828054610883906117df565b80156108d05780601f106108a5576101008083540402835291602001916108d0565b820191906000526020600020905b8154815290600101906020018083116108b357829003601f168201915b5050505050905090565b600080600260006108e9610b05565b73ffffffffffffffffffffffffffffffffffffffff1673ffffffffffffffffffffffffffffffffffffffff16815260200190815260200160002060008573ffffffffffffffffffffffffffffffffffffffff1673ffffffffffffffffffffffffffffffffffffffff168152602001908152602001600020549050828110156109a6576040517f08c379a000000000000000000000000000000000000000000000000000000000815260040161099d9061165b565b60405180910390fd5b6109c36109b1610b05565b8585846109be9190611723565b610b0d565b600191505092915050565b60006109e26109db610b05565b8484610cd8565b6001905092915050565b6060600480546109fb906117df565b80601f0160208091040260200160405190810160405280929190818152602001828054610a27906117df565b8015610a745780601f10610a4957610100808354040283529160200191610a74565b820191906000526020600020905b815481529060010190602001808311610a5757829003601f168201915b5050505050905090565b6000600260008473ffffffffffffffffffffffffffffffffffffffff1673ffffffffffffffffffffffffffffffffffffffff16815260200190815260200160002060008373ffffffffffffffffffffffffffffffffffffffff1673ffffffffffffffffffffffffffffffffffffffff16815260200190815260200160002054905092915050565b600033905090565b600073ffffffffffffffffffffffffffffffffffffffff168373ffffffffffffffffffffffffffffffffffffffff161415610b7d576040517f08c379a0000000000000000000000000000000000000000000000000000000008152600401610b749061163b565b60405180910390fd5b600073ffffffffffffffffffffffffffffffffffffffff168273ffffffffffffffffffffffffffffffffffffffff161415610bed576040517f08c379a0000000000000000000000000000000000000000000000000000000008152600401610be49061157b565b60405180910390fd5b80600260008573ffffffffffffffffffffffffffffffffffffffff1673ffffffffffffffffffffffffffffffffffffffff16815260200190815260200160002060008473ffffffffffffffffffffffffffffffffffffffff1673ffffffffffffffffffffffffffffffffffffffff168152602001908152602001600020819055508173ffffffffffffffffffffffffffffffffffffffff168373ffffffffffffffffffffffffffffffffffffffff167f8c5be1e5ebec7d5bd14f71427d1e84f3dd0314c0f7b2291e5b200ac8c7c3b92583604051610ccb919061167b565b60405180910390a3505050565b600073ffffffffffffffffffffffffffffffffffffffff168373ffffffffffffffffffffffffffffffffffffffff161415610d48576040517f08c379a0000000000000000000000000000000000000000000000000000000008152600401610d3f906115fb565b60405180910390fd5b600073ffffffffffffffffffffffffffffffffffffffff168273ffffffffffffffffffffffffffffffffffffffff161415610db8576040517f08c379a0000000000000000000000000000000000000000000000000000000008152600401610daf9061155b565b60405180910390fd5b610dc3838383610f5a565b6000600160008573ffffffffffffffffffffffffffffffffffffffff1673ffffffffffffffffffffffffffffffffffffffff16815260200190815260200160002054905081811015610e4a576040517f08c379a0000000000000000000000000000000000000000000000000000000008152600401610e419061159b565b60405180910390fd5b8181610e569190611723565b600160008673ffffffffffffffffffffffffffffffffffffffff1673ffffffffffffffffffffffffffffffffffffffff1681526020019081526020016000208190555081600160008573ffffffffffffffffffffffffffffffffffffffff1673ffffffffffffffffffffffffffffffffffffffff1681526020019081526020016000206000828254610ee891906116cd565b925050819055508273ffffffffffffffffffffffffffffffffffffffff168473ffffffffffffffffffffffffffffffffffffffff167fddf252ad1be2c89b69c2b068fc378daa952ba7f163c4a11628f55a4df523b3ef84604051610f4c919061167b565b60405180910390a350505050565b505050565b600081359050610f6e81611880565b92915050565b600081519050610f8381611897565b92915050565b600081359050610f98816118ae565b92915050565b600081519050610fad816118ae565b92915050565b600060208284031215610fc557600080fd5b6000610fd384828501610f5f565b91505092915050565b60008060408385031215610fef57600080fd5b6000610ffd85828601610f5f565b925050602061100e85828601610f5f565b9150509250929050565b60008060006060848603121561102d57600080fd5b600061103b86828701610f5f565b935050602061104c86828701610f5f565b925050604061105d86828701610f89565b9150509250925092565b6000806040838503121561107a57600080fd5b600061108885828601610f5f565b925050602061109985828601610f89565b9150509250929050565b6000602082840312156110b557600080fd5b60006110c384828501610f74565b91505092915050565b6000602082840312156110de57600080fd5b60006110ec84828501610f9e565b91505092915050565b6110fe81611757565b82525050565b61110d81611769565b82525050565b600061111e826116b1565b61112881856116bc565b93506111388185602086016117ac565b6111418161186f565b840191505092915050565b60006111596023836116bc565b91507f45524332303a207472616e7366657220746f20746865207a65726f206164647260008301527f65737300000000000000000000000000000000000000000000000000000000006020830152604082019050919050565b60006111bf6022836116bc565b91507f45524332303a20617070726f766520746f20746865207a65726f20616464726560008301527f73730000000000000000000000000000000000000000000000000000000000006020830152604082019050919050565b60006112256026836116bc565b91507f45524332303a207472616e7366657220616d6f756e742065786365656473206260008301527f616c616e636500000000000000000000000000000000000000000000000000006020830152604082019050919050565b600061128b6029836116bc565b91507f4f6e6c792074686520737765657065722063616e2061737369676e206120726560008301527f706c6163656d656e7400000000000000000000000000000000000000000000006020830152604082019050919050565b60006112f16028836116bc565b91507f45524332303a207472616e7366657220616d6f756e742065786365656473206160008301527f6c6c6f77616e63650000000000000000000000000000000000000000000000006020830152604082019050919050565b60006113576025836116bc565b91507f45524332303a207472616e736665722066726f6d20746865207a65726f20616460008301527f64726573730000000000000000000000000000000000000000000000000000006020830152604082019050919050565b60006113bd6013836116bc565b91507f6d757374206265207468652073776565706572000000000000000000000000006000830152602082019050919050565b60006113fd6024836116bc565b91507f45524332303a20617070726f76652066726f6d20746865207a65726f2061646460008301527f72657373000000000000000000000000000000000000000000000000000000006020830152604082019050919050565b60006114636025836116bc565b91507f45524332303a2064656372656173656420616c6c6f77616e63652062656c6f7760008301527f207a65726f0000000000000000000000000000000000000000000000000000006020830152604082019050919050565b6114c581611795565b82525050565b6114d48161179f565b82525050565b60006020820190506114ef60008301846110f5565b92915050565b600060408201905061150a60008301856110f5565b61151760208301846114bc565b9392505050565b60006020820190506115336000830184611104565b92915050565b600060208201905081810360008301526115538184611113565b905092915050565b600060208201905081810360008301526115748161114c565b9050919050565b60006020820190508181036000830152611594816111b2565b9050919050565b600060208201905081810360008301526115b481611218565b9050919050565b600060208201905081810360008301526115d48161127e565b9050919050565b600060208201905081810360008301526115f4816112e4565b9050919050565b600060208201905081810360008301526116148161134a565b9050919050565b60006020820190508181036000830152611634816113b0565b9050919050565b60006020820190508181036000830152611654816113f0565b9050919050565b6000602082019050818103600083015261167481611456565b9050919050565b600060208201905061169060008301846114bc565b92915050565b60006020820190506116ab60008301846114cb565b92915050565b600081519050919050565b600082825260208201905092915050565b60006116d882611795565b91506116e383611795565b9250827fffffffffffffffffffffffffffffffffffffffffffffffffffffffffffffffff0382111561171857611717611811565b5b828201905092915050565b600061172e82611795565b915061173983611795565b92508282101561174c5761174b611811565b5b828203905092915050565b600061176282611775565b9050919050565b60008115159050919050565b600073ffffffffffffffffffffffffffffffffffffffff82169050919050565b6000819050919050565b600060ff82169050919050565b60005b838110156117ca5780820151818401526020810190506117af565b838111156117d9576000848401525b50505050565b600060028204905060018216806117f757607f821691505b6020821081141561180b5761180a611840565b5b50919050565b7f4e487b7100000000000000000000000000000000000000000000000000000000600052601160045260246000fd5b7f4e487b7100000000000000000000000000000000000000000000000000000000600052602260045260246000fd5b6000601f19601f8301169050919050565b61188981611757565b811461189457600080fd5b50565b6118a081611769565b81146118ab57600080fd5b50565b6118b781611795565b81146118c257600080fd5b5056fea264697066735822122017d4de2c74d9668c38c5ad25d9c88cb9cc577108c1e67da8f2d8af293b2564d064736f6c63430008000033",
  "linkReferences": {},
  "deployedLinkReferences": {}
}