{
  "_format": "hh-sol-artifact-1",
  "contractName": "ERC20LotteryHelper",
  "sourceName": "contracts/TestHelpers/ERC20LotteryHelper.sol",
  "abi": [
    {
      "inputs": [],
      "stateMutability": "nonpayable",
      "type": "constructor"
    },
    {
      "anonymous": false,
      "inputs": [
        {
          "indexed": false,
          "internalType": "bool",
          "name": "winnerSelected",
          "type": "bool"
        },
        {
          "indexed": false,
          "internalType": "bytes32",
          "name": "winningTicket",
          "type": "bytes32"
        }
      ],
      "name": "newDraw",
      "type": "event"
    },
    {
      "anonymous": false,
      "inputs": [
        {
          "indexed": false,
          "internalType": "address",
          "name": "entrant",
          "type": "address"
        },
        {
          "indexed": false,
          "internalType": "bytes32",
          "name": "ticketID",
          "type": "bytes32"
        },
        {
          "indexed": false,
          "internalType": "uint256",
          "name": "totalPot",
          "type": "uint256"
        }
      ],
      "name": "newEntry",
      "type": "event"
    },
    {
      "anonymous": false,
      "inputs": [
        {
          "indexed": false,
          "internalType": "address",
          "name": "user",
          "type": "address"
        },
        {
          "indexed": false,
          "internalType": "uint256",
          "name": "amount",
          "type": "uint256"
        }
      ],
      "name": "newPayment",
      "type": "event"
    },
    {
      "anonymous": false,
      "inputs": [
        {
          "indexed": false,
          "internalType": "uint256",
          "name": "lottoNumber",
          "type": "uint256"
        }
      ],
      "name": "newRound",
      "type": "event"
    },
    {
      "inputs": [
        {
          "internalType": "address",
          "name": "",
          "type": "address"
        }
      ],
      "name": "ERC20DebtToRecipient",
      "outputs": [
        {
          "internalType": "uint256",
          "name": "",
          "type": "uint256"
        }
      ],
      "stateMutability": "view",
      "type": "function"
    },
    {
      "inputs": [
        {
          "internalType": "address",
          "name": "newSweeper",
          "type": "address"
        }
      ],
      "name": "changeSweeper",
      "outputs": [
        {
          "internalType": "bool",
          "name": "",
          "type": "bool"
        }
      ],
      "stateMutability": "nonpayable",
      "type": "function"
    },
    {
      "inputs": [],
      "name": "checkRandomness",
      "outputs": [
        {
          "internalType": "uint256[5]",
          "name": "",
          "type": "uint256[5]"
        }
      ],
      "stateMutability": "view",
      "type": "function"
    },
    {
      "inputs": [],
      "name": "currentDraw",
      "outputs": [
        {
          "internalType": "uint256",
          "name": "",
          "type": "uint256"
        }
      ],
      "stateMutability": "view",
      "type": "function"
    },
    {
      "inputs": [],
      "name": "currentLotto",
      "outputs": [
        {
          "internalType": "uint256",
          "name": "",
          "type": "uint256"
        }
      ],
      "stateMutability": "view",
      "type": "function"
    },
    {
      "inputs": [
        {
          "internalType": "address",
          "name": "",
          "type": "address"
        }
      ],
      "name": "debtToUser",
      "outputs": [
        {
          "internalType": "uint256",
          "name": "",
          "type": "uint256"
        }
      ],
      "stateMutability": "view",
      "type": "function"
    },
    {
      "inputs": [],
      "name": "didSomeoneWin",
      "outputs": [
        {
          "internalType": "bool",
          "name": "",
          "type": "bool"
        }
      ],
      "stateMutability": "view",
      "type": "function"
    },
    {
      "inputs": [],
      "name": "draw",
      "outputs": [
        {
          "internalType": "bool",
          "name": "",
          "type": "bool"
        }
      ],
      "stateMutability": "nonpayable",
      "type": "function"
    },
    {
      "inputs": [],
      "name": "drawFrequency",
      "outputs": [
        {
          "internalType": "uint256",
          "name": "",
          "type": "uint256"
        }
      ],
      "stateMutability": "view",
      "type": "function"
    },
    {
      "inputs": [],
      "name": "enter",
      "outputs": [
        {
          "internalType": "bool",
          "name": "",
          "type": "bool"
        }
      ],
      "stateMutability": "nonpayable",
      "type": "function"
    },
    {
      "inputs": [],
      "name": "ethDecimals",
      "outputs": [
        {
          "internalType": "uint256",
          "name": "",
          "type": "uint256"
        }
      ],
      "stateMutability": "view",
      "type": "function"
    },
    {
      "inputs": [],
      "name": "fantomDebtToRecipient",
      "outputs": [
        {
          "internalType": "uint256",
          "name": "",
          "type": "uint256"
        }
      ],
      "stateMutability": "view",
      "type": "function"
    },
    {
      "inputs": [],
      "name": "fee",
      "outputs": [
        {
          "internalType": "uint256",
          "name": "",
          "type": "uint256"
        }
      ],
      "stateMutability": "view",
      "type": "function"
    },
    {
      "inputs": [],
      "name": "feeRecipient",
      "outputs": [
        {
          "internalType": "address",
          "name": "",
          "type": "address"
        }
      ],
      "stateMutability": "view",
      "type": "function"
    },
    {
      "inputs": [],
      "name": "getPaid",
      "outputs": [
        {
          "internalType": "bool",
          "name": "",
          "type": "bool"
        }
      ],
      "stateMutability": "nonpayable",
      "type": "function"
    },
    {
      "inputs": [],
      "name": "getTokenAddress",
      "outputs": [
        {
          "internalType": "address",
          "name": "",
          "type": "address"
        }
      ],
      "stateMutability": "view",
      "type": "function"
    },
    {
      "inputs": [],
      "name": "name",
      "outputs": [
        {
          "internalType": "string",
          "name": "",
          "type": "string"
        }
      ],
      "stateMutability": "view",
      "type": "function"
    },
    {
      "inputs": [],
      "name": "readyToDraw",
      "outputs": [
        {
          "internalType": "bool",
          "name": "",
          "type": "bool"
        }
      ],
      "stateMutability": "view",
      "type": "function"
    },
    {
      "inputs": [],
      "name": "self",
      "outputs": [
        {
          "internalType": "address",
          "name": "",
          "type": "address"
        }
      ],
      "stateMutability": "view",
      "type": "function"
    },
    {
      "inputs": [
        {
          "internalType": "address",
          "name": "tokenToSweep",
          "type": "address"
        }
      ],
      "name": "sweep",
      "outputs": [
        {
          "internalType": "bool",
          "name": "",
          "type": "bool"
        }
      ],
      "stateMutability": "nonpayable",
      "type": "function"
    },
    {
      "inputs": [],
      "name": "sweeper",
      "outputs": [
        {
          "internalType": "address",
          "name": "",
          "type": "address"
        }
      ],
      "stateMutability": "view",
      "type": "function"
    },
    {
      "inputs": [],
      "name": "ticketCounter",
      "outputs": [
        {
          "internalType": "uint256",
          "name": "",
          "type": "uint256"
        }
      ],
      "stateMutability": "view",
      "type": "function"
    },
    {
      "inputs": [],
      "name": "ticketPrice",
      "outputs": [
        {
          "internalType": "uint256",
          "name": "",
          "type": "uint256"
        }
      ],
      "stateMutability": "view",
      "type": "function"
    },
    {
      "inputs": [
        {
          "internalType": "bytes32",
          "name": "",
          "type": "bytes32"
        }
      ],
      "name": "tickets",
      "outputs": [
        {
          "internalType": "uint256",
          "name": "ticketNumber",
          "type": "uint256"
        }
      ],
      "stateMutability": "view",
      "type": "function"
    },
    {
      "inputs": [],
      "name": "tokenAddress",
      "outputs": [
        {
          "internalType": "address",
          "name": "",
          "type": "address"
        }
      ],
      "stateMutability": "view",
      "type": "function"
    },
    {
      "inputs": [],
      "name": "totalValuePlayed",
      "outputs": [
        {
          "internalType": "uint256",
          "name": "",
          "type": "uint256"
        }
      ],
      "stateMutability": "view",
      "type": "function"
    },
    {
      "inputs": [
        {
          "internalType": "address",
          "name": "_ad",
          "type": "address"
        }
      ],
      "name": "updateTokenAddress",
      "outputs": [
        {
          "internalType": "bool",
          "name": "",
          "type": "bool"
        }
      ],
      "stateMutability": "nonpayable",
      "type": "function"
    },
    {
      "inputs": [
        {
          "internalType": "uint256",
          "name": "",
          "type": "uint256"
        },
        {
          "internalType": "address",
          "name": "",
          "type": "address"
        },
        {
          "internalType": "uint256",
          "name": "",
          "type": "uint256"
        }
      ],
      "name": "userTickets",
      "outputs": [
        {
          "internalType": "bytes32",
          "name": "",
          "type": "bytes32"
        }
      ],
      "stateMutability": "view",
      "type": "function"
    },
    {
      "inputs": [],
      "name": "viewCurrentDraw",
      "outputs": [
        {
          "internalType": "uint256",
          "name": "",
          "type": "uint256"
        }
      ],
      "stateMutability": "view",
      "type": "function"
    },
    {
      "inputs": [],
      "name": "viewCurrentLottery",
      "outputs": [
        {
          "internalType": "uint256",
          "name": "",
          "type": "uint256"
        }
      ],
      "stateMutability": "view",
      "type": "function"
    },
    {
      "inputs": [],
      "name": "viewDrawFrequency",
      "outputs": [
        {
          "internalType": "uint256",
          "name": "",
          "type": "uint256"
        }
      ],
      "stateMutability": "view",
      "type": "function"
    },
    {
      "inputs": [],
      "name": "viewFantomCollected",
      "outputs": [
        {
          "internalType": "uint256",
          "name": "",
          "type": "uint256"
        }
      ],
      "stateMutability": "view",
      "type": "function"
    },
    {
      "inputs": [],
      "name": "viewFinished",
      "outputs": [
        {
          "internalType": "bool",
          "name": "",
          "type": "bool"
        }
      ],
      "stateMutability": "view",
      "type": "function"
    },
    {
      "inputs": [],
      "name": "viewLast",
      "outputs": [
        {
          "internalType": "uint256",
          "name": "",
          "type": "uint256"
        }
      ],
      "stateMutability": "view",
      "type": "function"
    },
    {
      "inputs": [
        {
          "internalType": "uint256",
          "name": "lottoNumber",
          "type": "uint256"
        }
      ],
      "name": "viewLastDrawTime",
      "outputs": [
        {
          "internalType": "uint256",
          "name": "",
          "type": "uint256"
        }
      ],
      "stateMutability": "view",
      "type": "function"
    },
    {
      "inputs": [],
      "name": "viewLastPot",
      "outputs": [
        {
          "internalType": "uint256",
          "name": "",
          "type": "uint256"
        }
      ],
      "stateMutability": "view",
      "type": "function"
    },
    {
      "inputs": [],
      "name": "viewLottoNumber",
      "outputs": [
        {
          "internalType": "uint256",
          "name": "",
          "type": "uint256"
        }
      ],
      "stateMutability": "view",
      "type": "function"
    },
    {
      "inputs": [],
      "name": "viewName",
      "outputs": [
        {
          "internalType": "string",
          "name": "",
          "type": "string"
        }
      ],
      "stateMutability": "view",
      "type": "function"
    },
    {
      "inputs": [],
      "name": "viewPot",
      "outputs": [
        {
          "internalType": "uint256",
          "name": "",
          "type": "uint256"
        }
      ],
      "stateMutability": "view",
      "type": "function"
    },
    {
      "inputs": [],
      "name": "viewStart",
      "outputs": [
        {
          "internalType": "uint256",
          "name": "",
          "type": "uint256"
        }
      ],
      "stateMutability": "view",
      "type": "function"
    },
    {
      "inputs": [
        {
          "internalType": "uint256",
          "name": "lottoNumber",
          "type": "uint256"
        }
      ],
      "name": "viewStartTime",
      "outputs": [
        {
          "internalType": "uint256",
          "name": "",
          "type": "uint256"
        }
      ],
      "stateMutability": "view",
      "type": "function"
    },
    {
      "inputs": [],
      "name": "viewTicketCount",
      "outputs": [
        {
          "internalType": "uint256",
          "name": "",
          "type": "uint256"
        }
      ],
      "stateMutability": "view",
      "type": "function"
    },
    {
      "inputs": [
        {
          "internalType": "bytes32",
          "name": "ticketID",
          "type": "bytes32"
        }
      ],
      "name": "viewTicketHolders",
      "outputs": [
        {
          "internalType": "address[]",
          "name": "",
          "type": "address[]"
        }
      ],
      "stateMutability": "view",
      "type": "function"
    },
    {
      "inputs": [
        {
          "internalType": "bytes32",
          "name": "ticketID",
          "type": "bytes32"
        }
      ],
      "name": "viewTicketNumber",
      "outputs": [
        {
          "internalType": "uint256",
          "name": "",
          "type": "uint256"
        }
      ],
      "stateMutability": "view",
      "type": "function"
    },
    {
      "inputs": [],
      "name": "viewTicketPrice",
      "outputs": [
        {
          "internalType": "uint256",
          "name": "",
          "type": "uint256"
        }
      ],
      "stateMutability": "view",
      "type": "function"
    },
    {
      "inputs": [],
      "name": "viewTokenAddress",
      "outputs": [
        {
          "internalType": "address",
          "name": "",
          "type": "address"
        }
      ],
      "stateMutability": "view",
      "type": "function"
    },
    {
      "inputs": [
        {
          "internalType": "address",
          "name": "_token",
          "type": "address"
        }
      ],
      "name": "viewTokensCollected",
      "outputs": [
        {
          "internalType": "uint256",
          "name": "",
          "type": "uint256"
        }
      ],
      "stateMutability": "view",
      "type": "function"
    },
    {
      "inputs": [
        {
          "internalType": "uint256",
          "name": "lottoNumber",
          "type": "uint256"
        }
      ],
      "name": "viewTotalPot",
      "outputs": [
        {
          "internalType": "uint256",
          "name": "",
          "type": "uint256"
        }
      ],
      "stateMutability": "view",
      "type": "function"
    },
    {
      "inputs": [
        {
          "internalType": "uint256",
          "name": "lottoNumber",
          "type": "uint256"
        }
      ],
      "name": "viewUserTicketList",
      "outputs": [
        {
          "internalType": "bytes32[]",
          "name": "",
          "type": "bytes32[]"
        }
      ],
      "stateMutability": "view",
      "type": "function"
    },
    {
      "inputs": [],
      "name": "viewWinChance",
      "outputs": [
        {
          "internalType": "uint256",
          "name": "",
          "type": "uint256"
        }
      ],
      "stateMutability": "view",
      "type": "function"
    },
    {
      "inputs": [],
      "name": "viewWinner",
      "outputs": [
        {
          "internalType": "bytes32",
          "name": "",
          "type": "bytes32"
        }
      ],
      "stateMutability": "view",
      "type": "function"
    },
    {
      "inputs": [
        {
          "internalType": "uint256",
          "name": "lottoNumber",
          "type": "uint256"
        }
      ],
      "name": "viewWinningTicket",
      "outputs": [
        {
          "internalType": "bytes32",
          "name": "",
          "type": "bytes32"
        }
      ],
      "stateMutability": "view",
      "type": "function"
    },
    {
      "inputs": [],
      "name": "viewWinnings",
      "outputs": [
        {
          "internalType": "uint256",
          "name": "",
          "type": "uint256"
        }
      ],
      "stateMutability": "view",
      "type": "function"
    },
    {
      "inputs": [
        {
          "internalType": "address",
          "name": "addr",
          "type": "address"
        }
      ],
      "name": "viewWinningsByAddress",
      "outputs": [
        {
          "internalType": "uint256",
          "name": "",
          "type": "uint256"
        }
      ],
      "stateMutability": "view",
      "type": "function"
    },
    {
      "inputs": [],
      "name": "winChance",
      "outputs": [
        {
          "internalType": "uint256",
          "name": "",
          "type": "uint256"
        }
      ],
      "stateMutability": "view",
      "type": "function"
    },
    {
      "inputs": [
        {
          "internalType": "address",
          "name": "ERC20Address",
          "type": "address"
        }
      ],
      "name": "withdrawERC20",
      "outputs": [
        {
          "internalType": "bool",
          "name": "",
          "type": "bool"
        }
      ],
      "stateMutability": "nonpayable",
      "type": "function"
    },
    {
      "inputs": [],
      "name": "withdrawFantom",
      "outputs": [
        {
          "internalType": "bool",
          "name": "",
          "type": "bool"
        }
      ],
      "stateMutability": "nonpayable",
      "type": "function"
    }
  ],
  "bytecode": "0x6080604052600060055560006006556000600755600060085530600f60006101000a81548173ffffffffffffffffffffffffffffffffffffffff021916908373ffffffffffffffffffffffffffffffffffffffff16021790555073f39fd6e51aad88f6f4ce6ab8827279cfffb92266601360006101000a81548173ffffffffffffffffffffffffffffffffffffffff021916908373ffffffffffffffffffffffffffffffffffffffff160217905550348015620000bb57600080fd5b506040518060400160405280600d81526020017f4552433230204c6f7474657279000000000000000000000000000000000000008152506000670de0b6b3a7640000600a6000666a94d74f430000601360009054906101000a900473ffffffffffffffffffffffffffffffffffffffff166200013c6200025060201b60201c565b6000806101000a81548173ffffffffffffffffffffffffffffffffffffffff021916908373ffffffffffffffffffffffffffffffffffffffff1602179055508660019080519060200190620001939291906200036a565b5085600281905550846003819055508360048190555081600d8190555080600e60006101000a81548173ffffffffffffffffffffffffffffffffffffffff021916908373ffffffffffffffffffffffffffffffffffffffff16021790555082601260006101000a81548173ffffffffffffffffffffffffffffffffffffffff021916908373ffffffffffffffffffffffffffffffffffffffff160217905550620002426200025860201b60201c565b505050505050505062000534565b600033905090565b6000600560008154809291906200026f9062000488565b91905055506040518060a001604052806200028f6200036260201b60201c565b8152602001620002a46200036260201b60201c565b8152602001600081526020016000801b8152602001600015158152506009600060055481526020019081526020016000206000820151816000015560208201518160010155604082015181600201556060820151816003015560808201518160040160006101000a81548160ff0219169083151502179055509050507fa35bd591310404f547e67d0f261a54d0a2a7606bf1695c5e9134f4259805eb7c6005546040516200035391906200042b565b60405180910390a16001905090565b600042905090565b828054620003789062000452565b90600052602060002090601f0160209004810192826200039c5760008555620003e8565b82601f10620003b757805160ff1916838001178555620003e8565b82800160010185558215620003e8579182015b82811115620003e7578251825591602001919060010190620003ca565b5b509050620003f79190620003fb565b5090565b5b8082111562000416576000816000905550600101620003fc565b5090565b620004258162000448565b82525050565b60006020820190506200044260008301846200041a565b92915050565b6000819050919050565b600060028204905060018216806200046b57607f821691505b6020821081141562000482576200048162000505565b5b50919050565b6000620004958262000448565b91507fffffffffffffffffffffffffffffffffffffffffffffffffffffffffffffffff821415620004cb57620004ca620004d6565b5b600182019050919050565b7f4e487b7100000000000000000000000000000000000000000000000000000000600052601160045260246000fd5b7f4e487b7100000000000000000000000000000000000000000000000000000000600052602260045260246000fd5b61354180620005446000396000f3fe608060405234801561001057600080fd5b50600436106103835760003560e01c80639189a59e116101de578063c6289f251161010f578063df0dd0d5116100ad578063e97dcb621161007c578063e97dcb6214610acc578063ebec936214610aea578063f4f3b20014610b1a578063f5268d3714610b4a57610383565b8063df0dd0d514610a30578063e04cac4714610a60578063e56d71bc14610a7e578063e8665a0c14610aae57610383565b8063cf41d6f8116100e9578063cf41d6f8146109b8578063d6c90a88146109d6578063dd325f25146109f4578063ddca3f4314610a1257610383565b8063c6289f251461093a578063c932a7f71461096a578063cd15cf611461099a57610383565b8063a5a405441161017c578063b858bb6511610156578063b858bb651461089e578063b85d4be6146108ce578063b91c86f1146108ec578063be1f2cfd1461091c57610383565b8063a5a4054414610844578063af38c81014610862578063b5f10b381461088057610383565b80639cd5b0d6116101b85780639cd5b0d6146107ba5780639d76ea58146107d8578063a1dd2ac1146107f6578063a4b73a6d1461081457610383565b80639189a59e1461076057806397ba287c1461077e5780639ad572f51461079c57610383565b80634cec4ed1116102b85780637104ddb211610256578063841fd8fd11610230578063841fd8fd146106d657806386ae228f146106f457806387687952146107245780638c4d59d01461074257610383565b80637104ddb2146106585780637b5015c8146106765780637fb95ce2146106a657610383565b8063636ad6a611610292578063636ad6a6146105ce5780636691461a146105ec5780636da7b0d11461061c5780636dbeffbe1461063a57610383565b80634cec4ed11461055057806359acaa8c146105805780635d269be01461059e57610383565b80631e6cccf911610325578063392e2403116102ff578063392e2403146104d857806340c87c18146104f657806345ea375f14610514578063469048401461053257610383565b80631e6cccf91461046c5780632459c1fe1461048a57806330bd8d69146104ba57610383565b80630eecae21116103615780630eecae21146103f45780630f17ed021461041257806310fe9ae8146104305780631209b1f61461044e57610383565b806301681a621461038857806306fdde03146103b8578063093b13a7146103d6575b600080fd5b6103a2600480360381019061039d9190612900565b610b68565b6040516103af9190612f8a565b60405180910390f35b6103c0610d4f565b6040516103cd9190612fe9565b60405180910390f35b6103de610ddd565b6040516103eb9190612e79565b60405180910390f35b6103fc610e07565b6040516104099190612f8a565b60405180910390f35b61041a610e69565b60405161042791906130eb565b60405180910390f35b610438610e73565b6040516104459190612e79565b60405180910390f35b610456610e9d565b60405161046391906130eb565b60405180910390f35b610474610ea3565b60405161048191906130eb565b60405180910390f35b6104a4600480360381019061049f9190612900565b610ead565b6040516104b191906130eb565b60405180910390f35b6104c2610ec5565b6040516104cf91906130eb565b60405180910390f35b6104e0610ed1565b6040516104ed9190612fce565b60405180910390f35b6104fe610efd565b60405161050b91906130eb565b60405180910390f35b61051c610f07565b60405161052991906130eb565b60405180910390f35b61053a610f27565b6040516105479190612e79565b60405180910390f35b61056a60048036038101906105659190612900565b610f4d565b6040516105779190612f8a565b60405180910390f35b61058861102e565b60405161059591906130eb565b60405180910390f35b6105b860048036038101906105b3919061297b565b611034565b6040516105c591906130eb565b60405180910390f35b6105d6611054565b6040516105e391906130eb565b60405180910390f35b61060660048036038101906106019190612900565b61105e565b6040516106139190612f8a565b60405180910390f35b6106246110aa565b60405161063191906130eb565b60405180910390f35b6106426110b4565b60405161064f91906130eb565b60405180910390f35b6106606110ba565b60405161066d9190612e79565b60405180910390f35b610690600480360381019061068b919061297b565b6110e0565b60405161069d91906130eb565b60405180910390f35b6106c060048036038101906106bb9190612900565b611100565b6040516106cd91906130eb565b60405180910390f35b6106de611149565b6040516106eb9190612f6f565b60405180910390f35b61070e60048036038101906107099190612952565b611199565b60405161071b91906130eb565b60405180910390f35b61072c6111b9565b60405161073991906130eb565b60405180910390f35b61074a611207565b60405161075791906130eb565b60405180910390f35b61076861120d565b6040516107759190612e79565b60405180910390f35b610786611231565b60405161079391906130eb565b60405180910390f35b6107a4611237565b6040516107b19190612f8a565b60405180910390f35b6107c261126e565b6040516107cf91906130eb565b60405180910390f35b6107e0611274565b6040516107ed9190612e79565b60405180910390f35b6107fe61129a565b60405161080b91906130eb565b60405180910390f35b61082e6004803603810190610829919061297b565b6112ba565b60405161083b91906130eb565b60405180910390f35b61084c6112da565b60405161085991906130eb565b60405180910390f35b61086a6112e0565b6040516108779190612f8a565b60405180910390f35b610888611312565b6040516108959190612fe9565b60405180910390f35b6108b860048036038101906108b391906129cd565b6113a4565b6040516108c59190612fce565b60405180910390f35b6108d66113e2565b6040516108e391906130eb565b60405180910390f35b6109066004803603810190610901919061297b565b6113ec565b6040516109139190612f4d565b60405180910390f35b610924611494565b6040516109319190612f8a565b60405180910390f35b610954600480360381019061094f919061297b565b6114cd565b6040516109619190612fce565b60405180910390f35b610984600480360381019061097f9190612900565b6114ed565b60405161099191906130eb565b60405180910390f35b6109a2611536565b6040516109af91906130eb565b60405180910390f35b6109c061153c565b6040516109cd9190612f8a565b60405180910390f35b6109de6116db565b6040516109eb91906130eb565b60405180910390f35b6109fc611707565b604051610a0991906130eb565b60405180910390f35b610a1a611727565b604051610a2791906130eb565b60405180910390f35b610a4a6004803603810190610a459190612952565b61172d565b604051610a5791906130eb565b60405180910390f35b610a6861174b565b604051610a7591906130eb565b60405180910390f35b610a986004803603810190610a939190612952565b611755565b604051610aa59190612f2b565b60405180910390f35b610ab66117f9565b604051610ac39190612f8a565b60405180910390f35b610ad461192e565b604051610ae19190612f8a565b60405180910390f35b610b046004803603810190610aff9190612900565b611a44565b604051610b1191906130eb565b60405180910390f35b610b346004803603810190610b2f9190612900565b611a5c565b604051610b419190612f8a565b60405180910390f35b610b52611cb3565b604051610b5f91906130eb565b60405180910390f35b60008060009054906101000a900473ffffffffffffffffffffffffffffffffffffffff1673ffffffffffffffffffffffffffffffffffffffff16610baa611cbd565b73ffffffffffffffffffffffffffffffffffffffff1614610c00576040517f08c379a0000000000000000000000000000000000000000000000000000000008152600401610bf79061308b565b60405180910390fd5b60008273ffffffffffffffffffffffffffffffffffffffff166370a08231306040518263ffffffff1660e01b8152600401610c3b9190612e79565b60206040518083038186803b158015610c5357600080fd5b505afa158015610c67573d6000803e3d6000fd5b505050506040513d601f19601f82011682018060405250810190610c8b91906129a4565b90506000811115610d45578273ffffffffffffffffffffffffffffffffffffffff1663a9059cbb60008054906101000a900473ffffffffffffffffffffffffffffffffffffffff16836040518363ffffffff1660e01b8152600401610cf1929190612f02565b602060405180830381600087803b158015610d0b57600080fd5b505af1158015610d1f573d6000803e3d6000fd5b505050506040513d601f19601f82011682018060405250810190610d439190612929565b505b6001915050919050565b60018054610d5c9061335b565b80601f0160208091040260200160405190810160405280929190818152602001828054610d889061335b565b8015610dd55780601f10610daa57610100808354040283529160200191610dd5565b820191906000526020600020905b815481529060010190602001808311610db857829003601f168201915b505050505081565b6000601260009054906101000a900473ffffffffffffffffffffffffffffffffffffffff16905090565b6000610e11611237565b610e50576040517f08c379a0000000000000000000000000000000000000000000000000000000008152600401610e479061300b565b60405180910390fd5b610e58611cc5565b50610e61611cf2565b506001905090565b6000600554905090565b6000601260009054906101000a900473ffffffffffffffffffffffffffffffffffffffff16905090565b60035481565b6000601054905090565b60116020528060005260406000206000915090505481565b670de0b6b3a764000081565b6000600960006001600554610ee691906132a2565b815260200190815260200160002060030154905090565b6000600454905090565b600060096000600554815260200190815260200160002060020154905090565b600e60009054906101000a900473ffffffffffffffffffffffffffffffffffffffff1681565b60008060009054906101000a900473ffffffffffffffffffffffffffffffffffffffff1673ffffffffffffffffffffffffffffffffffffffff16610f8f611cbd565b73ffffffffffffffffffffffffffffffffffffffff1614610fe5576040517f08c379a0000000000000000000000000000000000000000000000000000000008152600401610fdc9061302b565b60405180910390fd5b816000806101000a81548173ffffffffffffffffffffffffffffffffffffffff021916908373ffffffffffffffffffffffffffffffffffffffff16021790555060019050919050565b60105481565b600060096000838152602001908152602001600020600101549050919050565b6000600354905090565b600081601260006101000a81548173ffffffffffffffffffffffffffffffffffffffff021916908373ffffffffffffffffffffffffffffffffffffffff16021790555060019050919050565b6000600754905090565b60045481565b600f60009054906101000a900473ffffffffffffffffffffffffffffffffffffffff1681565b600060096000838152602001908152602001600020600201549050919050565b6000601160008373ffffffffffffffffffffffffffffffffffffffff1673ffffffffffffffffffffffffffffffffffffffff168152602001908152602001600020549050919050565b6111516127ce565b6040518060a00160405280611164611dd8565b81526020016005611173611dd8565b61117d91906133e0565b8152602001438152602001428152602001600754815250905090565b6000600a6000838152602001908152602001600020600101549050919050565b6000600c60006111c7611cbd565b73ffffffffffffffffffffffffffffffffffffffff1673ffffffffffffffffffffffffffffffffffffffff16815260200190815260200160002054905090565b60075481565b60008054906101000a900473ffffffffffffffffffffffffffffffffffffffff1681565b60065481565b60006002546009600060055481526020019081526020016000206001015461125d611e0f565b61126791906132a2565b1015905090565b60085481565b601260009054906101000a900473ffffffffffffffffffffffffffffffffffffffff1681565b600060096000600554815260200190815260200160002060010154905090565b600060096000838152602001908152602001600020600001549050919050565b60025481565b60008060001b6009600060016005546112f991906132a2565b8152602001908152602001600020600301541415905090565b6060600180546113219061335b565b80601f016020809104026020016040519081016040528092919081815260200182805461134d9061335b565b801561139a5780601f1061136f5761010080835404028352916020019161139a565b820191906000526020600020905b81548152906001019060200180831161137d57829003601f168201915b5050505050905090565b600b60205282600052604060002060205281600052604060002081815481106113cc57600080fd5b9060005260206000200160009250925050505481565b6000600554905090565b6060600b600083815260200190815260200160002060003373ffffffffffffffffffffffffffffffffffffffff1673ffffffffffffffffffffffffffffffffffffffff16815260200190815260200160002080548060200260200160405190810160405280929190818152602001828054801561148857602002820191906000526020600020905b815481526020019060010190808311611474575b50505050509050919050565b60006009600060016005546114a991906132a2565b815260200190815260200160002060040160009054906101000a900460ff16905090565b600060096000838152602001908152602001600020600301549050919050565b6000600c60008373ffffffffffffffffffffffffffffffffffffffff1673ffffffffffffffffffffffffffffffffffffffff168152602001908152602001600020549050919050565b60055481565b600080600c600061154b611cbd565b73ffffffffffffffffffffffffffffffffffffffff1673ffffffffffffffffffffffffffffffffffffffff1681526020019081526020016000205414156115c7576040517f08c379a00000000000000000000000000000000000000000000000000000000081526004016115be9061306b565b60405180910390fd5b6115cf611e17565b5060006115da611e1c565b9050601260009054906101000a900473ffffffffffffffffffffffffffffffffffffffff1673ffffffffffffffffffffffffffffffffffffffff1663a9059cbb611622611cbd565b836040518363ffffffff1660e01b8152600401611640929190612f02565b602060405180830381600087803b15801561165a57600080fd5b505af115801561166e573d6000803e3d6000fd5b505050506040513d601f19601f820116820180604052508101906116929190612929565b507f481007a75a4407f69a4ebcf25782e3537f6d76c13b46f71db08ae80c2b699e076116bc611cbd565b826040516116cb929190612f02565b60405180910390a1600191505090565b60006009600060016005546116f091906132a2565b815260200190815260200160002060020154905090565b600060096000600554815260200190815260200160002060000154905090565b600d5481565b600a6020528060005260406000206000915090508060010154905081565b6000600254905090565b6060600a60008381526020019081526020016000206000018054806020026020016040519081016040528092919081815260200182805480156117ed57602002820191906000526020600020905b8160009054906101000a900473ffffffffffffffffffffffffffffffffffffffff1673ffffffffffffffffffffffffffffffffffffffff16815260200190600101908083116117a3575b50505050509050919050565b6000600e60009054906101000a900473ffffffffffffffffffffffffffffffffffffffff1673ffffffffffffffffffffffffffffffffffffffff163373ffffffffffffffffffffffffffffffffffffffff161461188b576040517f08c379a0000000000000000000000000000000000000000000000000000000008152600401611882906130cb565b60405180910390fd5b6000601054116118d0576040517f08c379a00000000000000000000000000000000000000000000000000000000081526004016118c7906130ab565b60405180910390fd5b6000601054905060006010819055503373ffffffffffffffffffffffffffffffffffffffff166108fc829081150290604051600060405180830381858888f19350505050158015611925573d6000803e3d6000fd5b50600191505090565b6000600354601260009054906101000a900473ffffffffffffffffffffffffffffffffffffffff1673ffffffffffffffffffffffffffffffffffffffff166370a08231611979611cbd565b6040518263ffffffff1660e01b81526004016119959190612e79565b60206040518083038186803b1580156119ad57600080fd5b505afa1580156119c1573d6000803e3d6000fd5b505050506040513d601f19601f820116820180604052508101906119e591906129a4565b1015611a26576040517f08c379a0000000000000000000000000000000000000000000000000000000008152600401611a1d9061304b565b60405180910390fd5b6000611a30611ebb565b9050611a3b81611fb0565b50600191505090565b600c6020528060005260406000206000915090505481565b6000600e60009054906101000a900473ffffffffffffffffffffffffffffffffffffffff1673ffffffffffffffffffffffffffffffffffffffff163373ffffffffffffffffffffffffffffffffffffffff1614611aee576040517f08c379a0000000000000000000000000000000000000000000000000000000008152600401611ae5906130cb565b60405180910390fd5b6000601160008473ffffffffffffffffffffffffffffffffffffffff1673ffffffffffffffffffffffffffffffffffffffff1681526020019081526020016000205411611b70576040517f08c379a0000000000000000000000000000000000000000000000000000000008152600401611b67906130ab565b60405180910390fd5b6000601160008473ffffffffffffffffffffffffffffffffffffffff1673ffffffffffffffffffffffffffffffffffffffff1681526020019081526020016000205490506000601160008573ffffffffffffffffffffffffffffffffffffffff1673ffffffffffffffffffffffffffffffffffffffff168152602001908152602001600020819055508273ffffffffffffffffffffffffffffffffffffffff1663a9059cbb600e60009054906101000a900473ffffffffffffffffffffffffffffffffffffffff16836040518363ffffffff1660e01b8152600401611c56929190612f02565b602060405180830381600087803b158015611c7057600080fd5b505af1158015611c84573d6000803e3d6000fd5b505050506040513d601f19601f82011682018060405250810190611ca89190612929565b506001915050919050565b6000600654905090565b600033905090565b6000611ccf611e0f565b600960006005548152602001908152602001600020600101819055506001905090565b600080611cfd612104565b90506000801b811415611d665760066000815480929190611d1d9061338d565b91905055507fe0dbc9529120eb99dfdd738608a453baef8223964340a20ebbc2d79558ea1f9a600082604051611d54929190612fa5565b60405180910390a16000915050611dd5565b8060096000600554815260200190815260200160002060030181905550611d8b612156565b50611d946121cb565b507fe0dbc9529120eb99dfdd738608a453baef8223964340a20ebbc2d79558ea1f9a600182604051611dc7929190612fa5565b60405180910390a160019150505b90565b60004243600754604051602001611df193929190612e3c565b6040516020818303038152906040528051906020012060001c905090565b600042905090565b600090565b600080600c6000611e2b611cbd565b73ffffffffffffffffffffffffffffffffffffffff1673ffffffffffffffffffffffffffffffffffffffff1681526020019081526020016000205490506000600c6000611e76611cbd565b73ffffffffffffffffffffffffffffffffffffffff1673ffffffffffffffffffffffffffffffffffffffff168152602001908152602001600020819055508091505090565b600080611eec601260009054906101000a900473ffffffffffffffffffffffffffffffffffffffff166003546121ec565b9050601260009054906101000a900473ffffffffffffffffffffffffffffffffffffffff1673ffffffffffffffffffffffffffffffffffffffff166323b872dd611f34611cbd565b306003546040518463ffffffff1660e01b8152600401611f5693929190612e94565b602060405180830381600087803b158015611f7057600080fd5b505af1158015611f84573d6000803e3d6000fd5b505050506040513d601f19601f82011682018060405250810190611fa89190612929565b508091505090565b600060076000815480929190611fc59061338d565b919050555060035460086000828254611fde91906131c1565b9250508190555081600960006005548152602001908152602001600020600201600082825461200d91906131c1565b92505081905550600061201e61226b565b9050600b60006005548152602001908152602001600020600061203f611cbd565b73ffffffffffffffffffffffffffffffffffffffff1673ffffffffffffffffffffffffffffffffffffffff1681526020019081526020016000208190806001815401808255809150506001900390600052602060002001600090919091909150557f1a68cfba6503f189182fd0e12b64a6c8b19d129ee1bb7aba124ab08d8a57e4686120c9611cbd565b82600960006005548152602001908152602001600020600201546040516120f293929190612ecb565b60405180910390a16001915050919050565b60008061210f61247b565b9050600061211c826124a2565b90506000600a600083815260200190815260200160002060000180549050111561214a578092505050612153565b6000801b925050505b90565b6000600160096000600554815260200190815260200160002060040160006101000a81548160ff0219169083151502179055506121916124df565b6121c4577f4e487b7100000000000000000000000000000000000000000000000000000000600052600160045260246000fd5b6001905090565b60008060068190555060006007819055506121e46126a9565b506001905090565b6000806121f88361279f565b905080601160008673ffffffffffffffffffffffffffffffffffffffff1673ffffffffffffffffffffffffffffffffffffffff168152602001908152602001600020600082825461224991906131c1565b925050819055506000818461225e91906132a2565b9050809250505092915050565b60008061227661247b565b90506000612283826124a2565b90506000600a600083815260200190815260200160002060000180549050111561232f57600a60008281526020019081526020016000206000016122c5611cbd565b9080600181540180825580915050600190039060005260206000200160009091909190916101000a81548173ffffffffffffffffffffffffffffffffffffffff021916908373ffffffffffffffffffffffffffffffffffffffff1602179055508092505050612478565b6000600167ffffffffffffffff811115612372577f4e487b7100000000000000000000000000000000000000000000000000000000600052604160045260246000fd5b6040519080825280602002602001820160405280156123a05781602001602082028036833780820191505090505b5090506123ab611cbd565b816000815181106123e5577f4e487b7100000000000000000000000000000000000000000000000000000000600052603260045260246000fd5b602002602001019073ffffffffffffffffffffffffffffffffffffffff16908173ffffffffffffffffffffffffffffffffffffffff1681525050604051806040016040528082815260200184815250600a600084815260200190815260200160002060008201518160000190805190602001906124639291906127f0565b50602082015181600101559050508193505050505b90565b600080612486611dd8565b905060006004548261249891906133e0565b9050809250505090565b600080600554600654846040516020016124be93929190612e3c565b60405160208183030381529060405280519060200120905080915050919050565b60008060096000600554815260200190815260200160002060030154905060006009600060055481526020019081526020016000206002015490506000600a6000848152602001908152602001600020600001805490509050600081836125469190613217565b90506000600a60008681526020019081526020016000206000018054806020026020016040519081016040528092919081815260200182805480156125e057602002820191906000526020600020905b8160009054906101000a900473ffffffffffffffffffffffffffffffffffffffff1673ffffffffffffffffffffffffffffffffffffffff1681526020019060010190808311612596575b5050505050905060005b815181101561269c5782600c6000848481518110612631577f4e487b7100000000000000000000000000000000000000000000000000000000600052603260045260246000fd5b602002602001015173ffffffffffffffffffffffffffffffffffffffff1673ffffffffffffffffffffffffffffffffffffffff168152602001908152602001600020600082825461268291906131c1565b9250508190555080806126949061338d565b9150506125ea565b5060019550505050505090565b6000600560008154809291906126be9061338d565b91905055506040518060a001604052806126d6611e0f565b81526020016126e3611e0f565b8152602001600081526020016000801b8152602001600015158152506009600060055481526020019081526020016000206000820151816000015560208201518160010155604082015181600201556060820151816003015560808201518160040160006101000a81548160ff0219169083151502179055509050507fa35bd591310404f547e67d0f261a54d0a2a7606bf1695c5e9134f4259805eb7c60055460405161279091906130eb565b60405180910390a16001905090565b600080670de0b6b3a7640000600d54846127b99190613248565b6127c39190613217565b905080915050919050565b6040518060a00160405280600590602082028036833780820191505090505090565b828054828255906000526020600020908101928215612869579160200282015b828111156128685782518260006101000a81548173ffffffffffffffffffffffffffffffffffffffff021916908373ffffffffffffffffffffffffffffffffffffffff16021790555091602001919060010190612810565b5b509050612876919061287a565b5090565b5b8082111561289357600081600090555060010161287b565b5090565b6000813590506128a6816134af565b92915050565b6000815190506128bb816134c6565b92915050565b6000813590506128d0816134dd565b92915050565b6000813590506128e5816134f4565b92915050565b6000815190506128fa816134f4565b92915050565b60006020828403121561291257600080fd5b600061292084828501612897565b91505092915050565b60006020828403121561293b57600080fd5b6000612949848285016128ac565b91505092915050565b60006020828403121561296457600080fd5b6000612972848285016128c1565b91505092915050565b60006020828403121561298d57600080fd5b600061299b848285016128d6565b91505092915050565b6000602082840312156129b657600080fd5b60006129c4848285016128eb565b91505092915050565b6000806000606084860312156129e257600080fd5b60006129f0868287016128d6565b9350506020612a0186828701612897565b9250506040612a12868287016128d6565b9150509250925092565b6000612a288383612a64565b60208301905092915050565b6000612a408383612ba4565b60208301905092915050565b6000612a588383612e07565b60208301905092915050565b612a6d816132d6565b82525050565b612a7c816132d6565b82525050565b6000612a8d82613130565b612a978185613183565b9350612aa283613106565b8060005b83811015612ad3578151612aba8882612a1c565b9750612ac58361315c565b925050600181019050612aa6565b5085935050505092915050565b6000612aeb8261313b565b612af58185613194565b9350612b0083613116565b8060005b83811015612b31578151612b188882612a34565b9750612b2383613169565b925050600181019050612b04565b5085935050505092915050565b612b4781613146565b612b5181846131a5565b9250612b5c82613126565b8060005b83811015612b8d578151612b748782612a4c565b9650612b7f83613176565b925050600181019050612b60565b505050505050565b612b9e816132e8565b82525050565b612bad816132f4565b82525050565b612bbc816132f4565b82525050565b6000612bcd82613151565b612bd781856131b0565b9350612be7818560208601613328565b612bf08161349e565b840191505092915050565b6000612c08602b836131b0565b91507f6e6f7420656e6f7567682074696d652068617320656c61707365642073696e6360008301527f65206c61737420647261770000000000000000000000000000000000000000006020830152604082019050919050565b6000612c6e6029836131b0565b91507f4f6e6c792074686520737765657065722063616e2061737369676e206120726560008301527f706c6163656d656e7400000000000000000000000000000000000000000000006020830152604082019050919050565b6000612cd4601a836131b0565b91507f6e6f7420656e6f75676820746f6b656e7320746f20656e7465720000000000006000830152602082019050919050565b6000612d14601a836131b0565b91507f796f7520617265206e6f74206f77656420616e79206d6f6e65790000000000006000830152602082019050919050565b6000612d546013836131b0565b91507f6d757374206265207468652073776565706572000000000000000000000000006000830152602082019050919050565b6000612d946019836131b0565b91507f796f752068617665206e6f7468696e6720746f20636c61696d000000000000006000830152602082019050919050565b6000612dd4601d836131b0565b91507f596f7520617265206e6f74207468652066656520726563697069656e740000006000830152602082019050919050565b612e108161331e565b82525050565b612e1f8161331e565b82525050565b612e36612e318261331e565b6133d6565b82525050565b6000612e488286612e25565b602082019150612e588285612e25565b602082019150612e688284612e25565b602082019150819050949350505050565b6000602082019050612e8e6000830184612a73565b92915050565b6000606082019050612ea96000830186612a73565b612eb66020830185612a73565b612ec36040830184612e16565b949350505050565b6000606082019050612ee06000830186612a73565b612eed6020830185612bb3565b612efa6040830184612e16565b949350505050565b6000604082019050612f176000830185612a73565b612f246020830184612e16565b9392505050565b60006020820190508181036000830152612f458184612a82565b905092915050565b60006020820190508181036000830152612f678184612ae0565b905092915050565b600060a082019050612f846000830184612b3e565b92915050565b6000602082019050612f9f6000830184612b95565b92915050565b6000604082019050612fba6000830185612b95565b612fc76020830184612bb3565b9392505050565b6000602082019050612fe36000830184612bb3565b92915050565b600060208201905081810360008301526130038184612bc2565b905092915050565b6000602082019050818103600083015261302481612bfb565b9050919050565b6000602082019050818103600083015261304481612c61565b9050919050565b6000602082019050818103600083015261306481612cc7565b9050919050565b6000602082019050818103600083015261308481612d07565b9050919050565b600060208201905081810360008301526130a481612d47565b9050919050565b600060208201905081810360008301526130c481612d87565b9050919050565b600060208201905081810360008301526130e481612dc7565b9050919050565b60006020820190506131006000830184612e16565b92915050565b6000819050602082019050919050565b6000819050602082019050919050565b6000819050919050565b600081519050919050565b600081519050919050565b600060059050919050565b600081519050919050565b6000602082019050919050565b6000602082019050919050565b6000602082019050919050565b600082825260208201905092915050565b600082825260208201905092915050565b600081905092915050565b600082825260208201905092915050565b60006131cc8261331e565b91506131d78361331e565b9250827fffffffffffffffffffffffffffffffffffffffffffffffffffffffffffffffff0382111561320c5761320b613411565b5b828201905092915050565b60006132228261331e565b915061322d8361331e565b92508261323d5761323c613440565b5b828204905092915050565b60006132538261331e565b915061325e8361331e565b9250817fffffffffffffffffffffffffffffffffffffffffffffffffffffffffffffffff048311821515161561329757613296613411565b5b828202905092915050565b60006132ad8261331e565b91506132b88361331e565b9250828210156132cb576132ca613411565b5b828203905092915050565b60006132e1826132fe565b9050919050565b60008115159050919050565b6000819050919050565b600073ffffffffffffffffffffffffffffffffffffffff82169050919050565b6000819050919050565b60005b8381101561334657808201518184015260208101905061332b565b83811115613355576000848401525b50505050565b6000600282049050600182168061337357607f821691505b602082108114156133875761338661346f565b5b50919050565b60006133988261331e565b91507fffffffffffffffffffffffffffffffffffffffffffffffffffffffffffffffff8214156133cb576133ca613411565b5b600182019050919050565b6000819050919050565b60006133eb8261331e565b91506133f68361331e565b92508261340657613405613440565b5b828206905092915050565b7f4e487b7100000000000000000000000000000000000000000000000000000000600052601160045260246000fd5b7f4e487b7100000000000000000000000000000000000000000000000000000000600052601260045260246000fd5b7f4e487b7100000000000000000000000000000000000000000000000000000000600052602260045260246000fd5b6000601f19601f8301169050919050565b6134b8816132d6565b81146134c357600080fd5b50565b6134cf816132e8565b81146134da57600080fd5b50565b6134e6816132f4565b81146134f157600080fd5b50565b6134fd8161331e565b811461350857600080fd5b5056fea2646970667358221220a0568cd246739c70984ca55b84c96a3bd64107c64bed77b982367db10c6f3c8d64736f6c63430008000033",
  "linkReferences": {},
  "deployedLinkReferences": {}
}