{
  "_format": "hh-sol-artifact-1",
  "contractName": "RevenueStream",
  "sourceName": "contracts/Utils/RevenueStream.sol",
  "abi": [
    {
      "inputs": [
        {
          "internalType": "address",
          "name": "",
          "type": "address"
        }
      ],
      "name": "ERC20DebtToRecipient",
      "outputs": [
        {
          "internalType": "uint256",
          "name": "",
          "type": "uint256"
        }
      ],
      "stateMutability": "view",
      "type": "function"
    },
    {
      "inputs": [],
      "name": "ethDecimals",
      "outputs": [
        {
          "internalType": "uint256",
          "name": "",
          "type": "uint256"
        }
      ],
      "stateMutability": "view",
      "type": "function"
    },
    {
      "inputs": [],
      "name": "fantomDebtToRecipient",
      "outputs": [
        {
          "internalType": "uint256",
          "name": "",
          "type": "uint256"
        }
      ],
      "stateMutability": "view",
      "type": "function"
    },
    {
      "inputs": [],
      "name": "fee",
      "outputs": [
        {
          "internalType": "uint256",
          "name": "",
          "type": "uint256"
        }
      ],
      "stateMutability": "view",
      "type": "function"
    },
    {
      "inputs": [],
      "name": "feeRecipient",
      "outputs": [
        {
          "internalType": "address",
          "name": "",
          "type": "address"
        }
      ],
      "stateMutability": "view",
      "type": "function"
    },
    {
      "inputs": [],
      "name": "self",
      "outputs": [
        {
          "internalType": "address",
          "name": "",
          "type": "address"
        }
      ],
      "stateMutability": "view",
      "type": "function"
    },
    {
      "inputs": [],
      "name": "viewFantomCollected",
      "outputs": [
        {
          "internalType": "uint256",
          "name": "",
          "type": "uint256"
        }
      ],
      "stateMutability": "view",
      "type": "function"
    },
    {
      "inputs": [
        {
          "internalType": "address",
          "name": "_token",
          "type": "address"
        }
      ],
      "name": "viewTokensCollected",
      "outputs": [
        {
          "internalType": "uint256",
          "name": "",
          "type": "uint256"
        }
      ],
      "stateMutability": "view",
      "type": "function"
    },
    {
      "inputs": [
        {
          "internalType": "address",
          "name": "ERC20Address",
          "type": "address"
        }
      ],
      "name": "withdrawERC20",
      "outputs": [
        {
          "internalType": "bool",
          "name": "",
          "type": "bool"
        }
      ],
      "stateMutability": "nonpayable",
      "type": "function"
    },
    {
      "inputs": [],
      "name": "withdrawFantom",
      "outputs": [
        {
          "internalType": "bool",
          "name": "",
          "type": "bool"
        }
      ],
      "stateMutability": "nonpayable",
      "type": "function"
    }
  ],
  "bytecode": "0x608060405230600260006101000a81548173ffffffffffffffffffffffffffffffffffffffff021916908373ffffffffffffffffffffffffffffffffffffffff16021790555034801561005157600080fd5b50610900806100616000396000f3fe608060405234801561001057600080fd5b506004361061009e5760003560e01c80637104ddb2116100665780637104ddb21461014b5780637fb95ce214610169578063ddca3f4314610199578063e8665a0c146101b7578063f4f3b200146101d55761009e565b80631e6cccf9146100a35780632459c1fe146100c157806330bd8d69146100f1578063469048401461010f57806359acaa8c1461012d575b600080fd5b6100ab610205565b6040516100b89190610828565b60405180910390f35b6100db60048036038101906100d6919061068a565b61020f565b6040516100e89190610828565b60405180910390f35b6100f9610227565b6040516101069190610828565b60405180910390f35b610117610233565b6040516101249190610789565b60405180910390f35b610135610259565b6040516101429190610828565b60405180910390f35b61015361025f565b6040516101609190610789565b60405180910390f35b610183600480360381019061017e919061068a565b610285565b6040516101909190610828565b60405180910390f35b6101a16102ce565b6040516101ae9190610828565b60405180910390f35b6101bf6102d4565b6040516101cc91906107cd565b60405180910390f35b6101ef60048036038101906101ea919061068a565b610409565b6040516101fc91906107cd565b60405180910390f35b6000600354905090565b60046020528060005260406000206000915090505481565b670de0b6b3a764000081565b600160009054906101000a900473ffffffffffffffffffffffffffffffffffffffff1681565b60035481565b600260009054906101000a900473ffffffffffffffffffffffffffffffffffffffff1681565b6000600460008373ffffffffffffffffffffffffffffffffffffffff1673ffffffffffffffffffffffffffffffffffffffff168152602001908152602001600020549050919050565b60005481565b6000600160009054906101000a900473ffffffffffffffffffffffffffffffffffffffff1673ffffffffffffffffffffffffffffffffffffffff163373ffffffffffffffffffffffffffffffffffffffff1614610366576040517f08c379a000000000000000000000000000000000000000000000000000000000815260040161035d90610808565b60405180910390fd5b6000600354116103ab576040517f08c379a00000000000000000000000000000000000000000000000000000000081526004016103a2906107e8565b60405180910390fd5b6000600354905060006003819055503373ffffffffffffffffffffffffffffffffffffffff166108fc829081150290604051600060405180830381858888f19350505050158015610400573d6000803e3d6000fd5b50600191505090565b6000600160009054906101000a900473ffffffffffffffffffffffffffffffffffffffff1673ffffffffffffffffffffffffffffffffffffffff163373ffffffffffffffffffffffffffffffffffffffff161461049b576040517f08c379a000000000000000000000000000000000000000000000000000000000815260040161049290610808565b60405180910390fd5b6000600460008473ffffffffffffffffffffffffffffffffffffffff1673ffffffffffffffffffffffffffffffffffffffff168152602001908152602001600020541161051d576040517f08c379a0000000000000000000000000000000000000000000000000000000008152600401610514906107e8565b60405180910390fd5b6000600460008473ffffffffffffffffffffffffffffffffffffffff1673ffffffffffffffffffffffffffffffffffffffff1681526020019081526020016000205490506000600460008573ffffffffffffffffffffffffffffffffffffffff1673ffffffffffffffffffffffffffffffffffffffff168152602001908152602001600020819055508273ffffffffffffffffffffffffffffffffffffffff1663a9059cbb600160009054906101000a900473ffffffffffffffffffffffffffffffffffffffff16836040518363ffffffff1660e01b81526004016106039291906107a4565b602060405180830381600087803b15801561061d57600080fd5b505af1158015610631573d6000803e3d6000fd5b505050506040513d601f19601f8201168201806040525081019061065591906106b3565b506001915050919050565b60008135905061066f8161089c565b92915050565b600081519050610684816108b3565b92915050565b60006020828403121561069c57600080fd5b60006106aa84828501610660565b91505092915050565b6000602082840312156106c557600080fd5b60006106d384828501610675565b91505092915050565b6106e581610854565b82525050565b6106f481610866565b82525050565b6000610707601983610843565b91507f796f752068617665206e6f7468696e6720746f20636c61696d000000000000006000830152602082019050919050565b6000610747601d83610843565b91507f596f7520617265206e6f74207468652066656520726563697069656e740000006000830152602082019050919050565b61078381610892565b82525050565b600060208201905061079e60008301846106dc565b92915050565b60006040820190506107b960008301856106dc565b6107c6602083018461077a565b9392505050565b60006020820190506107e260008301846106eb565b92915050565b60006020820190508181036000830152610801816106fa565b9050919050565b600060208201905081810360008301526108218161073a565b9050919050565b600060208201905061083d600083018461077a565b92915050565b600082825260208201905092915050565b600061085f82610872565b9050919050565b60008115159050919050565b600073ffffffffffffffffffffffffffffffffffffffff82169050919050565b6000819050919050565b6108a581610854565b81146108b057600080fd5b50565b6108bc81610866565b81146108c757600080fd5b5056fea2646970667358221220b7d8041ca5b58e2822587d9cb5c54671092b06dc17655b8ab8751df5ffcd568d64736f6c63430008000033",
  "linkReferences": {},
  "deployedLinkReferences": {}
}