{
  "_format": "hh-sol-artifact-1",
  "contractName": "Incentivized",
  "sourceName": "contracts/Utils/Incentivized.sol",
  "abi": [
    {
      "inputs": [
        {
          "internalType": "address",
          "name": "_incentiveToken",
          "type": "address"
        },
        {
          "internalType": "uint256",
          "name": "_amountPerEntry",
          "type": "uint256"
        }
      ],
      "stateMutability": "nonpayable",
      "type": "constructor"
    },
    {
      "inputs": [],
      "name": "amountPerEntry",
      "outputs": [
        {
          "internalType": "uint256",
          "name": "",
          "type": "uint256"
        }
      ],
      "stateMutability": "view",
      "type": "function"
    },
    {
      "inputs": [
        {
          "internalType": "uint256",
          "name": "_amount",
          "type": "uint256"
        }
      ],
      "name": "fund",
      "outputs": [
        {
          "internalType": "bool",
          "name": "",
          "type": "bool"
        }
      ],
      "stateMutability": "nonpayable",
      "type": "function"
    },
    {
      "inputs": [],
      "name": "incentiveToken",
      "outputs": [
        {
          "internalType": "address",
          "name": "",
          "type": "address"
        }
      ],
      "stateMutability": "view",
      "type": "function"
    }
  ],
  "bytecode": "0x608060405234801561001057600080fd5b506040516104d43803806104d4833981810160405281019061003291906100aa565b816000806101000a81548173ffffffffffffffffffffffffffffffffffffffff021916908373ffffffffffffffffffffffffffffffffffffffff160217905550806001819055505050610150565b60008151905061008f81610122565b92915050565b6000815190506100a481610139565b92915050565b600080604083850312156100bd57600080fd5b60006100cb85828601610080565b92505060206100dc85828601610095565b9150509250929050565b60006100f1826100f8565b9050919050565b600073ffffffffffffffffffffffffffffffffffffffff82169050919050565b6000819050919050565b61012b816100e6565b811461013657600080fd5b50565b61014281610118565b811461014d57600080fd5b50565b6103758061015f6000396000f3fe608060405234801561001057600080fd5b50600436106100415760003560e01c80631d86446f14610046578063638126f814610064578063ca1d209d14610082575b600080fd5b61004e6100b2565b60405161005b91906102ae565b60405180910390f35b61006c6100b8565b6040516100799190610241565b60405180910390f35b61009c600480360381019061009791906101eb565b6100dc565b6040516100a99190610293565b60405180910390f35b60015481565b60008054906101000a900473ffffffffffffffffffffffffffffffffffffffff1681565b60008060009054906101000a900473ffffffffffffffffffffffffffffffffffffffff1673ffffffffffffffffffffffffffffffffffffffff166323b872dd3330856040518463ffffffff1660e01b815260040161013c9392919061025c565b602060405180830381600087803b15801561015657600080fd5b505af115801561016a573d6000803e3d6000fd5b505050506040513d601f19601f8201168201806040525081019061018e91906101c2565b5060019050919050565b6000815190506101a781610311565b92915050565b6000813590506101bc81610328565b92915050565b6000602082840312156101d457600080fd5b60006101e284828501610198565b91505092915050565b6000602082840312156101fd57600080fd5b600061020b848285016101ad565b91505092915050565b61021d816102c9565b82525050565b61022c816102db565b82525050565b61023b81610307565b82525050565b60006020820190506102566000830184610214565b92915050565b60006060820190506102716000830186610214565b61027e6020830185610214565b61028b6040830184610232565b949350505050565b60006020820190506102a86000830184610223565b92915050565b60006020820190506102c36000830184610232565b92915050565b60006102d4826102e7565b9050919050565b60008115159050919050565b600073ffffffffffffffffffffffffffffffffffffffff82169050919050565b6000819050919050565b61031a816102db565b811461032557600080fd5b50565b61033181610307565b811461033c57600080fd5b5056fea2646970667358221220bc0385716976e277326009ce72a20f2eec200abaf2398951dd855c0591cb70ba64736f6c63430008000033",
  "linkReferences": {},
  "deployedLinkReferences": {}
}