{
  "_format": "hh-sol-artifact-1",
  "contractName": "FantomLotteryHelper",
  "sourceName": "contracts/TestHelpers/FantomLotteryHelper.sol",
  "abi": [
    {
      "inputs": [],
      "stateMutability": "nonpayable",
      "type": "constructor"
    },
    {
      "anonymous": false,
      "inputs": [
        {
          "indexed": false,
          "internalType": "bool",
          "name": "winnerSelected",
          "type": "bool"
        },
        {
          "indexed": false,
          "internalType": "bytes32",
          "name": "winningTicket",
          "type": "bytes32"
        }
      ],
      "name": "newDraw",
      "type": "event"
    },
    {
      "anonymous": false,
      "inputs": [
        {
          "indexed": false,
          "internalType": "address",
          "name": "entrant",
          "type": "address"
        },
        {
          "indexed": false,
          "internalType": "bytes32",
          "name": "ticketID",
          "type": "bytes32"
        },
        {
          "indexed": false,
          "internalType": "uint256",
          "name": "totalPot",
          "type": "uint256"
        }
      ],
      "name": "newEntry",
      "type": "event"
    },
    {
      "anonymous": false,
      "inputs": [
        {
          "indexed": false,
          "internalType": "address",
          "name": "user",
          "type": "address"
        },
        {
          "indexed": false,
          "internalType": "uint256",
          "name": "amount",
          "type": "uint256"
        }
      ],
      "name": "newPayment",
      "type": "event"
    },
    {
      "anonymous": false,
      "inputs": [
        {
          "indexed": false,
          "internalType": "uint256",
          "name": "lottoNumber",
          "type": "uint256"
        }
      ],
      "name": "newRound",
      "type": "event"
    },
    {
      "inputs": [
        {
          "internalType": "address",
          "name": "",
          "type": "address"
        }
      ],
      "name": "ERC20DebtToRecipient",
      "outputs": [
        {
          "internalType": "uint256",
          "name": "",
          "type": "uint256"
        }
      ],
      "stateMutability": "view",
      "type": "function"
    },
    {
      "inputs": [
        {
          "internalType": "address",
          "name": "newSweeper",
          "type": "address"
        }
      ],
      "name": "changeSweeper",
      "outputs": [
        {
          "internalType": "bool",
          "name": "",
          "type": "bool"
        }
      ],
      "stateMutability": "nonpayable",
      "type": "function"
    },
    {
      "inputs": [],
      "name": "checkRandomness",
      "outputs": [
        {
          "internalType": "uint256[5]",
          "name": "",
          "type": "uint256[5]"
        }
      ],
      "stateMutability": "view",
      "type": "function"
    },
    {
      "inputs": [],
      "name": "currentDraw",
      "outputs": [
        {
          "internalType": "uint256",
          "name": "",
          "type": "uint256"
        }
      ],
      "stateMutability": "view",
      "type": "function"
    },
    {
      "inputs": [],
      "name": "currentLotto",
      "outputs": [
        {
          "internalType": "uint256",
          "name": "",
          "type": "uint256"
        }
      ],
      "stateMutability": "view",
      "type": "function"
    },
    {
      "inputs": [
        {
          "internalType": "address",
          "name": "",
          "type": "address"
        }
      ],
      "name": "debtToUser",
      "outputs": [
        {
          "internalType": "uint256",
          "name": "",
          "type": "uint256"
        }
      ],
      "stateMutability": "view",
      "type": "function"
    },
    {
      "inputs": [],
      "name": "didSomeoneWin",
      "outputs": [
        {
          "internalType": "bool",
          "name": "",
          "type": "bool"
        }
      ],
      "stateMutability": "view",
      "type": "function"
    },
    {
      "inputs": [],
      "name": "draw",
      "outputs": [
        {
          "internalType": "bool",
          "name": "",
          "type": "bool"
        }
      ],
      "stateMutability": "nonpayable",
      "type": "function"
    },
    {
      "inputs": [],
      "name": "drawFrequency",
      "outputs": [
        {
          "internalType": "uint256",
          "name": "",
          "type": "uint256"
        }
      ],
      "stateMutability": "view",
      "type": "function"
    },
    {
      "inputs": [],
      "name": "enter",
      "outputs": [
        {
          "internalType": "bool",
          "name": "",
          "type": "bool"
        }
      ],
      "stateMutability": "payable",
      "type": "function"
    },
    {
      "inputs": [],
      "name": "ethDecimals",
      "outputs": [
        {
          "internalType": "uint256",
          "name": "",
          "type": "uint256"
        }
      ],
      "stateMutability": "view",
      "type": "function"
    },
    {
      "inputs": [],
      "name": "fantomDebtToRecipient",
      "outputs": [
        {
          "internalType": "uint256",
          "name": "",
          "type": "uint256"
        }
      ],
      "stateMutability": "view",
      "type": "function"
    },
    {
      "inputs": [],
      "name": "fee",
      "outputs": [
        {
          "internalType": "uint256",
          "name": "",
          "type": "uint256"
        }
      ],
      "stateMutability": "view",
      "type": "function"
    },
    {
      "inputs": [],
      "name": "feeRecipient",
      "outputs": [
        {
          "internalType": "address",
          "name": "",
          "type": "address"
        }
      ],
      "stateMutability": "view",
      "type": "function"
    },
    {
      "inputs": [],
      "name": "getPaid",
      "outputs": [
        {
          "internalType": "bool",
          "name": "",
          "type": "bool"
        }
      ],
      "stateMutability": "nonpayable",
      "type": "function"
    },
    {
      "inputs": [],
      "name": "name",
      "outputs": [
        {
          "internalType": "string",
          "name": "",
          "type": "string"
        }
      ],
      "stateMutability": "view",
      "type": "function"
    },
    {
      "inputs": [],
      "name": "readyToDraw",
      "outputs": [
        {
          "internalType": "bool",
          "name": "",
          "type": "bool"
        }
      ],
      "stateMutability": "view",
      "type": "function"
    },
    {
      "inputs": [],
      "name": "self",
      "outputs": [
        {
          "internalType": "address",
          "name": "",
          "type": "address"
        }
      ],
      "stateMutability": "view",
      "type": "function"
    },
    {
      "inputs": [
        {
          "internalType": "address",
          "name": "tokenToSweep",
          "type": "address"
        }
      ],
      "name": "sweep",
      "outputs": [
        {
          "internalType": "bool",
          "name": "",
          "type": "bool"
        }
      ],
      "stateMutability": "nonpayable",
      "type": "function"
    },
    {
      "inputs": [],
      "name": "sweeper",
      "outputs": [
        {
          "internalType": "address",
          "name": "",
          "type": "address"
        }
      ],
      "stateMutability": "view",
      "type": "function"
    },
    {
      "inputs": [],
      "name": "ticketCounter",
      "outputs": [
        {
          "internalType": "uint256",
          "name": "",
          "type": "uint256"
        }
      ],
      "stateMutability": "view",
      "type": "function"
    },
    {
      "inputs": [],
      "name": "ticketPrice",
      "outputs": [
        {
          "internalType": "uint256",
          "name": "",
          "type": "uint256"
        }
      ],
      "stateMutability": "view",
      "type": "function"
    },
    {
      "inputs": [
        {
          "internalType": "bytes32",
          "name": "",
          "type": "bytes32"
        }
      ],
      "name": "tickets",
      "outputs": [
        {
          "internalType": "uint256",
          "name": "ticketNumber",
          "type": "uint256"
        }
      ],
      "stateMutability": "view",
      "type": "function"
    },
    {
      "inputs": [],
      "name": "totalValuePlayed",
      "outputs": [
        {
          "internalType": "uint256",
          "name": "",
          "type": "uint256"
        }
      ],
      "stateMutability": "view",
      "type": "function"
    },
    {
      "inputs": [
        {
          "internalType": "uint256",
          "name": "",
          "type": "uint256"
        },
        {
          "internalType": "address",
          "name": "",
          "type": "address"
        },
        {
          "internalType": "uint256",
          "name": "",
          "type": "uint256"
        }
      ],
      "name": "userTickets",
      "outputs": [
        {
          "internalType": "bytes32",
          "name": "",
          "type": "bytes32"
        }
      ],
      "stateMutability": "view",
      "type": "function"
    },
    {
      "inputs": [],
      "name": "viewCurrentDraw",
      "outputs": [
        {
          "internalType": "uint256",
          "name": "",
          "type": "uint256"
        }
      ],
      "stateMutability": "view",
      "type": "function"
    },
    {
      "inputs": [],
      "name": "viewCurrentLottery",
      "outputs": [
        {
          "internalType": "uint256",
          "name": "",
          "type": "uint256"
        }
      ],
      "stateMutability": "view",
      "type": "function"
    },
    {
      "inputs": [],
      "name": "viewDrawFrequency",
      "outputs": [
        {
          "internalType": "uint256",
          "name": "",
          "type": "uint256"
        }
      ],
      "stateMutability": "view",
      "type": "function"
    },
    {
      "inputs": [],
      "name": "viewFantomCollected",
      "outputs": [
        {
          "internalType": "uint256",
          "name": "",
          "type": "uint256"
        }
      ],
      "stateMutability": "view",
      "type": "function"
    },
    {
      "inputs": [],
      "name": "viewFinished",
      "outputs": [
        {
          "internalType": "bool",
          "name": "",
          "type": "bool"
        }
      ],
      "stateMutability": "view",
      "type": "function"
    },
    {
      "inputs": [],
      "name": "viewLast",
      "outputs": [
        {
          "internalType": "uint256",
          "name": "",
          "type": "uint256"
        }
      ],
      "stateMutability": "view",
      "type": "function"
    },
    {
      "inputs": [
        {
          "internalType": "uint256",
          "name": "lottoNumber",
          "type": "uint256"
        }
      ],
      "name": "viewLastDrawTime",
      "outputs": [
        {
          "internalType": "uint256",
          "name": "",
          "type": "uint256"
        }
      ],
      "stateMutability": "view",
      "type": "function"
    },
    {
      "inputs": [],
      "name": "viewLastPot",
      "outputs": [
        {
          "internalType": "uint256",
          "name": "",
          "type": "uint256"
        }
      ],
      "stateMutability": "view",
      "type": "function"
    },
    {
      "inputs": [],
      "name": "viewLottoNumber",
      "outputs": [
        {
          "internalType": "uint256",
          "name": "",
          "type": "uint256"
        }
      ],
      "stateMutability": "view",
      "type": "function"
    },
    {
      "inputs": [],
      "name": "viewName",
      "outputs": [
        {
          "internalType": "string",
          "name": "",
          "type": "string"
        }
      ],
      "stateMutability": "view",
      "type": "function"
    },
    {
      "inputs": [],
      "name": "viewPot",
      "outputs": [
        {
          "internalType": "uint256",
          "name": "",
          "type": "uint256"
        }
      ],
      "stateMutability": "view",
      "type": "function"
    },
    {
      "inputs": [],
      "name": "viewStart",
      "outputs": [
        {
          "internalType": "uint256",
          "name": "",
          "type": "uint256"
        }
      ],
      "stateMutability": "view",
      "type": "function"
    },
    {
      "inputs": [
        {
          "internalType": "uint256",
          "name": "lottoNumber",
          "type": "uint256"
        }
      ],
      "name": "viewStartTime",
      "outputs": [
        {
          "internalType": "uint256",
          "name": "",
          "type": "uint256"
        }
      ],
      "stateMutability": "view",
      "type": "function"
    },
    {
      "inputs": [],
      "name": "viewTicketCount",
      "outputs": [
        {
          "internalType": "uint256",
          "name": "",
          "type": "uint256"
        }
      ],
      "stateMutability": "view",
      "type": "function"
    },
    {
      "inputs": [
        {
          "internalType": "bytes32",
          "name": "ticketID",
          "type": "bytes32"
        }
      ],
      "name": "viewTicketHolders",
      "outputs": [
        {
          "internalType": "address[]",
          "name": "",
          "type": "address[]"
        }
      ],
      "stateMutability": "view",
      "type": "function"
    },
    {
      "inputs": [
        {
          "internalType": "bytes32",
          "name": "ticketID",
          "type": "bytes32"
        }
      ],
      "name": "viewTicketNumber",
      "outputs": [
        {
          "internalType": "uint256",
          "name": "",
          "type": "uint256"
        }
      ],
      "stateMutability": "view",
      "type": "function"
    },
    {
      "inputs": [],
      "name": "viewTicketPrice",
      "outputs": [
        {
          "internalType": "uint256",
          "name": "",
          "type": "uint256"
        }
      ],
      "stateMutability": "view",
      "type": "function"
    },
    {
      "inputs": [
        {
          "internalType": "address",
          "name": "_token",
          "type": "address"
        }
      ],
      "name": "viewTokensCollected",
      "outputs": [
        {
          "internalType": "uint256",
          "name": "",
          "type": "uint256"
        }
      ],
      "stateMutability": "view",
      "type": "function"
    },
    {
      "inputs": [
        {
          "internalType": "uint256",
          "name": "lottoNumber",
          "type": "uint256"
        }
      ],
      "name": "viewTotalPot",
      "outputs": [
        {
          "internalType": "uint256",
          "name": "",
          "type": "uint256"
        }
      ],
      "stateMutability": "view",
      "type": "function"
    },
    {
      "inputs": [
        {
          "internalType": "uint256",
          "name": "lottoNumber",
          "type": "uint256"
        }
      ],
      "name": "viewUserTicketList",
      "outputs": [
        {
          "internalType": "bytes32[]",
          "name": "",
          "type": "bytes32[]"
        }
      ],
      "stateMutability": "view",
      "type": "function"
    },
    {
      "inputs": [],
      "name": "viewWinChance",
      "outputs": [
        {
          "internalType": "uint256",
          "name": "",
          "type": "uint256"
        }
      ],
      "stateMutability": "view",
      "type": "function"
    },
    {
      "inputs": [],
      "name": "viewWinner",
      "outputs": [
        {
          "internalType": "bytes32",
          "name": "",
          "type": "bytes32"
        }
      ],
      "stateMutability": "view",
      "type": "function"
    },
    {
      "inputs": [
        {
          "internalType": "uint256",
          "name": "lottoNumber",
          "type": "uint256"
        }
      ],
      "name": "viewWinningTicket",
      "outputs": [
        {
          "internalType": "bytes32",
          "name": "",
          "type": "bytes32"
        }
      ],
      "stateMutability": "view",
      "type": "function"
    },
    {
      "inputs": [],
      "name": "viewWinnings",
      "outputs": [
        {
          "internalType": "uint256",
          "name": "",
          "type": "uint256"
        }
      ],
      "stateMutability": "view",
      "type": "function"
    },
    {
      "inputs": [
        {
          "internalType": "address",
          "name": "addr",
          "type": "address"
        }
      ],
      "name": "viewWinningsByAddress",
      "outputs": [
        {
          "internalType": "uint256",
          "name": "",
          "type": "uint256"
        }
      ],
      "stateMutability": "view",
      "type": "function"
    },
    {
      "inputs": [],
      "name": "winChance",
      "outputs": [
        {
          "internalType": "uint256",
          "name": "",
          "type": "uint256"
        }
      ],
      "stateMutability": "view",
      "type": "function"
    },
    {
      "inputs": [
        {
          "internalType": "address",
          "name": "ERC20Address",
          "type": "address"
        }
      ],
      "name": "withdrawERC20",
      "outputs": [
        {
          "internalType": "bool",
          "name": "",
          "type": "bool"
        }
      ],
      "stateMutability": "nonpayable",
      "type": "function"
    },
    {
      "inputs": [],
      "name": "withdrawFantom",
      "outputs": [
        {
          "internalType": "bool",
          "name": "",
          "type": "bool"
        }
      ],
      "stateMutability": "nonpayable",
      "type": "function"
    }
  ],
  "bytecode": "0x6080604052600060055560006006556000600755600060085530600f60006101000a81548173ffffffffffffffffffffffffffffffffffffffff021916908373ffffffffffffffffffffffffffffffffffffffff16021790555073f39fd6e51aad88f6f4ce6ab8827279cfffb92266601360006101000a81548173ffffffffffffffffffffffffffffffffffffffff021916908373ffffffffffffffffffffffffffffffffffffffff160217905550348015620000bb57600080fd5b506040518060400160405280600d81526020017f4552433230204c6f7474657279000000000000000000000000000000000000008152506000670de0b6b3a7640000600a666a94d74f430000601360009054906101000a900473ffffffffffffffffffffffffffffffffffffffff166200013a6200021460201b60201c565b6000806101000a81548173ffffffffffffffffffffffffffffffffffffffff021916908373ffffffffffffffffffffffffffffffffffffffff16021790555060016012819055508560019080519060200190620001999291906200032e565b5084600281905550836003819055508260048190555081600d8190555080600e60006101000a81548173ffffffffffffffffffffffffffffffffffffffff021916908373ffffffffffffffffffffffffffffffffffffffff160217905550620002076200021c60201b60201c565b50505050505050620004f8565b600033905090565b60006005600081548092919062000233906200044c565b91905055506040518060a00160405280620002536200032660201b60201c565b8152602001620002686200032660201b60201c565b8152602001600081526020016000801b8152602001600015158152506009600060055481526020019081526020016000206000820151816000015560208201518160010155604082015181600201556060820151816003015560808201518160040160006101000a81548160ff0219169083151502179055509050507fa35bd591310404f547e67d0f261a54d0a2a7606bf1695c5e9134f4259805eb7c600554604051620003179190620003ef565b60405180910390a16001905090565b600042905090565b8280546200033c9062000416565b90600052602060002090601f016020900481019282620003605760008555620003ac565b82601f106200037b57805160ff1916838001178555620003ac565b82800160010185558215620003ac579182015b82811115620003ab5782518255916020019190600101906200038e565b5b509050620003bb9190620003bf565b5090565b5b80821115620003da576000816000905550600101620003c0565b5090565b620003e9816200040c565b82525050565b6000602082019050620004066000830184620003de565b92915050565b6000819050919050565b600060028204905060018216806200042f57607f821691505b60208210811415620004465762000445620004c9565b5b50919050565b600062000459826200040c565b91507fffffffffffffffffffffffffffffffffffffffffffffffffffffffffffffffff8214156200048f576200048e6200049a565b5b600182019050919050565b7f4e487b7100000000000000000000000000000000000000000000000000000000600052601160045260246000fd5b7f4e487b7100000000000000000000000000000000000000000000000000000000600052602260045260246000fd5b6134e180620005086000396000f3fe60806040526004361061031a5760003560e01c806397ba287c116101ab578063c932a7f7116100f7578063e04cac4711610095578063e97dcb621161006f578063e97dcb6214610c56578063ebec936214610c74578063f4f3b20014610cb1578063f5268d3714610cee5761031a565b8063e04cac4714610bc3578063e56d71bc14610bee578063e8665a0c14610c2b5761031a565b8063d6c90a88116100d1578063d6c90a8814610b05578063dd325f2514610b30578063ddca3f4314610b5b578063df0dd0d514610b865761031a565b8063c932a7f714610a72578063cd15cf6114610aaf578063cf41d6f814610ada5761031a565b8063af38c81011610164578063b85d4be61161013e578063b85d4be6146109a2578063b91c86f1146109cd578063be1f2cfd14610a0a578063c6289f2514610a355761031a565b8063af38c8101461090f578063b5f10b381461093a578063b858bb65146109655761031a565b806397ba287c146107fb5780639ad572f5146108265780639cd5b0d614610851578063a1dd2ac11461087c578063a4b73a6d146108a7578063a5a40544146108e45761031a565b806359acaa8c1161026a5780637b5015c81161022357806386ae228f116101fd57806386ae228f1461073d578063876879521461077a5780638c4d59d0146107a55780639189a59e146107d05761031a565b80637b5015c8146106985780637fb95ce2146106d5578063841fd8fd146107125761031a565b806359acaa8c146105845780635d269be0146105af578063636ad6a6146105ec5780636da7b0d1146106175780636dbeffbe146106425780637104ddb21461066d5761031a565b80632459c1fe116102d757806340c87c18116102b157806340c87c18146104c657806345ea375f146104f1578063469048401461051c5780634cec4ed1146105475761031a565b80632459c1fe1461043357806330bd8d6914610470578063392e24031461049b5761031a565b806301681a621461031f57806306fdde031461035c5780630eecae21146103875780630f17ed02146103b25780631209b1f6146103dd5780631e6cccf914610408575b600080fd5b34801561032b57600080fd5b5061034660048036038101906103419190612877565b610d19565b6040516103539190612f0a565b60405180910390f35b34801561036857600080fd5b50610371610f00565b60405161037e9190612f69565b60405180910390f35b34801561039357600080fd5b5061039c610f8e565b6040516103a99190612f0a565b60405180910390f35b3480156103be57600080fd5b506103c7611046565b6040516103d4919061308b565b60405180910390f35b3480156103e957600080fd5b506103f2611050565b6040516103ff919061308b565b60405180910390f35b34801561041457600080fd5b5061041d611056565b60405161042a919061308b565b60405180910390f35b34801561043f57600080fd5b5061045a60048036038101906104559190612877565b611060565b604051610467919061308b565b60405180910390f35b34801561047c57600080fd5b50610485611078565b604051610492919061308b565b60405180910390f35b3480156104a757600080fd5b506104b0611084565b6040516104bd9190612f4e565b60405180910390f35b3480156104d257600080fd5b506104db6110b0565b6040516104e8919061308b565b60405180910390f35b3480156104fd57600080fd5b506105066110ba565b604051610513919061308b565b60405180910390f35b34801561052857600080fd5b506105316110da565b60405161053e9190612e30565b60405180910390f35b34801561055357600080fd5b5061056e60048036038101906105699190612877565b611100565b60405161057b9190612f0a565b60405180910390f35b34801561059057600080fd5b506105996111e1565b6040516105a6919061308b565b60405180910390f35b3480156105bb57600080fd5b506105d660048036038101906105d191906128f2565b6111e7565b6040516105e3919061308b565b60405180910390f35b3480156105f857600080fd5b50610601611207565b60405161060e919061308b565b60405180910390f35b34801561062357600080fd5b5061062c611211565b604051610639919061308b565b60405180910390f35b34801561064e57600080fd5b5061065761121b565b604051610664919061308b565b60405180910390f35b34801561067957600080fd5b50610682611221565b60405161068f9190612e30565b60405180910390f35b3480156106a457600080fd5b506106bf60048036038101906106ba91906128f2565b611247565b6040516106cc919061308b565b60405180910390f35b3480156106e157600080fd5b506106fc60048036038101906106f79190612877565b611267565b604051610709919061308b565b60405180910390f35b34801561071e57600080fd5b506107276112b0565b6040516107349190612eef565b60405180910390f35b34801561074957600080fd5b50610764600480360381019061075f91906128c9565b611300565b604051610771919061308b565b60405180910390f35b34801561078657600080fd5b5061078f611320565b60405161079c919061308b565b60405180910390f35b3480156107b157600080fd5b506107ba61136e565b6040516107c7919061308b565b60405180910390f35b3480156107dc57600080fd5b506107e5611374565b6040516107f29190612e30565b60405180910390f35b34801561080757600080fd5b50610810611398565b60405161081d919061308b565b60405180910390f35b34801561083257600080fd5b5061083b61139e565b6040516108489190612f0a565b60405180910390f35b34801561085d57600080fd5b506108666113d5565b604051610873919061308b565b60405180910390f35b34801561088857600080fd5b506108916113db565b60405161089e919061308b565b60405180910390f35b3480156108b357600080fd5b506108ce60048036038101906108c991906128f2565b6113fb565b6040516108db919061308b565b60405180910390f35b3480156108f057600080fd5b506108f961141b565b604051610906919061308b565b60405180910390f35b34801561091b57600080fd5b50610924611421565b6040516109319190612f0a565b60405180910390f35b34801561094657600080fd5b5061094f611453565b60405161095c9190612f69565b60405180910390f35b34801561097157600080fd5b5061098c60048036038101906109879190612944565b6114e5565b6040516109999190612f4e565b60405180910390f35b3480156109ae57600080fd5b506109b7611523565b6040516109c4919061308b565b60405180910390f35b3480156109d957600080fd5b506109f460048036038101906109ef91906128f2565b61152d565b604051610a019190612ecd565b60405180910390f35b348015610a1657600080fd5b50610a1f6115d5565b604051610a2c9190612f0a565b60405180910390f35b348015610a4157600080fd5b50610a5c6004803603810190610a5791906128f2565b61160e565b604051610a699190612f4e565b60405180910390f35b348015610a7e57600080fd5b50610a996004803603810190610a949190612877565b61162e565b604051610aa6919061308b565b60405180910390f35b348015610abb57600080fd5b50610ac4611677565b604051610ad1919061308b565b60405180910390f35b348015610ae657600080fd5b50610aef61167d565b604051610afc9190612f0a565b60405180910390f35b348015610b1157600080fd5b50610b1a6117ca565b604051610b27919061308b565b60405180910390f35b348015610b3c57600080fd5b50610b456117f6565b604051610b52919061308b565b60405180910390f35b348015610b6757600080fd5b50610b70611816565b604051610b7d919061308b565b60405180910390f35b348015610b9257600080fd5b50610bad6004803603810190610ba891906128c9565b61181c565b604051610bba919061308b565b60405180910390f35b348015610bcf57600080fd5b50610bd861183a565b604051610be5919061308b565b60405180910390f35b348015610bfa57600080fd5b50610c156004803603810190610c1091906128c9565b611844565b604051610c229190612eab565b60405180910390f35b348015610c3757600080fd5b50610c406118e8565b604051610c4d9190612f0a565b60405180910390f35b610c5e611a1d565b604051610c6b9190612f0a565b60405180910390f35b348015610c8057600080fd5b50610c9b6004803603810190610c969190612877565b611ad7565b604051610ca8919061308b565b60405180910390f35b348015610cbd57600080fd5b50610cd86004803603810190610cd39190612877565b611aef565b604051610ce59190612f0a565b60405180910390f35b348015610cfa57600080fd5b50610d03611d46565b604051610d10919061308b565b60405180910390f35b60008060009054906101000a900473ffffffffffffffffffffffffffffffffffffffff1673ffffffffffffffffffffffffffffffffffffffff16610d5b611d50565b73ffffffffffffffffffffffffffffffffffffffff1614610db1576040517f08c379a0000000000000000000000000000000000000000000000000000000008152600401610da890612feb565b60405180910390fd5b60008273ffffffffffffffffffffffffffffffffffffffff166370a08231306040518263ffffffff1660e01b8152600401610dec9190612e30565b60206040518083038186803b158015610e0457600080fd5b505afa158015610e18573d6000803e3d6000fd5b505050506040513d601f19601f82011682018060405250810190610e3c919061291b565b90506000811115610ef6578273ffffffffffffffffffffffffffffffffffffffff1663a9059cbb60008054906101000a900473ffffffffffffffffffffffffffffffffffffffff16836040518363ffffffff1660e01b8152600401610ea2929190612e82565b602060405180830381600087803b158015610ebc57600080fd5b505af1158015610ed0573d6000803e3d6000fd5b505050506040513d601f19601f82011682018060405250810190610ef491906128a0565b505b6001915050919050565b60018054610f0d906132fb565b80601f0160208091040260200160405190810160405280929190818152602001828054610f39906132fb565b8015610f865780601f10610f5b57610100808354040283529160200191610f86565b820191906000526020600020905b815481529060010190602001808311610f6957829003601f168201915b505050505081565b600060026012541415610fd6576040517f08c379a0000000000000000000000000000000000000000000000000000000008152600401610fcd9061302b565b60405180910390fd5b6002601281905550610fe661139e565b611025576040517f08c379a000000000000000000000000000000000000000000000000000000000815260040161101c90612f8b565b60405180910390fd5b61102d611d58565b50611036611d85565b5060019050600160128190555090565b6000600554905090565b60035481565b6000601054905090565b60116020528060005260406000206000915090505481565b670de0b6b3a764000081565b60006009600060016005546110999190613242565b815260200190815260200160002060030154905090565b6000600454905090565b600060096000600554815260200190815260200160002060020154905090565b600e60009054906101000a900473ffffffffffffffffffffffffffffffffffffffff1681565b60008060009054906101000a900473ffffffffffffffffffffffffffffffffffffffff1673ffffffffffffffffffffffffffffffffffffffff16611142611d50565b73ffffffffffffffffffffffffffffffffffffffff1614611198576040517f08c379a000000000000000000000000000000000000000000000000000000000815260040161118f90612fab565b60405180910390fd5b816000806101000a81548173ffffffffffffffffffffffffffffffffffffffff021916908373ffffffffffffffffffffffffffffffffffffffff16021790555060019050919050565b60105481565b600060096000838152602001908152602001600020600101549050919050565b6000600354905090565b6000600754905090565b60045481565b600f60009054906101000a900473ffffffffffffffffffffffffffffffffffffffff1681565b600060096000838152602001908152602001600020600201549050919050565b6000601160008373ffffffffffffffffffffffffffffffffffffffff1673ffffffffffffffffffffffffffffffffffffffff168152602001908152602001600020549050919050565b6112b8612745565b6040518060a001604052806112cb611e6b565b815260200160056112da611e6b565b6112e49190613380565b8152602001438152602001428152602001600754815250905090565b6000600a6000838152602001908152602001600020600101549050919050565b6000600c600061132e611d50565b73ffffffffffffffffffffffffffffffffffffffff1673ffffffffffffffffffffffffffffffffffffffff16815260200190815260200160002054905090565b60075481565b60008054906101000a900473ffffffffffffffffffffffffffffffffffffffff1681565b60065481565b6000600254600960006005548152602001908152602001600020600101546113c4611ea2565b6113ce9190613242565b1015905090565b60085481565b600060096000600554815260200190815260200160002060010154905090565b600060096000838152602001908152602001600020600001549050919050565b60025481565b60008060001b60096000600160055461143a9190613242565b8152602001908152602001600020600301541415905090565b606060018054611462906132fb565b80601f016020809104026020016040519081016040528092919081815260200182805461148e906132fb565b80156114db5780601f106114b0576101008083540402835291602001916114db565b820191906000526020600020905b8154815290600101906020018083116114be57829003601f168201915b5050505050905090565b600b602052826000526040600020602052816000526040600020818154811061150d57600080fd5b9060005260206000200160009250925050505481565b6000600554905090565b6060600b600083815260200190815260200160002060003373ffffffffffffffffffffffffffffffffffffffff1673ffffffffffffffffffffffffffffffffffffffff1681526020019081526020016000208054806020026020016040519081016040528092919081815260200182805480156115c957602002820191906000526020600020905b8154815260200190600101908083116115b5575b50505050509050919050565b60006009600060016005546115ea9190613242565b815260200190815260200160002060040160009054906101000a900460ff16905090565b600060096000838152602001908152602001600020600301549050919050565b6000600c60008373ffffffffffffffffffffffffffffffffffffffff1673ffffffffffffffffffffffffffffffffffffffff168152602001908152602001600020549050919050565b60055481565b6000600260125414156116c5576040517f08c379a00000000000000000000000000000000000000000000000000000000081526004016116bc9061302b565b60405180910390fd5b60026012819055506000600c60006116db611d50565b73ffffffffffffffffffffffffffffffffffffffff1673ffffffffffffffffffffffffffffffffffffffff168152602001908152602001600020541415611757576040517f08c379a000000000000000000000000000000000000000000000000000000000815260040161174e90612fcb565b60405180910390fd5b61175f611eaa565b50600061176a611eaf565b9050611774611d50565b73ffffffffffffffffffffffffffffffffffffffff166108fc829081150290604051600060405180830381858888f193505050501580156117b9573d6000803e3d6000fd5b506001915050600160128190555090565b60006009600060016005546117df9190613242565b815260200190815260200160002060020154905090565b600060096000600554815260200190815260200160002060000154905090565b600d5481565b600a6020528060005260406000206000915090508060010154905081565b6000600254905090565b6060600a60008381526020019081526020016000206000018054806020026020016040519081016040528092919081815260200182805480156118dc57602002820191906000526020600020905b8160009054906101000a900473ffffffffffffffffffffffffffffffffffffffff1673ffffffffffffffffffffffffffffffffffffffff1681526020019060010190808311611892575b50505050509050919050565b6000600e60009054906101000a900473ffffffffffffffffffffffffffffffffffffffff1673ffffffffffffffffffffffffffffffffffffffff163373ffffffffffffffffffffffffffffffffffffffff161461197a576040517f08c379a00000000000000000000000000000000000000000000000000000000081526004016119719061306b565b60405180910390fd5b6000601054116119bf576040517f08c379a00000000000000000000000000000000000000000000000000000000081526004016119b69061300b565b60405180910390fd5b6000601054905060006010819055503373ffffffffffffffffffffffffffffffffffffffff166108fc829081150290604051600060405180830381858888f19350505050158015611a14573d6000803e3d6000fd5b50600191505090565b600060026012541415611a65576040517f08c379a0000000000000000000000000000000000000000000000000000000008152600401611a5c9061302b565b60405180910390fd5b60026012819055506003543414611ab1576040517f08c379a0000000000000000000000000000000000000000000000000000000008152600401611aa89061304b565b60405180910390fd5b6000611abb611f4e565b9050611ac681611f65565b506001915050600160128190555090565b600c6020528060005260406000206000915090505481565b6000600e60009054906101000a900473ffffffffffffffffffffffffffffffffffffffff1673ffffffffffffffffffffffffffffffffffffffff163373ffffffffffffffffffffffffffffffffffffffff1614611b81576040517f08c379a0000000000000000000000000000000000000000000000000000000008152600401611b789061306b565b60405180910390fd5b6000601160008473ffffffffffffffffffffffffffffffffffffffff1673ffffffffffffffffffffffffffffffffffffffff1681526020019081526020016000205411611c03576040517f08c379a0000000000000000000000000000000000000000000000000000000008152600401611bfa9061300b565b60405180910390fd5b6000601160008473ffffffffffffffffffffffffffffffffffffffff1673ffffffffffffffffffffffffffffffffffffffff1681526020019081526020016000205490506000601160008573ffffffffffffffffffffffffffffffffffffffff1673ffffffffffffffffffffffffffffffffffffffff168152602001908152602001600020819055508273ffffffffffffffffffffffffffffffffffffffff1663a9059cbb600e60009054906101000a900473ffffffffffffffffffffffffffffffffffffffff16836040518363ffffffff1660e01b8152600401611ce9929190612e82565b602060405180830381600087803b158015611d0357600080fd5b505af1158015611d17573d6000803e3d6000fd5b505050506040513d601f19601f82011682018060405250810190611d3b91906128a0565b506001915050919050565b6000600654905090565b600033905090565b6000611d62611ea2565b600960006005548152602001908152602001600020600101819055506001905090565b600080611d906120b9565b90506000801b811415611df95760066000815480929190611db09061332d565b91905055507fe0dbc9529120eb99dfdd738608a453baef8223964340a20ebbc2d79558ea1f9a600082604051611de7929190612f25565b60405180910390a16000915050611e68565b8060096000600554815260200190815260200160002060030181905550611e1e61210b565b50611e27612180565b507fe0dbc9529120eb99dfdd738608a453baef8223964340a20ebbc2d79558ea1f9a600182604051611e5a929190612f25565b60405180910390a160019150505b90565b60004243600754604051602001611e8493929190612df3565b6040516020818303038152906040528051906020012060001c905090565b600042905090565b600090565b600080600c6000611ebe611d50565b73ffffffffffffffffffffffffffffffffffffffff1673ffffffffffffffffffffffffffffffffffffffff1681526020019081526020016000205490506000600c6000611f09611d50565b73ffffffffffffffffffffffffffffffffffffffff1673ffffffffffffffffffffffffffffffffffffffff168152602001908152602001600020819055508091505090565b600080611f5c6003546121a1565b90508091505090565b600060076000815480929190611f7a9061332d565b919050555060035460086000828254611f939190613161565b92505081905550816009600060055481526020019081526020016000206002016000828254611fc29190613161565b925050819055506000611fd36121e2565b9050600b600060055481526020019081526020016000206000611ff4611d50565b73ffffffffffffffffffffffffffffffffffffffff1673ffffffffffffffffffffffffffffffffffffffff1681526020019081526020016000208190806001815401808255809150506001900390600052602060002001600090919091909150557f1a68cfba6503f189182fd0e12b64a6c8b19d129ee1bb7aba124ab08d8a57e46861207e611d50565b82600960006005548152602001908152602001600020600201546040516120a793929190612e4b565b60405180910390a16001915050919050565b6000806120c46123f2565b905060006120d182612419565b90506000600a60008381526020019081526020016000206000018054905011156120ff578092505050612108565b6000801b925050505b90565b6000600160096000600554815260200190815260200160002060040160006101000a81548160ff021916908315150217905550612146612456565b612179577f4e487b7100000000000000000000000000000000000000000000000000000000600052600160045260246000fd5b6001905090565b6000806006819055506000600781905550612199612620565b506001905090565b6000806121ad83612716565b905080601060008282546121c19190613161565b92505081905550600081846121d69190613242565b90508092505050919050565b6000806121ed6123f2565b905060006121fa82612419565b90506000600a60008381526020019081526020016000206000018054905011156122a657600a600082815260200190815260200160002060000161223c611d50565b9080600181540180825580915050600190039060005260206000200160009091909190916101000a81548173ffffffffffffffffffffffffffffffffffffffff021916908373ffffffffffffffffffffffffffffffffffffffff16021790555080925050506123ef565b6000600167ffffffffffffffff8111156122e9577f4e487b7100000000000000000000000000000000000000000000000000000000600052604160045260246000fd5b6040519080825280602002602001820160405280156123175781602001602082028036833780820191505090505b509050612322611d50565b8160008151811061235c577f4e487b7100000000000000000000000000000000000000000000000000000000600052603260045260246000fd5b602002602001019073ffffffffffffffffffffffffffffffffffffffff16908173ffffffffffffffffffffffffffffffffffffffff1681525050604051806040016040528082815260200184815250600a600084815260200190815260200160002060008201518160000190805190602001906123da929190612767565b50602082015181600101559050508193505050505b90565b6000806123fd611e6b565b905060006004548261240f9190613380565b9050809250505090565b6000806005546006548460405160200161243593929190612df3565b60405160208183030381529060405280519060200120905080915050919050565b60008060096000600554815260200190815260200160002060030154905060006009600060055481526020019081526020016000206002015490506000600a6000848152602001908152602001600020600001805490509050600081836124bd91906131b7565b90506000600a600086815260200190815260200160002060000180548060200260200160405190810160405280929190818152602001828054801561255757602002820191906000526020600020905b8160009054906101000a900473ffffffffffffffffffffffffffffffffffffffff1673ffffffffffffffffffffffffffffffffffffffff168152602001906001019080831161250d575b5050505050905060005b81518110156126135782600c60008484815181106125a8577f4e487b7100000000000000000000000000000000000000000000000000000000600052603260045260246000fd5b602002602001015173ffffffffffffffffffffffffffffffffffffffff1673ffffffffffffffffffffffffffffffffffffffff16815260200190815260200160002060008282546125f99190613161565b92505081905550808061260b9061332d565b915050612561565b5060019550505050505090565b6000600560008154809291906126359061332d565b91905055506040518060a0016040528061264d611ea2565b815260200161265a611ea2565b8152602001600081526020016000801b8152602001600015158152506009600060055481526020019081526020016000206000820151816000015560208201518160010155604082015181600201556060820151816003015560808201518160040160006101000a81548160ff0219169083151502179055509050507fa35bd591310404f547e67d0f261a54d0a2a7606bf1695c5e9134f4259805eb7c600554604051612707919061308b565b60405180910390a16001905090565b600080670de0b6b3a7640000600d548461273091906131e8565b61273a91906131b7565b905080915050919050565b6040518060a00160405280600590602082028036833780820191505090505090565b8280548282559060005260206000209081019282156127e0579160200282015b828111156127df5782518260006101000a81548173ffffffffffffffffffffffffffffffffffffffff021916908373ffffffffffffffffffffffffffffffffffffffff16021790555091602001919060010190612787565b5b5090506127ed91906127f1565b5090565b5b8082111561280a5760008160009055506001016127f2565b5090565b60008135905061281d8161344f565b92915050565b60008151905061283281613466565b92915050565b6000813590506128478161347d565b92915050565b60008135905061285c81613494565b92915050565b60008151905061287181613494565b92915050565b60006020828403121561288957600080fd5b60006128978482850161280e565b91505092915050565b6000602082840312156128b257600080fd5b60006128c084828501612823565b91505092915050565b6000602082840312156128db57600080fd5b60006128e984828501612838565b91505092915050565b60006020828403121561290457600080fd5b60006129128482850161284d565b91505092915050565b60006020828403121561292d57600080fd5b600061293b84828501612862565b91505092915050565b60008060006060848603121561295957600080fd5b60006129678682870161284d565b93505060206129788682870161280e565b92505060406129898682870161284d565b9150509250925092565b600061299f83836129db565b60208301905092915050565b60006129b78383612b1b565b60208301905092915050565b60006129cf8383612dbe565b60208301905092915050565b6129e481613276565b82525050565b6129f381613276565b82525050565b6000612a04826130d0565b612a0e8185613123565b9350612a19836130a6565b8060005b83811015612a4a578151612a318882612993565b9750612a3c836130fc565b925050600181019050612a1d565b5085935050505092915050565b6000612a62826130db565b612a6c8185613134565b9350612a77836130b6565b8060005b83811015612aa8578151612a8f88826129ab565b9750612a9a83613109565b925050600181019050612a7b565b5085935050505092915050565b612abe816130e6565b612ac88184613145565b9250612ad3826130c6565b8060005b83811015612b04578151612aeb87826129c3565b9650612af683613116565b925050600181019050612ad7565b505050505050565b612b1581613288565b82525050565b612b2481613294565b82525050565b612b3381613294565b82525050565b6000612b44826130f1565b612b4e8185613150565b9350612b5e8185602086016132c8565b612b678161343e565b840191505092915050565b6000612b7f602b83613150565b91507f6e6f7420656e6f7567682074696d652068617320656c61707365642073696e6360008301527f65206c61737420647261770000000000000000000000000000000000000000006020830152604082019050919050565b6000612be5602983613150565b91507f4f6e6c792074686520737765657065722063616e2061737369676e206120726560008301527f706c6163656d656e7400000000000000000000000000000000000000000000006020830152604082019050919050565b6000612c4b601d83613150565b91507f796f752068617665206e6f2077696e6e696e677320746f20636c61696d0000006000830152602082019050919050565b6000612c8b601383613150565b91507f6d757374206265207468652073776565706572000000000000000000000000006000830152602082019050919050565b6000612ccb601983613150565b91507f796f752068617665206e6f7468696e6720746f20636c61696d000000000000006000830152602082019050919050565b6000612d0b601f83613150565b91507f5265656e7472616e637947756172643a207265656e7472616e742063616c6c006000830152602082019050919050565b6000612d4b601683613150565b91507f77726f6e6720616d6f756e74206f6620746f6b656e73000000000000000000006000830152602082019050919050565b6000612d8b601d83613150565b91507f596f7520617265206e6f74207468652066656520726563697069656e740000006000830152602082019050919050565b612dc7816132be565b82525050565b612dd6816132be565b82525050565b612ded612de8826132be565b613376565b82525050565b6000612dff8286612ddc565b602082019150612e0f8285612ddc565b602082019150612e1f8284612ddc565b602082019150819050949350505050565b6000602082019050612e4560008301846129ea565b92915050565b6000606082019050612e6060008301866129ea565b612e6d6020830185612b2a565b612e7a6040830184612dcd565b949350505050565b6000604082019050612e9760008301856129ea565b612ea46020830184612dcd565b9392505050565b60006020820190508181036000830152612ec581846129f9565b905092915050565b60006020820190508181036000830152612ee78184612a57565b905092915050565b600060a082019050612f046000830184612ab5565b92915050565b6000602082019050612f1f6000830184612b0c565b92915050565b6000604082019050612f3a6000830185612b0c565b612f476020830184612b2a565b9392505050565b6000602082019050612f636000830184612b2a565b92915050565b60006020820190508181036000830152612f838184612b39565b905092915050565b60006020820190508181036000830152612fa481612b72565b9050919050565b60006020820190508181036000830152612fc481612bd8565b9050919050565b60006020820190508181036000830152612fe481612c3e565b9050919050565b6000602082019050818103600083015261300481612c7e565b9050919050565b6000602082019050818103600083015261302481612cbe565b9050919050565b6000602082019050818103600083015261304481612cfe565b9050919050565b6000602082019050818103600083015261306481612d3e565b9050919050565b6000602082019050818103600083015261308481612d7e565b9050919050565b60006020820190506130a06000830184612dcd565b92915050565b6000819050602082019050919050565b6000819050602082019050919050565b6000819050919050565b600081519050919050565b600081519050919050565b600060059050919050565b600081519050919050565b6000602082019050919050565b6000602082019050919050565b6000602082019050919050565b600082825260208201905092915050565b600082825260208201905092915050565b600081905092915050565b600082825260208201905092915050565b600061316c826132be565b9150613177836132be565b9250827fffffffffffffffffffffffffffffffffffffffffffffffffffffffffffffffff038211156131ac576131ab6133b1565b5b828201905092915050565b60006131c2826132be565b91506131cd836132be565b9250826131dd576131dc6133e0565b5b828204905092915050565b60006131f3826132be565b91506131fe836132be565b9250817fffffffffffffffffffffffffffffffffffffffffffffffffffffffffffffffff0483118215151615613237576132366133b1565b5b828202905092915050565b600061324d826132be565b9150613258836132be565b92508282101561326b5761326a6133b1565b5b828203905092915050565b60006132818261329e565b9050919050565b60008115159050919050565b6000819050919050565b600073ffffffffffffffffffffffffffffffffffffffff82169050919050565b6000819050919050565b60005b838110156132e65780820151818401526020810190506132cb565b838111156132f5576000848401525b50505050565b6000600282049050600182168061331357607f821691505b602082108114156133275761332661340f565b5b50919050565b6000613338826132be565b91507fffffffffffffffffffffffffffffffffffffffffffffffffffffffffffffffff82141561336b5761336a6133b1565b5b600182019050919050565b6000819050919050565b600061338b826132be565b9150613396836132be565b9250826133a6576133a56133e0565b5b828206905092915050565b7f4e487b7100000000000000000000000000000000000000000000000000000000600052601160045260246000fd5b7f4e487b7100000000000000000000000000000000000000000000000000000000600052601260045260246000fd5b7f4e487b7100000000000000000000000000000000000000000000000000000000600052602260045260246000fd5b6000601f19601f8301169050919050565b61345881613276565b811461346357600080fd5b50565b61346f81613288565b811461347a57600080fd5b50565b61348681613294565b811461349157600080fd5b50565b61349d816132be565b81146134a857600080fd5b5056fea264697066735822122006d16ba5d0480cf82bf737eb3c5965a461014c09f61b11227227b7a74ceb5b3d64736f6c63430008000033",
  "linkReferences": {},
  "deployedLinkReferences": {}
}