{
  "_format": "hh-sol-artifact-1",
  "contractName": "UtilityPackage",
  "sourceName": "contracts/Utils/UtilityPackage.sol",
  "abi": [
    {
      "inputs": [],
      "stateMutability": "nonpayable",
      "type": "constructor"
    },
    {
      "inputs": [
        {
          "internalType": "address",
          "name": "newSweeper",
          "type": "address"
        }
      ],
      "name": "changeSweeper",
      "outputs": [
        {
          "internalType": "bool",
          "name": "",
          "type": "bool"
        }
      ],
      "stateMutability": "nonpayable",
      "type": "function"
    },
    {
      "inputs": [
        {
          "internalType": "address",
          "name": "tokenToSweep",
          "type": "address"
        }
      ],
      "name": "sweep",
      "outputs": [
        {
          "internalType": "bool",
          "name": "",
          "type": "bool"
        }
      ],
      "stateMutability": "nonpayable",
      "type": "function"
    },
    {
      "inputs": [],
      "name": "sweeper",
      "outputs": [
        {
          "internalType": "address",
          "name": "",
          "type": "address"
        }
      ],
      "stateMutability": "view",
      "type": "function"
    }
  ],
  "bytecode": "0x608060405234801561001057600080fd5b5061001f61006360201b60201c565b6000806101000a81548173ffffffffffffffffffffffffffffffffffffffff021916908373ffffffffffffffffffffffffffffffffffffffff16021790555061006b565b600033905090565b6106b88061007a6000396000f3fe608060405234801561001057600080fd5b50600436106100415760003560e01c806301681a62146100465780634cec4ed1146100765780639189a59e146100a6575b600080fd5b610060600480360381019061005b91906103f7565b6100c4565b60405161006d9190610589565b60405180910390f35b610090600480360381019061008b91906103f7565b6102ab565b60405161009d9190610589565b60405180910390f35b6100ae61038c565b6040516100bb9190610545565b60405180910390f35b60008060009054906101000a900473ffffffffffffffffffffffffffffffffffffffff1673ffffffffffffffffffffffffffffffffffffffff166101066103b0565b73ffffffffffffffffffffffffffffffffffffffff161461015c576040517f08c379a0000000000000000000000000000000000000000000000000000000008152600401610153906105c4565b60405180910390fd5b60008273ffffffffffffffffffffffffffffffffffffffff166370a08231306040518263ffffffff1660e01b81526004016101979190610545565b60206040518083038186803b1580156101af57600080fd5b505afa1580156101c3573d6000803e3d6000fd5b505050506040513d601f19601f820116820180604052508101906101e79190610449565b905060008111156102a1578273ffffffffffffffffffffffffffffffffffffffff1663a9059cbb60008054906101000a900473ffffffffffffffffffffffffffffffffffffffff16836040518363ffffffff1660e01b815260040161024d929190610560565b602060405180830381600087803b15801561026757600080fd5b505af115801561027b573d6000803e3d6000fd5b505050506040513d601f19601f8201168201806040525081019061029f9190610420565b505b6001915050919050565b60008060009054906101000a900473ffffffffffffffffffffffffffffffffffffffff1673ffffffffffffffffffffffffffffffffffffffff166102ed6103b0565b73ffffffffffffffffffffffffffffffffffffffff1614610343576040517f08c379a000000000000000000000000000000000000000000000000000000000815260040161033a906105a4565b60405180910390fd5b816000806101000a81548173ffffffffffffffffffffffffffffffffffffffff021916908373ffffffffffffffffffffffffffffffffffffffff16021790555060019050919050565b60008054906101000a900473ffffffffffffffffffffffffffffffffffffffff1681565b600033905090565b6000813590506103c78161063d565b92915050565b6000815190506103dc81610654565b92915050565b6000815190506103f18161066b565b92915050565b60006020828403121561040957600080fd5b6000610417848285016103b8565b91505092915050565b60006020828403121561043257600080fd5b6000610440848285016103cd565b91505092915050565b60006020828403121561045b57600080fd5b6000610469848285016103e2565b91505092915050565b61047b816105f5565b82525050565b61048a81610607565b82525050565b600061049d6029836105e4565b91507f4f6e6c792074686520737765657065722063616e2061737369676e206120726560008301527f706c6163656d656e7400000000000000000000000000000000000000000000006020830152604082019050919050565b60006105036013836105e4565b91507f6d757374206265207468652073776565706572000000000000000000000000006000830152602082019050919050565b61053f81610633565b82525050565b600060208201905061055a6000830184610472565b92915050565b60006040820190506105756000830185610472565b6105826020830184610536565b9392505050565b600060208201905061059e6000830184610481565b92915050565b600060208201905081810360008301526105bd81610490565b9050919050565b600060208201905081810360008301526105dd816104f6565b9050919050565b600082825260208201905092915050565b600061060082610613565b9050919050565b60008115159050919050565b600073ffffffffffffffffffffffffffffffffffffffff82169050919050565b6000819050919050565b610646816105f5565b811461065157600080fd5b50565b61065d81610607565b811461066857600080fd5b50565b61067481610633565b811461067f57600080fd5b5056fea2646970667358221220007dbb92943530314b20c4f446eaf012569455d7ae36592ac50b73df3c5d524064736f6c63430008000033",
  "linkReferences": {},
  "deployedLinkReferences": {}
}