{
  "_format": "hh-sol-artifact-1",
  "contractName": "BaseLottery",
  "sourceName": "contracts/Base/LotteryLogic.sol",
  "abi": [
    {
      "anonymous": false,
      "inputs": [
        {
          "indexed": false,
          "internalType": "bool",
          "name": "winnerSelected",
          "type": "bool"
        },
        {
          "indexed": false,
          "internalType": "bytes32",
          "name": "winningTicket",
          "type": "bytes32"
        }
      ],
      "name": "newDraw",
      "type": "event"
    },
    {
      "anonymous": false,
      "inputs": [
        {
          "indexed": false,
          "internalType": "address",
          "name": "entrant",
          "type": "address"
        },
        {
          "indexed": false,
          "internalType": "bytes32",
          "name": "ticketID",
          "type": "bytes32"
        },
        {
          "indexed": false,
          "internalType": "uint256",
          "name": "totalPot",
          "type": "uint256"
        }
      ],
      "name": "newEntry",
      "type": "event"
    },
    {
      "anonymous": false,
      "inputs": [
        {
          "indexed": false,
          "internalType": "address",
          "name": "user",
          "type": "address"
        },
        {
          "indexed": false,
          "internalType": "uint256",
          "name": "amount",
          "type": "uint256"
        }
      ],
      "name": "newPayment",
      "type": "event"
    },
    {
      "anonymous": false,
      "inputs": [
        {
          "indexed": false,
          "internalType": "uint256",
          "name": "lottoNumber",
          "type": "uint256"
        }
      ],
      "name": "newRound",
      "type": "event"
    },
    {
      "inputs": [
        {
          "internalType": "address",
          "name": "newSweeper",
          "type": "address"
        }
      ],
      "name": "changeSweeper",
      "outputs": [
        {
          "internalType": "bool",
          "name": "",
          "type": "bool"
        }
      ],
      "stateMutability": "nonpayable",
      "type": "function"
    },
    {
      "inputs": [],
      "name": "currentDraw",
      "outputs": [
        {
          "internalType": "uint256",
          "name": "",
          "type": "uint256"
        }
      ],
      "stateMutability": "view",
      "type": "function"
    },
    {
      "inputs": [],
      "name": "currentLotto",
      "outputs": [
        {
          "internalType": "uint256",
          "name": "",
          "type": "uint256"
        }
      ],
      "stateMutability": "view",
      "type": "function"
    },
    {
      "inputs": [
        {
          "internalType": "address",
          "name": "",
          "type": "address"
        }
      ],
      "name": "debtToUser",
      "outputs": [
        {
          "internalType": "uint256",
          "name": "",
          "type": "uint256"
        }
      ],
      "stateMutability": "view",
      "type": "function"
    },
    {
      "inputs": [],
      "name": "drawFrequency",
      "outputs": [
        {
          "internalType": "uint256",
          "name": "",
          "type": "uint256"
        }
      ],
      "stateMutability": "view",
      "type": "function"
    },
    {
      "inputs": [],
      "name": "name",
      "outputs": [
        {
          "internalType": "string",
          "name": "",
          "type": "string"
        }
      ],
      "stateMutability": "view",
      "type": "function"
    },
    {
      "inputs": [
        {
          "internalType": "address",
          "name": "tokenToSweep",
          "type": "address"
        }
      ],
      "name": "sweep",
      "outputs": [
        {
          "internalType": "bool",
          "name": "",
          "type": "bool"
        }
      ],
      "stateMutability": "nonpayable",
      "type": "function"
    },
    {
      "inputs": [],
      "name": "sweeper",
      "outputs": [
        {
          "internalType": "address",
          "name": "",
          "type": "address"
        }
      ],
      "stateMutability": "view",
      "type": "function"
    },
    {
      "inputs": [],
      "name": "ticketCounter",
      "outputs": [
        {
          "internalType": "uint256",
          "name": "",
          "type": "uint256"
        }
      ],
      "stateMutability": "view",
      "type": "function"
    },
    {
      "inputs": [],
      "name": "ticketPrice",
      "outputs": [
        {
          "internalType": "uint256",
          "name": "",
          "type": "uint256"
        }
      ],
      "stateMutability": "view",
      "type": "function"
    },
    {
      "inputs": [
        {
          "internalType": "bytes32",
          "name": "",
          "type": "bytes32"
        }
      ],
      "name": "tickets",
      "outputs": [
        {
          "internalType": "uint256",
          "name": "ticketNumber",
          "type": "uint256"
        }
      ],
      "stateMutability": "view",
      "type": "function"
    },
    {
      "inputs": [],
      "name": "totalValuePlayed",
      "outputs": [
        {
          "internalType": "uint256",
          "name": "",
          "type": "uint256"
        }
      ],
      "stateMutability": "view",
      "type": "function"
    },
    {
      "inputs": [
        {
          "internalType": "uint256",
          "name": "",
          "type": "uint256"
        },
        {
          "internalType": "address",
          "name": "",
          "type": "address"
        },
        {
          "internalType": "uint256",
          "name": "",
          "type": "uint256"
        }
      ],
      "name": "userTickets",
      "outputs": [
        {
          "internalType": "bytes32",
          "name": "",
          "type": "bytes32"
        }
      ],
      "stateMutability": "view",
      "type": "function"
    },
    {
      "inputs": [],
      "name": "winChance",
      "outputs": [
        {
          "internalType": "uint256",
          "name": "",
          "type": "uint256"
        }
      ],
      "stateMutability": "view",
      "type": "function"
    }
  ],
  "bytecode": "0x6080604052600060055560006006556000600755600060085534801561002457600080fd5b5061003361007760201b60201c565b6000806101000a81548173ffffffffffffffffffffffffffffffffffffffff021916908373ffffffffffffffffffffffffffffffffffffffff16021790555061007f565b600033905090565b610c208061008e6000396000f3fe608060405234801561001057600080fd5b50600436106100ea5760003560e01c806397ba287c1161008c578063b858bb6511610066578063b858bb651461023f578063cd15cf611461026f578063df0dd0d51461028d578063ebec9362146102bd576100ea565b806397ba287c146101e55780639cd5b0d614610203578063a5a4054414610221576100ea565b80634cec4ed1116100c85780634cec4ed11461015b5780636dbeffbe1461018b5780638c4d59d0146101a95780639189a59e146101c7576100ea565b806301681a62146100ef57806306fdde031461011f5780631209b1f61461013d575b600080fd5b61010960048036038101906101049190610776565b6102ed565b60405161011691906109c8565b60405180910390f35b6101276104d4565b60405161013491906109fe565b60405180910390f35b610145610562565b6040516101529190610a60565b60405180910390f35b61017560048036038101906101709190610776565b610568565b60405161018291906109c8565b60405180910390f35b610193610649565b6040516101a09190610a60565b60405180910390f35b6101b161064f565b6040516101be9190610a60565b60405180910390f35b6101cf610655565b6040516101dc9190610984565b60405180910390f35b6101ed610679565b6040516101fa9190610a60565b60405180910390f35b61020b61067f565b6040516102189190610a60565b60405180910390f35b610229610685565b6040516102369190610a60565b60405180910390f35b6102596004803603810190610254919061081a565b61068b565b60405161026691906109e3565b60405180910390f35b6102776106c9565b6040516102849190610a60565b60405180910390f35b6102a760048036038101906102a291906107c8565b6106cf565b6040516102b49190610a60565b60405180910390f35b6102d760048036038101906102d29190610776565b6106ed565b6040516102e49190610a60565b60405180910390f35b60008060009054906101000a900473ffffffffffffffffffffffffffffffffffffffff1673ffffffffffffffffffffffffffffffffffffffff1661032f610705565b73ffffffffffffffffffffffffffffffffffffffff1614610385576040517f08c379a000000000000000000000000000000000000000000000000000000000815260040161037c90610a40565b60405180910390fd5b60008273ffffffffffffffffffffffffffffffffffffffff166370a08231306040518263ffffffff1660e01b81526004016103c09190610984565b60206040518083038186803b1580156103d857600080fd5b505afa1580156103ec573d6000803e3d6000fd5b505050506040513d601f19601f8201168201806040525081019061041091906107f1565b905060008111156104ca578273ffffffffffffffffffffffffffffffffffffffff1663a9059cbb60008054906101000a900473ffffffffffffffffffffffffffffffffffffffff16836040518363ffffffff1660e01b815260040161047692919061099f565b602060405180830381600087803b15801561049057600080fd5b505af11580156104a4573d6000803e3d6000fd5b505050506040513d601f19601f820116820180604052508101906104c8919061079f565b505b6001915050919050565b600180546104e190610b1c565b80601f016020809104026020016040519081016040528092919081815260200182805461050d90610b1c565b801561055a5780601f1061052f5761010080835404028352916020019161055a565b820191906000526020600020905b81548152906001019060200180831161053d57829003601f168201915b505050505081565b60035481565b60008060009054906101000a900473ffffffffffffffffffffffffffffffffffffffff1673ffffffffffffffffffffffffffffffffffffffff166105aa610705565b73ffffffffffffffffffffffffffffffffffffffff1614610600576040517f08c379a00000000000000000000000000000000000000000000000000000000081526004016105f790610a20565b60405180910390fd5b816000806101000a81548173ffffffffffffffffffffffffffffffffffffffff021916908373ffffffffffffffffffffffffffffffffffffffff16021790555060019050919050565b60045481565b60075481565b60008054906101000a900473ffffffffffffffffffffffffffffffffffffffff1681565b60065481565b60085481565b60025481565b600b60205282600052604060002060205281600052604060002081815481106106b357600080fd5b9060005260206000200160009250925050505481565b60055481565b600a6020528060005260406000206000915090508060010154905081565b600c6020528060005260406000206000915090505481565b600033905090565b60008135905061071c81610b8e565b92915050565b60008151905061073181610ba5565b92915050565b60008135905061074681610bbc565b92915050565b60008135905061075b81610bd3565b92915050565b60008151905061077081610bd3565b92915050565b60006020828403121561078857600080fd5b60006107968482850161070d565b91505092915050565b6000602082840312156107b157600080fd5b60006107bf84828501610722565b91505092915050565b6000602082840312156107da57600080fd5b60006107e884828501610737565b91505092915050565b60006020828403121561080357600080fd5b600061081184828501610761565b91505092915050565b60008060006060848603121561082f57600080fd5b600061083d8682870161074c565b935050602061084e8682870161070d565b925050604061085f8682870161074c565b9150509250925092565b61087281610a97565b82525050565b61088181610aa9565b82525050565b61089081610ab5565b82525050565b60006108a182610a7b565b6108ab8185610a86565b93506108bb818560208601610ae9565b6108c481610b7d565b840191505092915050565b60006108dc602983610a86565b91507f4f6e6c792074686520737765657065722063616e2061737369676e206120726560008301527f706c6163656d656e7400000000000000000000000000000000000000000000006020830152604082019050919050565b6000610942601383610a86565b91507f6d757374206265207468652073776565706572000000000000000000000000006000830152602082019050919050565b61097e81610adf565b82525050565b60006020820190506109996000830184610869565b92915050565b60006040820190506109b46000830185610869565b6109c16020830184610975565b9392505050565b60006020820190506109dd6000830184610878565b92915050565b60006020820190506109f86000830184610887565b92915050565b60006020820190508181036000830152610a188184610896565b905092915050565b60006020820190508181036000830152610a39816108cf565b9050919050565b60006020820190508181036000830152610a5981610935565b9050919050565b6000602082019050610a756000830184610975565b92915050565b600081519050919050565b600082825260208201905092915050565b6000610aa282610abf565b9050919050565b60008115159050919050565b6000819050919050565b600073ffffffffffffffffffffffffffffffffffffffff82169050919050565b6000819050919050565b60005b83811015610b07578082015181840152602081019050610aec565b83811115610b16576000848401525b50505050565b60006002820490506001821680610b3457607f821691505b60208210811415610b4857610b47610b4e565b5b50919050565b7f4e487b7100000000000000000000000000000000000000000000000000000000600052602260045260246000fd5b6000601f19601f8301169050919050565b610b9781610a97565b8114610ba257600080fd5b50565b610bae81610aa9565b8114610bb957600080fd5b50565b610bc581610ab5565b8114610bd057600080fd5b50565b610bdc81610adf565b8114610be757600080fd5b5056fea26469706673582212202d13ff7f9770ce892d37e2e73fbf8822cd9ca57d646dfa33277057a2f220520164736f6c63430008000033",
  "linkReferences": {},
  "deployedLinkReferences": {}
}