{
  "_format": "hh-sol-artifact-1",
  "contractName": "FantomERC20Lottery",
  "sourceName": "contracts/ERC20Lotto.sol",
  "abi": [
    {
      "inputs": [
        {
          "internalType": "uint256",
          "name": "_drawFrequency",
          "type": "uint256"
        },
        {
          "internalType": "uint256",
          "name": "_ticketPrice",
          "type": "uint256"
        },
        {
          "internalType": "string",
          "name": "_name",
          "type": "string"
        },
        {
          "internalType": "address",
          "name": "_feeRecipient",
          "type": "address"
        },
        {
          "internalType": "uint256",
          "name": "_modulus",
          "type": "uint256"
        },
        {
          "internalType": "address",
          "name": "_tokenAddress",
          "type": "address"
        }
      ],
      "stateMutability": "nonpayable",
      "type": "constructor"
    },
    {
      "anonymous": false,
      "inputs": [
        {
          "indexed": false,
          "internalType": "bool",
          "name": "winnerSelected",
          "type": "bool"
        },
        {
          "indexed": false,
          "internalType": "bytes32",
          "name": "winningTicket",
          "type": "bytes32"
        }
      ],
      "name": "newDraw",
      "type": "event"
    },
    {
      "anonymous": false,
      "inputs": [
        {
          "indexed": false,
          "internalType": "address",
          "name": "entrant",
          "type": "address"
        },
        {
          "indexed": false,
          "internalType": "bytes32",
          "name": "ticketID",
          "type": "bytes32"
        },
        {
          "indexed": false,
          "internalType": "uint256",
          "name": "totalPot",
          "type": "uint256"
        }
      ],
      "name": "newEntry",
      "type": "event"
    },
    {
      "anonymous": false,
      "inputs": [
        {
          "indexed": false,
          "internalType": "address",
          "name": "user",
          "type": "address"
        },
        {
          "indexed": false,
          "internalType": "uint256",
          "name": "amount",
          "type": "uint256"
        }
      ],
      "name": "newPayment",
      "type": "event"
    },
    {
      "anonymous": false,
      "inputs": [
        {
          "indexed": false,
          "internalType": "uint256",
          "name": "lottoNumber",
          "type": "uint256"
        }
      ],
      "name": "newRound",
      "type": "event"
    },
    {
      "inputs": [],
      "name": "currentDraw",
      "outputs": [
        {
          "internalType": "uint256",
          "name": "",
          "type": "uint256"
        }
      ],
      "stateMutability": "view",
      "type": "function"
    },
    {
      "inputs": [],
      "name": "currentLotto",
      "outputs": [
        {
          "internalType": "uint256",
          "name": "",
          "type": "uint256"
        }
      ],
      "stateMutability": "view",
      "type": "function"
    },
    {
      "inputs": [
        {
          "internalType": "address",
          "name": "",
          "type": "address"
        }
      ],
      "name": "debtToUser",
      "outputs": [
        {
          "internalType": "uint256",
          "name": "",
          "type": "uint256"
        }
      ],
      "stateMutability": "view",
      "type": "function"
    },
    {
      "inputs": [],
      "name": "draw",
      "outputs": [
        {
          "internalType": "bytes32",
          "name": "",
          "type": "bytes32"
        }
      ],
      "stateMutability": "nonpayable",
      "type": "function"
    },
    {
      "inputs": [],
      "name": "drawFrequency",
      "outputs": [
        {
          "internalType": "uint256",
          "name": "",
          "type": "uint256"
        }
      ],
      "stateMutability": "view",
      "type": "function"
    },
    {
      "inputs": [],
      "name": "enter",
      "outputs": [
        {
          "internalType": "bytes32",
          "name": "",
          "type": "bytes32"
        }
      ],
      "stateMutability": "nonpayable",
      "type": "function"
    },
    {
      "inputs": [],
      "name": "ethDecimals",
      "outputs": [
        {
          "internalType": "uint256",
          "name": "",
          "type": "uint256"
        }
      ],
      "stateMutability": "view",
      "type": "function"
    },
    {
      "inputs": [],
      "name": "fee",
      "outputs": [
        {
          "internalType": "uint256",
          "name": "",
          "type": "uint256"
        }
      ],
      "stateMutability": "view",
      "type": "function"
    },
    {
      "inputs": [],
      "name": "feeRecipient",
      "outputs": [
        {
          "internalType": "address",
          "name": "",
          "type": "address"
        }
      ],
      "stateMutability": "view",
      "type": "function"
    },
    {
      "inputs": [],
      "name": "getPaid",
      "outputs": [
        {
          "internalType": "bool",
          "name": "",
          "type": "bool"
        }
      ],
      "stateMutability": "nonpayable",
      "type": "function"
    },
    {
      "inputs": [],
      "name": "modulus",
      "outputs": [
        {
          "internalType": "uint256",
          "name": "",
          "type": "uint256"
        }
      ],
      "stateMutability": "view",
      "type": "function"
    },
    {
      "inputs": [],
      "name": "name",
      "outputs": [
        {
          "internalType": "string",
          "name": "",
          "type": "string"
        }
      ],
      "stateMutability": "view",
      "type": "function"
    },
    {
      "inputs": [],
      "name": "readyToDraw",
      "outputs": [
        {
          "internalType": "bool",
          "name": "",
          "type": "bool"
        }
      ],
      "stateMutability": "view",
      "type": "function"
    },
    {
      "inputs": [
        {
          "internalType": "address",
          "name": "sweepee",
          "type": "address"
        }
      ],
      "name": "sweep",
      "outputs": [
        {
          "internalType": "bool",
          "name": "",
          "type": "bool"
        }
      ],
      "stateMutability": "nonpayable",
      "type": "function"
    },
    {
      "inputs": [],
      "name": "ticketCounter",
      "outputs": [
        {
          "internalType": "uint256",
          "name": "",
          "type": "uint256"
        }
      ],
      "stateMutability": "view",
      "type": "function"
    },
    {
      "inputs": [],
      "name": "ticketPrice",
      "outputs": [
        {
          "internalType": "uint256",
          "name": "",
          "type": "uint256"
        }
      ],
      "stateMutability": "view",
      "type": "function"
    },
    {
      "inputs": [
        {
          "internalType": "bytes32",
          "name": "",
          "type": "bytes32"
        }
      ],
      "name": "tickets",
      "outputs": [
        {
          "internalType": "uint256",
          "name": "ticketNumber",
          "type": "uint256"
        }
      ],
      "stateMutability": "view",
      "type": "function"
    },
    {
      "inputs": [],
      "name": "tokenAddress",
      "outputs": [
        {
          "internalType": "address",
          "name": "",
          "type": "address"
        }
      ],
      "stateMutability": "view",
      "type": "function"
    },
    {
      "inputs": [
        {
          "internalType": "uint256",
          "name": "",
          "type": "uint256"
        },
        {
          "internalType": "address",
          "name": "",
          "type": "address"
        },
        {
          "internalType": "uint256",
          "name": "",
          "type": "uint256"
        }
      ],
      "name": "userTickets",
      "outputs": [
        {
          "internalType": "bytes32",
          "name": "",
          "type": "bytes32"
        }
      ],
      "stateMutability": "view",
      "type": "function"
    },
    {
      "inputs": [
        {
          "internalType": "uint256",
          "name": "lottoNumber",
          "type": "uint256"
        }
      ],
      "name": "viewLotto",
      "outputs": [
        {
          "components": [
            {
              "internalType": "uint256",
              "name": "startTime",
              "type": "uint256"
            },
            {
              "internalType": "uint256",
              "name": "lastDraw",
              "type": "uint256"
            },
            {
              "internalType": "uint256",
              "name": "totalPot",
              "type": "uint256"
            },
            {
              "internalType": "bytes32",
              "name": "winningTicket",
              "type": "bytes32"
            },
            {
              "internalType": "bool",
              "name": "finished",
              "type": "bool"
            }
          ],
          "internalType": "struct Lottery",
          "name": "",
          "type": "tuple"
        }
      ],
      "stateMutability": "view",
      "type": "function"
    },
    {
      "inputs": [],
      "name": "viewOdds",
      "outputs": [
        {
          "internalType": "uint256",
          "name": "",
          "type": "uint256"
        }
      ],
      "stateMutability": "view",
      "type": "function"
    },
    {
      "inputs": [
        {
          "internalType": "bytes32",
          "name": "_ticketID",
          "type": "bytes32"
        }
      ],
      "name": "viewTicketHolders",
      "outputs": [
        {
          "internalType": "address[]",
          "name": "",
          "type": "address[]"
        }
      ],
      "stateMutability": "view",
      "type": "function"
    },
    {
      "inputs": [
        {
          "internalType": "bytes32",
          "name": "_ticketID",
          "type": "bytes32"
        }
      ],
      "name": "viewTicketNumber",
      "outputs": [
        {
          "internalType": "uint256",
          "name": "",
          "type": "uint256"
        }
      ],
      "stateMutability": "view",
      "type": "function"
    },
    {
      "inputs": [
        {
          "internalType": "uint256",
          "name": "lottoNumber",
          "type": "uint256"
        }
      ],
      "name": "viewTicketsByLotto",
      "outputs": [
        {
          "internalType": "bytes32[]",
          "name": "",
          "type": "bytes32[]"
        }
      ],
      "stateMutability": "view",
      "type": "function"
    },
    {
      "inputs": [],
      "name": "viewWinnings",
      "outputs": [
        {
          "internalType": "uint256",
          "name": "",
          "type": "uint256"
        }
      ],
      "stateMutability": "view",
      "type": "function"
    }
  ],
  "bytecode": "0x60e0604052600360009054906101000a900473ffffffffffffffffffffffffffffffffffffffff16600460006101000a81548173ffffffffffffffffffffffffffffffffffffffff021916908373ffffffffffffffffffffffffffffffffffffffff1602179055503480156200007457600080fd5b506040516200311a3803806200311a83398181016040528101906200009a919062000448565b600160008190555085608081815250508460a081815250508360019080519060200190620000ca929190620002f8565b5082600260006101000a81548173ffffffffffffffffffffffffffffffffffffffff021916908373ffffffffffffffffffffffffffffffffffffffff1602179055508160c0818152505080600360006101000a81548173ffffffffffffffffffffffffffffffffffffffff021916908373ffffffffffffffffffffffffffffffffffffffff160217905550620001656200017260201b60201c565b50505050505050620007e0565b6000806005541115620001e85760086000600554815260200190815260200160002060040160009054906101000a900460ff16620001e7576040517f08c379a0000000000000000000000000000000000000000000000000000000008152600401620001de9062000570565b60405180910390fd5b5b60056000815480929190620001fd90620006d1565b91905055506040518060a001604052806200021d620002f060201b60201c565b815260200162000232620002f060201b60201c565b8152602001600081526020016000801b8152602001600015158152506008600060055481526020019081526020016000206000820151816000015560208201518160010155604082015181600201556060820151816003015560808201518160040160006101000a81548160ff0219169083151502179055509050507fa35bd591310404f547e67d0f261a54d0a2a7606bf1695c5e9134f4259805eb7c600554604051620002e1919062000592565b60405180910390a16001905090565b600042905090565b82805462000306906200069b565b90600052602060002090601f0160209004810192826200032a576000855562000376565b82601f106200034557805160ff191683800117855562000376565b8280016001018555821562000376579182015b828111156200037557825182559160200191906001019062000358565b5b50905062000385919062000389565b5090565b5b80821115620003a45760008160009055506001016200038a565b5090565b6000620003bf620003b984620005e3565b620005af565b905082815260208101848484011115620003d857600080fd5b620003e584828562000665565b509392505050565b600081519050620003fe81620007ac565b92915050565b600082601f8301126200041657600080fd5b815162000428848260208601620003a8565b91505092915050565b6000815190506200044281620007c6565b92915050565b60008060008060008060c087890312156200046257600080fd5b60006200047289828a0162000431565b96505060206200048589828a0162000431565b955050604087015167ffffffffffffffff811115620004a357600080fd5b620004b189828a0162000404565b9450506060620004c489828a01620003ed565b9350506080620004d789828a0162000431565b92505060a0620004ea89828a01620003ed565b9150509295509295509295565b60006200050660218362000616565b91507f70726576696f7573206c6f747465727920686173206e6f742066696e6973686560008301527f64000000000000000000000000000000000000000000000000000000000000006020830152604082019050919050565b6200056a816200065b565b82525050565b600060208201905081810360008301526200058b81620004f7565b9050919050565b6000602082019050620005a960008301846200055f565b92915050565b6000604051905081810181811067ffffffffffffffff82111715620005d957620005d86200077d565b5b8060405250919050565b600067ffffffffffffffff8211156200060157620006006200077d565b5b601f19601f8301169050602081019050919050565b600082825260208201905092915050565b600062000634826200063b565b9050919050565b600073ffffffffffffffffffffffffffffffffffffffff82169050919050565b6000819050919050565b60005b838110156200068557808201518184015260208101905062000668565b8381111562000695576000848401525b50505050565b60006002820490506001821680620006b457607f821691505b60208210811415620006cb57620006ca6200074e565b5b50919050565b6000620006de826200065b565b91507fffffffffffffffffffffffffffffffffffffffffffffffffffffffffffffffff8214156200071457620007136200071f565b5b600182019050919050565b7f4e487b7100000000000000000000000000000000000000000000000000000000600052601160045260246000fd5b7f4e487b7100000000000000000000000000000000000000000000000000000000600052602260045260246000fd5b7f4e487b7100000000000000000000000000000000000000000000000000000000600052604160045260246000fd5b620007b78162000627565b8114620007c357600080fd5b50565b620007d1816200065b565b8114620007dd57600080fd5b50565b60805160a05160c0516128e762000833600039600081816109a8015281816112fc015261178c015260008181610982015281816110fe01526111a8015260008181610b370152610bb001526128e76000f3fe608060405234801561001057600080fd5b50600436106101735760003560e01c80639ad572f5116100de578063dccd1ae111610097578063e56d71bc11610071578063e56d71bc1461045a578063e97dcb621461048a578063ebec9362146104a8578063ff4b0400146104d857610173565b8063dccd1ae1146103dc578063ddca3f431461040c578063df0dd0d51461042a57610173565b80639ad572f5146103165780639d76ea5814610334578063a5a4054414610352578063b858bb6514610370578063cd15cf61146103a0578063cf41d6f8146103be57610173565b80634690484011610130578063469048401461023e57806355e9fa4f1461025c57806386ae228f1461028c57806387687952146102bc5780638c4d59d0146102da57806397ba287c146102f857610173565b806301681a621461017857806306fdde03146101a85780630eecae21146101c65780631209b1f6146101e4578063154a79801461020257806330bd8d6914610220575b600080fd5b610192600480360381019061018d9190611c7f565b6104f6565b60405161019f9190612342565b60405180910390f35b6101b06106e6565b6040516101bd91906123a1565b60405180910390f35b6101ce610774565b6040516101db9190612386565b60405180910390f35b6101ec610980565b6040516101f991906124be565b60405180910390f35b61020a6109a4565b60405161021791906124be565b60405180910390f35b6102286109d8565b60405161023591906124be565b60405180910390f35b6102466109e4565b604051610253919061224c565b60405180910390f35b61027660048036038101906102719190611cfa565b610a0a565b6040516102839190612320565b60405180910390f35b6102a660048036038101906102a19190611cd1565b610ab9565b6040516102b391906124be565b60405180910390f35b6102c4610ad9565b6040516102d191906124be565b60405180910390f35b6102e2610b27565b6040516102ef91906124be565b60405180910390f35b610300610b2d565b60405161030d91906124be565b60405180910390f35b61031e610b33565b60405161032b9190612342565b60405180910390f35b61033c610b88565b604051610349919061224c565b60405180910390f35b61035a610bae565b60405161036791906124be565b60405180910390f35b61038a60048036038101906103859190611d4c565b610bd2565b6040516103979190612386565b60405180910390f35b6103a8610c10565b6040516103b591906124be565b60405180910390f35b6103c6610c16565b6040516103d39190612342565b60405180910390f35b6103f660048036038101906103f19190611cfa565b610f0b565b60405161040391906124a3565b60405180910390f35b610414610f7b565b60405161042191906124be565b60405180910390f35b610444600480360381019061043f9190611cd1565b610f86565b60405161045191906124be565b60405180910390f35b610474600480360381019061046f9190611cd1565b610fa4565b60405161048191906122fe565b60405180910390f35b610492611048565b60405161049f9190612386565b60405180910390f35b6104c260048036038101906104bd9190611c7f565b6112e2565b6040516104cf91906124be565b60405180910390f35b6104e06112fa565b6040516104ed91906124be565b60405180910390f35b6000600260009054906101000a900473ffffffffffffffffffffffffffffffffffffffff1673ffffffffffffffffffffffffffffffffffffffff1661053961131e565b73ffffffffffffffffffffffffffffffffffffffff161461058f576040517f08c379a0000000000000000000000000000000000000000000000000000000008152600401610586906123e3565b60405180910390fd5b600082905060008173ffffffffffffffffffffffffffffffffffffffff166370a08231306040518263ffffffff1660e01b81526004016105cf919061224c565b60206040518083038186803b1580156105e757600080fd5b505afa1580156105fb573d6000803e3d6000fd5b505050506040513d601f19601f8201168201806040525081019061061f9190611d23565b905060008111156106db578173ffffffffffffffffffffffffffffffffffffffff1663a9059cbb600260009054906101000a900473ffffffffffffffffffffffffffffffffffffffff16836040518363ffffffff1660e01b81526004016106879291906122d5565b602060405180830381600087803b1580156106a157600080fd5b505af11580156106b5573d6000803e3d6000fd5b505050506040513d601f19601f820116820180604052508101906106d99190611ca8565b505b600192505050919050565b600180546106f390612701565b80601f016020809104026020016040519081016040528092919081815260200182805461071f90612701565b801561076c5780601f106107415761010080835404028352916020019161076c565b820191906000526020600020905b81548152906001019060200180831161074f57829003601f168201915b505050505081565b6000600260005414156107bc576040517f08c379a00000000000000000000000000000000000000000000000000000000081526004016107b390612483565b60405180910390fd5b60026000819055506107cc610b33565b61080b576040517f08c379a000000000000000000000000000000000000000000000000000000000815260040161080290612403565b60405180910390fd5b60086000600554815260200190815260200160002060040160009054906101000a900460ff1615610871576040517f08c379a000000000000000000000000000000000000000000000000000000000815260040161086890612443565b60405180910390fd5b610879611326565b60086000600554815260200190815260200160002060010181905550600061089f61132e565b90506000801b81141561090757600660008154809291906108bf90612733565b91905055507fe0dbc9529120eb99dfdd738608a453baef8223964340a20ebbc2d79558ea1f9a6000826040516108f692919061235d565b60405180910390a180915050610975565b806008600060055481526020019081526020016000206003018190555061092c611380565b5061093561154a565b507fe0dbc9529120eb99dfdd738608a453baef8223964340a20ebbc2d79558ea1f9a60018260405161096892919061235d565b60405180910390a1809150505b600160008190555090565b7f000000000000000000000000000000000000000000000000000000000000000081565b60007f0000000000000000000000000000000000000000000000000000000000000000600a6109d391906125ee565b905090565b670de0b6b3a764000081565b600260009054906101000a900473ffffffffffffffffffffffffffffffffffffffff1681565b6060600a60008381526020019081526020016000206000610a2961131e565b73ffffffffffffffffffffffffffffffffffffffff1673ffffffffffffffffffffffffffffffffffffffff168152602001908152602001600020805480602002602001604051908101604052809291908181526020018280548015610aad57602002820191906000526020600020905b815481526020019060010190808311610a99575b50505050509050919050565b600060096000838152602001908152602001600020600101549050919050565b6000600b6000610ae761131e565b73ffffffffffffffffffffffffffffffffffffffff1673ffffffffffffffffffffffffffffffffffffffff16815260200190815260200160002054905090565b60075481565b60065481565b60007f000000000000000000000000000000000000000000000000000000000000000060086000600554815260200190815260200160002060010154610b77611326565b610b819190612648565b1015905090565b600360009054906101000a900473ffffffffffffffffffffffffffffffffffffffff1681565b7f000000000000000000000000000000000000000000000000000000000000000081565b600a6020528260005260406000206020528160005260406000208181548110610bfa57600080fd5b9060005260206000200160009250925050505481565b60055481565b600060026000541415610c5e576040517f08c379a0000000000000000000000000000000000000000000000000000000008152600401610c5590612483565b60405180910390fd5b60026000819055506000600b6000610c7461131e565b73ffffffffffffffffffffffffffffffffffffffff1673ffffffffffffffffffffffffffffffffffffffff168152602001908152602001600020541415610cf0576040517f08c379a0000000000000000000000000000000000000000000000000000000008152600401610ce790612423565b60405180910390fd5b6000600b6000610cfe61131e565b73ffffffffffffffffffffffffffffffffffffffff1673ffffffffffffffffffffffffffffffffffffffff1681526020019081526020016000205490506000600b6000610d4961131e565b73ffffffffffffffffffffffffffffffffffffffff1673ffffffffffffffffffffffffffffffffffffffff16815260200190815260200160002081905550600460009054906101000a900473ffffffffffffffffffffffffffffffffffffffff1673ffffffffffffffffffffffffffffffffffffffff1663a9059cbb610dcd61131e565b836040518363ffffffff1660e01b8152600401610deb9291906122d5565b602060405180830381600087803b158015610e0557600080fd5b505af1158015610e19573d6000803e3d6000fd5b505050506040513d601f19601f82011682018060405250810190610e3d9190611ca8565b506000600b6000610e4c61131e565b73ffffffffffffffffffffffffffffffffffffffff1673ffffffffffffffffffffffffffffffffffffffff1681526020019081526020016000205414610ebb577f4e487b7100000000000000000000000000000000000000000000000000000000600052600160045260246000fd5b7f481007a75a4407f69a4ebcf25782e3537f6d76c13b46f71db08ae80c2b699e07610ee461131e565b82604051610ef39291906122d5565b60405180910390a16001915050600160008190555090565b610f13611b3b565b600860008381526020019081526020016000206040518060a0016040529081600082015481526020016001820154815260200160028201548152602001600382015481526020016004820160009054906101000a900460ff1615151515815250509050919050565b666a94d74f43000081565b60096020528060005260406000206000915090508060010154905081565b60606009600083815260200190815260200160002060000180548060200260200160405190810160405280929190818152602001828054801561103c57602002820191906000526020600020905b8160009054906101000a900473ffffffffffffffffffffffffffffffffffffffff1673ffffffffffffffffffffffffffffffffffffffff1681526020019060010190808311610ff2575b50505050509050919050565b600080151560086000600554815260200190815260200160002060040160009054906101000a900460ff161515146110b5576040517f08c379a00000000000000000000000000000000000000000000000000000000081526004016110ac90612463565b60405180910390fd5b600460009054906101000a900473ffffffffffffffffffffffffffffffffffffffff1673ffffffffffffffffffffffffffffffffffffffff166323b872dd6110fb61131e565b307f00000000000000000000000000000000000000000000000000000000000000006040518463ffffffff1660e01b815260040161113b93929190612267565b602060405180830381600087803b15801561115557600080fd5b505af1158015611169573d6000803e3d6000fd5b505050506040513d601f19601f8201168201806040525081019061118d9190611ca8565b50600760008154809291906111a190612733565b91905055507f000000000000000000000000000000000000000000000000000000000000000060086000600554815260200190815260200160002060020160008282546111ee9190612567565b9250508190555060006111ff61156b565b9050600a60006005548152602001908152602001600020600061122061131e565b73ffffffffffffffffffffffffffffffffffffffff1673ffffffffffffffffffffffffffffffffffffffff1681526020019081526020016000208190806001815401808255809150506001900390600052602060002001600090919091909150557f1a68cfba6503f189182fd0e12b64a6c8b19d129ee1bb7aba124ab08d8a57e4686112aa61131e565b82600860006005548152602001908152602001600020600201546040516112d39392919061229e565b60405180910390a18091505090565b600b6020528060005260406000206000915090505481565b7f000000000000000000000000000000000000000000000000000000000000000081565b600033905090565b600042905090565b60008061133961177b565b90506000611346826117c0565b905060006009600083815260200190815260200160002060000180549050111561137457809250505061137d565b6000801b925050505b90565b6000600160086000600554815260200190815260200160002060040160006101000a81548160ff021916908315150217905550600060086000600554815260200190815260200160002060030154905060006009600083815260200190815260200160002060000180548060200260200160405190810160405280929190818152602001828054801561146857602002820191906000526020600020905b8160009054906101000a900473ffffffffffffffffffffffffffffffffffffffff1673ffffffffffffffffffffffffffffffffffffffff168152602001906001019080831161141e575b5050505050905060006114796117fd565b90506000611487828561188f565b905060005b835181101561153e5781600b60008684815181106114d3577f4e487b7100000000000000000000000000000000000000000000000000000000600052603260045260246000fd5b602002602001015173ffffffffffffffffffffffffffffffffffffffff1673ffffffffffffffffffffffffffffffffffffffff16815260200190815260200160002060008282546115249190612567565b92505081905550808061153690612733565b91505061148c565b50600194505050505090565b600080600681905550600060078190555061156361196a565b506001905090565b60008061157661177b565b90506000611583826117c0565b905060006009600083815260200190815260200160002060000180549050111561162f57600960008281526020019081526020016000206000016115c561131e565b9080600181540180825580915050600190039060005260206000200160009091909190916101000a81548173ffffffffffffffffffffffffffffffffffffffff021916908373ffffffffffffffffffffffffffffffffffffffff1602179055508092505050611778565b6000600167ffffffffffffffff811115611672577f4e487b7100000000000000000000000000000000000000000000000000000000600052604160045260246000fd5b6040519080825280602002602001820160405280156116a05781602001602082028036833780820191505090505b5090506116ab61131e565b816000815181106116e5577f4e487b7100000000000000000000000000000000000000000000000000000000600052603260045260246000fd5b602002602001019073ffffffffffffffffffffffffffffffffffffffff16908173ffffffffffffffffffffffffffffffffffffffff1681525050604051806040016040528082815260200184815250600960008481526020019081526020016000206000820151816000019080519060200190611763929190611b6f565b50602082015181600101559050508193505050505b90565b600080611786611ad0565b905060007f0000000000000000000000000000000000000000000000000000000000000000826117b69190612786565b9050809250505090565b600080600554600654846040516020016117dc9392919061220f565b60405160208183030381529060405280519060200120905080915050919050565b600080600860006005548152602001908152602001600020600201549050600061182682611b07565b9050600081836118369190612648565b9050600860006005548152602001908152602001600020600201548110611886577f4e487b7100000000000000000000000000000000000000000000000000000000600052600160045260246000fd5b80935050505090565b60008060096000848152602001908152602001600020600001805490509050600084600860006005548152602001908152602001600020600201546118d49190612648565b905080600b6000600260009054906101000a900473ffffffffffffffffffffffffffffffffffffffff1673ffffffffffffffffffffffffffffffffffffffff1673ffffffffffffffffffffffffffffffffffffffff16815260200190815260200160002060008282546119479190612567565b925050819055506000828661195c91906125bd565b905080935050505092915050565b60008060055411156119dc5760086000600554815260200190815260200160002060040160009054906101000a900460ff166119db576040517f08c379a00000000000000000000000000000000000000000000000000000000081526004016119d2906123c3565b60405180910390fd5b5b600560008154809291906119ef90612733565b91905055506040518060a00160405280611a07611326565b8152602001611a14611326565b8152602001600081526020016000801b8152602001600015158152506008600060055481526020019081526020016000206000820151816000015560208201518160010155604082015181600201556060820151816003015560808201518160040160006101000a81548160ff0219169083151502179055509050507fa35bd591310404f547e67d0f261a54d0a2a7606bf1695c5e9134f4259805eb7c600554604051611ac191906124be565b60405180910390a16001905090565b60004243600754604051602001611ae99392919061220f565b6040516020818303038152906040528051906020012060001c905090565b600080670de0b6b3a7640000666a94d74f43000084611b2691906125ee565b611b3091906125bd565b905080915050919050565b6040518060a00160405280600081526020016000815260200160008152602001600080191681526020016000151581525090565b828054828255906000526020600020908101928215611be8579160200282015b82811115611be75782518260006101000a81548173ffffffffffffffffffffffffffffffffffffffff021916908373ffffffffffffffffffffffffffffffffffffffff16021790555091602001919060010190611b8f565b5b509050611bf59190611bf9565b5090565b5b80821115611c12576000816000905550600101611bfa565b5090565b600081359050611c2581612855565b92915050565b600081519050611c3a8161286c565b92915050565b600081359050611c4f81612883565b92915050565b600081359050611c648161289a565b92915050565b600081519050611c798161289a565b92915050565b600060208284031215611c9157600080fd5b6000611c9f84828501611c16565b91505092915050565b600060208284031215611cba57600080fd5b6000611cc884828501611c2b565b91505092915050565b600060208284031215611ce357600080fd5b6000611cf184828501611c40565b91505092915050565b600060208284031215611d0c57600080fd5b6000611d1a84828501611c55565b91505092915050565b600060208284031215611d3557600080fd5b6000611d4384828501611c6a565b91505092915050565b600080600060608486031215611d6157600080fd5b6000611d6f86828701611c55565b9350506020611d8086828701611c16565b9250506040611d9186828701611c55565b9150509250925092565b6000611da78383611dcb565b60208301905092915050565b6000611dbf8383611ec3565b60208301905092915050565b611dd48161267c565b82525050565b611de38161267c565b82525050565b6000611df4826124f9565b611dfe8185612534565b9350611e09836124d9565b8060005b83811015611e3a578151611e218882611d9b565b9750611e2c8361251a565b925050600181019050611e0d565b5085935050505092915050565b6000611e5282612504565b611e5c8185612545565b9350611e67836124e9565b8060005b83811015611e98578151611e7f8882611db3565b9750611e8a83612527565b925050600181019050611e6b565b5085935050505092915050565b611eae8161268e565b82525050565b611ebd8161268e565b82525050565b611ecc8161269a565b82525050565b611edb8161269a565b82525050565b6000611eec8261250f565b611ef68185612556565b9350611f068185602086016126ce565b611f0f81612844565b840191505092915050565b6000611f27602183612556565b91507f70726576696f7573206c6f747465727920686173206e6f742066696e6973686560008301527f64000000000000000000000000000000000000000000000000000000000000006020830152604082019050919050565b6000611f8d601983612556565b91507f6d757374206265207468652066656520726563697069656e74000000000000006000830152602082019050919050565b6000611fcd602683612556565b91507f4e6f7420656e6f7567682074696d6520656c61707365642066726f6d206c617360008301527f74206472617700000000000000000000000000000000000000000000000000006020830152604082019050919050565b6000612033601d83612556565b91507f796f752068617665206e6f2077696e6e696e677320746f20636c61696d0000006000830152602082019050919050565b6000612073603083612556565b91507f63757272656e74206c6f7474657279206973206f7665722e20706c656173652060008301527f73746172742061206e6577206f6e652e000000000000000000000000000000006020830152604082019050919050565b60006120d9603f83612556565b91507f612077696e6e65722068617320616c7265616479206265656e2073656c65637460008301527f65642e20706c656173652073746172742061206e6577206c6f74746572792e006020830152604082019050919050565b600061213f601f83612556565b91507f5265656e7472616e637947756172643a207265656e7472616e742063616c6c006000830152602082019050919050565b60a08201600082015161218860008501826121da565b50602082015161219b60208501826121da565b5060408201516121ae60408501826121da565b5060608201516121c16060850182611ec3565b5060808201516121d46080850182611ea5565b50505050565b6121e3816126c4565b82525050565b6121f2816126c4565b82525050565b612209612204826126c4565b61277c565b82525050565b600061221b82866121f8565b60208201915061222b82856121f8565b60208201915061223b82846121f8565b602082019150819050949350505050565b60006020820190506122616000830184611dda565b92915050565b600060608201905061227c6000830186611dda565b6122896020830185611dda565b61229660408301846121e9565b949350505050565b60006060820190506122b36000830186611dda565b6122c06020830185611ed2565b6122cd60408301846121e9565b949350505050565b60006040820190506122ea6000830185611dda565b6122f760208301846121e9565b9392505050565b600060208201905081810360008301526123188184611de9565b905092915050565b6000602082019050818103600083015261233a8184611e47565b905092915050565b60006020820190506123576000830184611eb4565b92915050565b60006040820190506123726000830185611eb4565b61237f6020830184611ed2565b9392505050565b600060208201905061239b6000830184611ed2565b92915050565b600060208201905081810360008301526123bb8184611ee1565b905092915050565b600060208201905081810360008301526123dc81611f1a565b9050919050565b600060208201905081810360008301526123fc81611f80565b9050919050565b6000602082019050818103600083015261241c81611fc0565b9050919050565b6000602082019050818103600083015261243c81612026565b9050919050565b6000602082019050818103600083015261245c81612066565b9050919050565b6000602082019050818103600083015261247c816120cc565b9050919050565b6000602082019050818103600083015261249c81612132565b9050919050565b600060a0820190506124b86000830184612172565b92915050565b60006020820190506124d360008301846121e9565b92915050565b6000819050602082019050919050565b6000819050602082019050919050565b600081519050919050565b600081519050919050565b600081519050919050565b6000602082019050919050565b6000602082019050919050565b600082825260208201905092915050565b600082825260208201905092915050565b600082825260208201905092915050565b6000612572826126c4565b915061257d836126c4565b9250827fffffffffffffffffffffffffffffffffffffffffffffffffffffffffffffffff038211156125b2576125b16127b7565b5b828201905092915050565b60006125c8826126c4565b91506125d3836126c4565b9250826125e3576125e26127e6565b5b828204905092915050565b60006125f9826126c4565b9150612604836126c4565b9250817fffffffffffffffffffffffffffffffffffffffffffffffffffffffffffffffff048311821515161561263d5761263c6127b7565b5b828202905092915050565b6000612653826126c4565b915061265e836126c4565b925082821015612671576126706127b7565b5b828203905092915050565b6000612687826126a4565b9050919050565b60008115159050919050565b6000819050919050565b600073ffffffffffffffffffffffffffffffffffffffff82169050919050565b6000819050919050565b60005b838110156126ec5780820151818401526020810190506126d1565b838111156126fb576000848401525b50505050565b6000600282049050600182168061271957607f821691505b6020821081141561272d5761272c612815565b5b50919050565b600061273e826126c4565b91507fffffffffffffffffffffffffffffffffffffffffffffffffffffffffffffffff821415612771576127706127b7565b5b600182019050919050565b6000819050919050565b6000612791826126c4565b915061279c836126c4565b9250826127ac576127ab6127e6565b5b828206905092915050565b7f4e487b7100000000000000000000000000000000000000000000000000000000600052601160045260246000fd5b7f4e487b7100000000000000000000000000000000000000000000000000000000600052601260045260246000fd5b7f4e487b7100000000000000000000000000000000000000000000000000000000600052602260045260246000fd5b6000601f19601f8301169050919050565b61285e8161267c565b811461286957600080fd5b50565b6128758161268e565b811461288057600080fd5b50565b61288c8161269a565b811461289757600080fd5b50565b6128a3816126c4565b81146128ae57600080fd5b5056fea2646970667358221220491743fe47a3abf2cc36cf4c0c6479be2e519b7b2e9bcdf7fc6875a96a53832b64736f6c63430008000033",
  "linkReferences": {},
  "deployedLinkReferences": {}
}